{
	"FundMe.sol": {
		"FundMe": {
			"abi": [
				{
					"inputs": [
						{
							"internalType": "contract AggregatorV3Interface",
							"name": "_aggregator",
							"type": "address"
						}
					],
					"stateMutability": "nonpayable",
					"type": "constructor"
				},
				{
					"inputs": [],
					"name": "fund",
					"outputs": [],
					"stateMutability": "payable",
					"type": "function"
				},
				{
					"inputs": [],
					"name": "getPrice",
					"outputs": [
						{
							"internalType": "uint256",
							"name": "",
							"type": "uint256"
						}
					],
					"stateMutability": "view",
					"type": "function"
				},
				{
					"inputs": [
						{
							"internalType": "uint256",
							"name": "userPrice",
							"type": "uint256"
						}
					],
					"name": "getPriceInUsd",
					"outputs": [
						{
							"internalType": "uint256",
							"name": "",
							"type": "uint256"
						}
					],
					"stateMutability": "view",
					"type": "function"
				},
				{
					"inputs": [],
					"name": "minimumUsd",
					"outputs": [
						{
							"internalType": "uint256",
							"name": "",
							"type": "uint256"
						}
					],
					"stateMutability": "view",
					"type": "function"
				}
			],
			"devdoc": {
				"kind": "dev",
				"methods": {},
				"version": 1
			},
			"evm": {
				"assembly": "    /* \"FundMe.sol\":258:1385  contract FundMe {... */\n  mstore(0x40, 0x80)\n    /* \"FundMe.sol\":441:442  5 */\n  0x05\n    /* \"FundMe.sol\":413:442  uint256 public minimumUsd = 5 */\n  0x01\n  sstore\n    /* \"FundMe.sol\":320:407  constructor(AggregatorV3Interface _aggregator){... */\n  callvalue\n  dup1\n  iszero\n  tag_1\n  jumpi\n  0x00\n  dup1\n  revert\ntag_1:\n  pop\n  mload(0x40)\n  sub(codesize, bytecodeSize)\n  dup1\n  bytecodeSize\n  dup4\n  codecopy\n  dup2\n  dup2\n  add\n  0x40\n  mstore\n  dup2\n  add\n  swap1\n  tag_2\n  swap2\n  swap1\n  tag_3\n  jump\t// in\ntag_2:\n    /* \"FundMe.sol\":389:400  _aggregator */\n  dup1\n    /* \"FundMe.sol\":376:386  aggregator */\n  0x00\n  dup1\n    /* \"FundMe.sol\":376:400  aggregator = _aggregator */\n  0x0100\n  exp\n  dup2\n  sload\n  dup2\n  0xffffffffffffffffffffffffffffffffffffffff\n  mul\n  not\n  and\n  swap1\n  dup4\n  0xffffffffffffffffffffffffffffffffffffffff\n  and\n  mul\n  or\n  swap1\n  sstore\n  pop\n    /* \"FundMe.sol\":320:407  constructor(AggregatorV3Interface _aggregator){... */\n  pop\n    /* \"FundMe.sol\":258:1385  contract FundMe {... */\n  jump(tag_6)\n    /* \"#utility.yul\":88:205   */\ntag_8:\n    /* \"#utility.yul\":197:198   */\n  0x00\n    /* \"#utility.yul\":194:195   */\n  dup1\n    /* \"#utility.yul\":187:199   */\n  revert\n    /* \"#utility.yul\":334:460   */\ntag_10:\n    /* \"#utility.yul\":371:378   */\n  0x00\n    /* \"#utility.yul\":411:453   */\n  0xffffffffffffffffffffffffffffffffffffffff\n    /* \"#utility.yul\":404:409   */\n  dup3\n    /* \"#utility.yul\":400:454   */\n  and\n    /* \"#utility.yul\":389:454   */\n  swap1\n  pop\n    /* \"#utility.yul\":334:460   */\n  swap2\n  swap1\n  pop\n  jump\t// out\n    /* \"#utility.yul\":466:562   */\ntag_11:\n    /* \"#utility.yul\":503:510   */\n  0x00\n    /* \"#utility.yul\":532:556   */\n  tag_21\n    /* \"#utility.yul\":550:555   */\n  dup3\n    /* \"#utility.yul\":532:556   */\n  tag_10\n  jump\t// in\ntag_21:\n    /* \"#utility.yul\":521:556   */\n  swap1\n  pop\n    /* \"#utility.yul\":466:562   */\n  swap2\n  swap1\n  pop\n  jump\t// out\n    /* \"#utility.yul\":568:692   */\ntag_12:\n    /* \"#utility.yul\":633:640   */\n  0x00\n    /* \"#utility.yul\":662:686   */\n  tag_23\n    /* \"#utility.yul\":680:685   */\n  dup3\n    /* \"#utility.yul\":662:686   */\n  tag_11\n  jump\t// in\ntag_23:\n    /* \"#utility.yul\":651:686   */\n  swap1\n  pop\n    /* \"#utility.yul\":568:692   */\n  swap2\n  swap1\n  pop\n  jump\t// out\n    /* \"#utility.yul\":698:876   */\ntag_13:\n    /* \"#utility.yul\":799:851   */\n  tag_25\n    /* \"#utility.yul\":845:850   */\n  dup2\n    /* \"#utility.yul\":799:851   */\n  tag_12\n  jump\t// in\ntag_25:\n    /* \"#utility.yul\":792:797   */\n  dup2\n    /* \"#utility.yul\":789:852   */\n  eq\n    /* \"#utility.yul\":779:870   */\n  tag_26\n  jumpi\n    /* \"#utility.yul\":866:867   */\n  0x00\n    /* \"#utility.yul\":863:864   */\n  dup1\n    /* \"#utility.yul\":856:868   */\n  revert\n    /* \"#utility.yul\":779:870   */\ntag_26:\n    /* \"#utility.yul\":698:876   */\n  pop\n  jump\t// out\n    /* \"#utility.yul\":882:1081   */\ntag_14:\n    /* \"#utility.yul\":967:972   */\n  0x00\n    /* \"#utility.yul\":998:1004   */\n  dup2\n    /* \"#utility.yul\":992:1005   */\n  mload\n    /* \"#utility.yul\":983:1005   */\n  swap1\n  pop\n    /* \"#utility.yul\":1014:1075   */\n  tag_28\n    /* \"#utility.yul\":1069:1074   */\n  dup2\n    /* \"#utility.yul\":1014:1075   */\n  tag_13\n  jump\t// in\ntag_28:\n    /* \"#utility.yul\":882:1081   */\n  swap3\n  swap2\n  pop\n  pop\n  jump\t// out\n    /* \"#utility.yul\":1087:1494   */\ntag_3:\n    /* \"#utility.yul\":1185:1191   */\n  0x00\n    /* \"#utility.yul\":1234:1236   */\n  0x20\n    /* \"#utility.yul\":1222:1231   */\n  dup3\n    /* \"#utility.yul\":1213:1220   */\n  dup5\n    /* \"#utility.yul\":1209:1232   */\n  sub\n    /* \"#utility.yul\":1205:1237   */\n  slt\n    /* \"#utility.yul\":1202:1321   */\n  iszero\n  tag_30\n  jumpi\n    /* \"#utility.yul\":1240:1319   */\n  tag_31\n  tag_8\n  jump\t// in\ntag_31:\n    /* \"#utility.yul\":1202:1321   */\ntag_30:\n    /* \"#utility.yul\":1360:1361   */\n  0x00\n    /* \"#utility.yul\":1385:1477   */\n  tag_32\n    /* \"#utility.yul\":1469:1476   */\n  dup5\n    /* \"#utility.yul\":1460:1466   */\n  dup3\n    /* \"#utility.yul\":1449:1458   */\n  dup6\n    /* \"#utility.yul\":1445:1467   */\n  add\n    /* \"#utility.yul\":1385:1477   */\n  tag_14\n  jump\t// in\ntag_32:\n    /* \"#utility.yul\":1375:1477   */\n  swap2\n  pop\n    /* \"#utility.yul\":1331:1487   */\n  pop\n    /* \"#utility.yul\":1087:1494   */\n  swap3\n  swap2\n  pop\n  pop\n  jump\t// out\n    /* \"FundMe.sol\":258:1385  contract FundMe {... */\ntag_6:\n  dataSize(sub_0)\n  dup1\n  dataOffset(sub_0)\n  0x00\n  codecopy\n  0x00\n  return\nstop\n\nsub_0: assembly {\n        /* \"FundMe.sol\":258:1385  contract FundMe {... */\n      mstore(0x40, 0x80)\n      jumpi(tag_1, lt(calldatasize, 0x04))\n      shr(0xe0, calldataload(0x00))\n      dup1\n      0x098de820\n      eq\n      tag_2\n      jumpi\n      dup1\n      0x1bfc8a55\n      eq\n      tag_3\n      jumpi\n      dup1\n      0x98d5fdca\n      eq\n      tag_4\n      jumpi\n      dup1\n      0xb60d4288\n      eq\n      tag_5\n      jumpi\n    tag_1:\n      0x00\n      dup1\n      revert\n        /* \"FundMe.sol\":413:442  uint256 public minimumUsd = 5 */\n    tag_2:\n      callvalue\n      dup1\n      iszero\n      tag_6\n      jumpi\n      0x00\n      dup1\n      revert\n    tag_6:\n      pop\n      tag_7\n      tag_8\n      jump\t// in\n    tag_7:\n      mload(0x40)\n      tag_9\n      swap2\n      swap1\n      tag_10\n      jump\t// in\n    tag_9:\n      mload(0x40)\n      dup1\n      swap2\n      sub\n      swap1\n      return\n        /* \"FundMe.sol\":1148:1383  function getPriceInUsd(uint256 userPrice) public view returns(uint256){... */\n    tag_3:\n      callvalue\n      dup1\n      iszero\n      tag_11\n      jumpi\n      0x00\n      dup1\n      revert\n    tag_11:\n      pop\n      tag_12\n      0x04\n      dup1\n      calldatasize\n      sub\n      dup2\n      add\n      swap1\n      tag_13\n      swap2\n      swap1\n      tag_14\n      jump\t// in\n    tag_13:\n      tag_15\n      jump\t// in\n    tag_12:\n      mload(0x40)\n      tag_16\n      swap2\n      swap1\n      tag_10\n      jump\t// in\n    tag_16:\n      mload(0x40)\n      dup1\n      swap2\n      sub\n      swap1\n      return\n        /* \"FundMe.sol\":785:1142  function getPrice() public view returns (uint256) {... */\n    tag_4:\n      callvalue\n      dup1\n      iszero\n      tag_17\n      jumpi\n      0x00\n      dup1\n      revert\n    tag_17:\n      pop\n      tag_18\n      tag_19\n      jump\t// in\n    tag_18:\n      mload(0x40)\n      tag_20\n      swap2\n      swap1\n      tag_10\n      jump\t// in\n    tag_20:\n      mload(0x40)\n      dup1\n      swap2\n      sub\n      swap1\n      return\n        /* \"FundMe.sol\":449:779  function fund() public payable {... */\n    tag_5:\n      tag_21\n      tag_22\n      jump\t// in\n    tag_21:\n      stop\n        /* \"FundMe.sol\":413:442  uint256 public minimumUsd = 5 */\n    tag_8:\n      sload(0x01)\n      dup2\n      jump\t// out\n        /* \"FundMe.sol\":1148:1383  function getPriceInUsd(uint256 userPrice) public view returns(uint256){... */\n    tag_15:\n        /* \"FundMe.sol\":1210:1217  uint256 */\n      0x00\n        /* \"FundMe.sol\":1228:1248  uint256 currentPrice */\n      dup1\n        /* \"FundMe.sol\":1251:1261  getPrice() */\n      tag_24\n        /* \"FundMe.sol\":1251:1259  getPrice */\n      tag_19\n        /* \"FundMe.sol\":1251:1261  getPrice() */\n      jump\t// in\n    tag_24:\n        /* \"FundMe.sol\":1228:1261  uint256 currentPrice = getPrice() */\n      swap1\n      pop\n        /* \"FundMe.sol\":1308:1312  1e10 */\n      0x02540be400\n        /* \"FundMe.sol\":1295:1304  userPrice */\n      dup4\n        /* \"FundMe.sol\":1280:1292  currentPrice */\n      dup3\n        /* \"FundMe.sol\":1280:1304  currentPrice * userPrice */\n      tag_25\n      swap2\n      swap1\n      tag_26\n      jump\t// in\n    tag_25:\n        /* \"FundMe.sol\":1279:1312  (currentPrice * userPrice) / 1e10 */\n      tag_27\n      swap2\n      swap1\n      tag_28\n      jump\t// in\n    tag_27:\n        /* \"FundMe.sol\":1272:1312  return (currentPrice * userPrice) / 1e10 */\n      swap2\n      pop\n      pop\n        /* \"FundMe.sol\":1148:1383  function getPriceInUsd(uint256 userPrice) public view returns(uint256){... */\n      swap2\n      swap1\n      pop\n      jump\t// out\n        /* \"FundMe.sol\":785:1142  function getPrice() public view returns (uint256) {... */\n    tag_19:\n        /* \"FundMe.sol\":826:833  uint256 */\n      0x00\n        /* \"FundMe.sol\":923:936  int256 answer */\n      dup1\n        /* \"FundMe.sol\":946:956  aggregator */\n      0x00\n      dup1\n      sload\n      swap1\n      0x0100\n      exp\n      swap1\n      div\n      0xffffffffffffffffffffffffffffffffffffffff\n      and\n        /* \"FundMe.sol\":946:972  aggregator.latestRoundData */\n      0xffffffffffffffffffffffffffffffffffffffff\n      and\n      0xfeaf968c\n        /* \"FundMe.sol\":946:974  aggregator.latestRoundData() */\n      mload(0x40)\n      dup2\n      0xffffffff\n      and\n      0xe0\n      shl\n      dup2\n      mstore\n      0x04\n      add\n      0xa0\n      mload(0x40)\n      dup1\n      dup4\n      sub\n      dup2\n      dup7\n      gas\n      staticcall\n      iszero\n      dup1\n      iszero\n      tag_31\n      jumpi\n      returndatasize\n      0x00\n      dup1\n      returndatacopy\n      revert(0x00, returndatasize)\n    tag_31:\n      pop\n      pop\n      pop\n      pop\n      mload(0x40)\n      returndatasize\n      not(0x1f)\n      0x1f\n      dup3\n      add\n      and\n      dup3\n      add\n      dup1\n      0x40\n      mstore\n      pop\n      dup2\n      add\n      swap1\n      tag_32\n      swap2\n      swap1\n      tag_33\n      jump\t// in\n    tag_32:\n        /* \"FundMe.sol\":921:974  (,int256 answer, , , ) = aggregator.latestRoundData() */\n      pop\n      pop\n      pop\n      swap2\n      pop\n      pop\n        /* \"FundMe.sol\":1006:1010  1e10 */\n      0x02540be400\n        /* \"FundMe.sol\":997:1003  answer */\n      dup2\n        /* \"FundMe.sol\":997:1010  answer * 1e10 */\n      tag_34\n      swap2\n      swap1\n      tag_35\n      jump\t// in\n    tag_34:\n        /* \"FundMe.sol\":985:1011  return uint(answer * 1e10) */\n      swap2\n      pop\n      pop\n        /* \"FundMe.sol\":785:1142  function getPrice() public view returns (uint256) {... */\n      swap1\n      jump\t// out\n        /* \"FundMe.sol\":449:779  function fund() public payable {... */\n    tag_22:\n        /* \"FundMe.sol\":674:678  1e18 */\n      0x0de0b6b3a7640000\n        /* \"FundMe.sol\":646:670  getPriceInUsd(msg.value) */\n      tag_37\n        /* \"FundMe.sol\":660:669  msg.value */\n      callvalue\n        /* \"FundMe.sol\":646:659  getPriceInUsd */\n      tag_15\n        /* \"FundMe.sol\":646:670  getPriceInUsd(msg.value) */\n      jump\t// in\n    tag_37:\n        /* \"FundMe.sol\":646:678  getPriceInUsd(msg.value) >= 1e18 */\n      lt\n      iszero\n        /* \"FundMe.sol\":638:734  require(getPriceInUsd(msg.value) >= 1e18, \"Please top up your balance to make this transaction\") */\n      tag_38\n      jumpi\n      mload(0x40)\n      0x08c379a000000000000000000000000000000000000000000000000000000000\n      dup2\n      mstore\n      0x04\n      add\n      tag_39\n      swap1\n      tag_40\n      jump\t// in\n    tag_39:\n      mload(0x40)\n      dup1\n      swap2\n      sub\n      swap1\n      revert\n    tag_38:\n        /* \"FundMe.sol\":449:779  function fund() public payable {... */\n      jump\t// out\n        /* \"#utility.yul\":7:84   */\n    tag_41:\n        /* \"#utility.yul\":44:51   */\n      0x00\n        /* \"#utility.yul\":73:78   */\n      dup2\n        /* \"#utility.yul\":62:78   */\n      swap1\n      pop\n        /* \"#utility.yul\":7:84   */\n      swap2\n      swap1\n      pop\n      jump\t// out\n        /* \"#utility.yul\":90:208   */\n    tag_42:\n        /* \"#utility.yul\":177:201   */\n      tag_63\n        /* \"#utility.yul\":195:200   */\n      dup2\n        /* \"#utility.yul\":177:201   */\n      tag_41\n      jump\t// in\n    tag_63:\n        /* \"#utility.yul\":172:175   */\n      dup3\n        /* \"#utility.yul\":165:202   */\n      mstore\n        /* \"#utility.yul\":90:208   */\n      pop\n      pop\n      jump\t// out\n        /* \"#utility.yul\":214:436   */\n    tag_10:\n        /* \"#utility.yul\":307:311   */\n      0x00\n        /* \"#utility.yul\":345:347   */\n      0x20\n        /* \"#utility.yul\":334:343   */\n      dup3\n        /* \"#utility.yul\":330:348   */\n      add\n        /* \"#utility.yul\":322:348   */\n      swap1\n      pop\n        /* \"#utility.yul\":358:429   */\n      tag_65\n        /* \"#utility.yul\":426:427   */\n      0x00\n        /* \"#utility.yul\":415:424   */\n      dup4\n        /* \"#utility.yul\":411:428   */\n      add\n        /* \"#utility.yul\":402:408   */\n      dup5\n        /* \"#utility.yul\":358:429   */\n      tag_42\n      jump\t// in\n    tag_65:\n        /* \"#utility.yul\":214:436   */\n      swap3\n      swap2\n      pop\n      pop\n      jump\t// out\n        /* \"#utility.yul\":523:640   */\n    tag_44:\n        /* \"#utility.yul\":632:633   */\n      0x00\n        /* \"#utility.yul\":629:630   */\n      dup1\n        /* \"#utility.yul\":622:634   */\n      revert\n        /* \"#utility.yul\":769:891   */\n    tag_46:\n        /* \"#utility.yul\":842:866   */\n      tag_70\n        /* \"#utility.yul\":860:865   */\n      dup2\n        /* \"#utility.yul\":842:866   */\n      tag_41\n      jump\t// in\n    tag_70:\n        /* \"#utility.yul\":835:840   */\n      dup2\n        /* \"#utility.yul\":832:867   */\n      eq\n        /* \"#utility.yul\":822:885   */\n      tag_71\n      jumpi\n        /* \"#utility.yul\":881:882   */\n      0x00\n        /* \"#utility.yul\":878:879   */\n      dup1\n        /* \"#utility.yul\":871:883   */\n      revert\n        /* \"#utility.yul\":822:885   */\n    tag_71:\n        /* \"#utility.yul\":769:891   */\n      pop\n      jump\t// out\n        /* \"#utility.yul\":897:1036   */\n    tag_47:\n        /* \"#utility.yul\":943:948   */\n      0x00\n        /* \"#utility.yul\":981:987   */\n      dup2\n        /* \"#utility.yul\":968:988   */\n      calldataload\n        /* \"#utility.yul\":959:988   */\n      swap1\n      pop\n        /* \"#utility.yul\":997:1030   */\n      tag_73\n        /* \"#utility.yul\":1024:1029   */\n      dup2\n        /* \"#utility.yul\":997:1030   */\n      tag_46\n      jump\t// in\n    tag_73:\n        /* \"#utility.yul\":897:1036   */\n      swap3\n      swap2\n      pop\n      pop\n      jump\t// out\n        /* \"#utility.yul\":1042:1371   */\n    tag_14:\n        /* \"#utility.yul\":1101:1107   */\n      0x00\n        /* \"#utility.yul\":1150:1152   */\n      0x20\n        /* \"#utility.yul\":1138:1147   */\n      dup3\n        /* \"#utility.yul\":1129:1136   */\n      dup5\n        /* \"#utility.yul\":1125:1148   */\n      sub\n        /* \"#utility.yul\":1121:1153   */\n      slt\n        /* \"#utility.yul\":1118:1237   */\n      iszero\n      tag_75\n      jumpi\n        /* \"#utility.yul\":1156:1235   */\n      tag_76\n      tag_44\n      jump\t// in\n    tag_76:\n        /* \"#utility.yul\":1118:1237   */\n    tag_75:\n        /* \"#utility.yul\":1276:1277   */\n      0x00\n        /* \"#utility.yul\":1301:1354   */\n      tag_77\n        /* \"#utility.yul\":1346:1353   */\n      dup5\n        /* \"#utility.yul\":1337:1343   */\n      dup3\n        /* \"#utility.yul\":1326:1335   */\n      dup6\n        /* \"#utility.yul\":1322:1344   */\n      add\n        /* \"#utility.yul\":1301:1354   */\n      tag_47\n      jump\t// in\n    tag_77:\n        /* \"#utility.yul\":1291:1354   */\n      swap2\n      pop\n        /* \"#utility.yul\":1247:1364   */\n      pop\n        /* \"#utility.yul\":1042:1371   */\n      swap3\n      swap2\n      pop\n      pop\n      jump\t// out\n        /* \"#utility.yul\":1377:1557   */\n    tag_48:\n        /* \"#utility.yul\":1425:1502   */\n      0x4e487b7100000000000000000000000000000000000000000000000000000000\n        /* \"#utility.yul\":1422:1423   */\n      0x00\n        /* \"#utility.yul\":1415:1503   */\n      mstore\n        /* \"#utility.yul\":1522:1526   */\n      0x11\n        /* \"#utility.yul\":1519:1520   */\n      0x04\n        /* \"#utility.yul\":1512:1527   */\n      mstore\n        /* \"#utility.yul\":1546:1550   */\n      0x24\n        /* \"#utility.yul\":1543:1544   */\n      0x00\n        /* \"#utility.yul\":1536:1551   */\n      revert\n        /* \"#utility.yul\":1563:1973   */\n    tag_26:\n        /* \"#utility.yul\":1603:1610   */\n      0x00\n        /* \"#utility.yul\":1626:1646   */\n      tag_80\n        /* \"#utility.yul\":1644:1645   */\n      dup3\n        /* \"#utility.yul\":1626:1646   */\n      tag_41\n      jump\t// in\n    tag_80:\n        /* \"#utility.yul\":1621:1646   */\n      swap2\n      pop\n        /* \"#utility.yul\":1660:1680   */\n      tag_81\n        /* \"#utility.yul\":1678:1679   */\n      dup4\n        /* \"#utility.yul\":1660:1680   */\n      tag_41\n      jump\t// in\n    tag_81:\n        /* \"#utility.yul\":1655:1680   */\n      swap3\n      pop\n        /* \"#utility.yul\":1715:1716   */\n      dup3\n        /* \"#utility.yul\":1712:1713   */\n      dup3\n        /* \"#utility.yul\":1708:1717   */\n      mul\n        /* \"#utility.yul\":1737:1767   */\n      tag_82\n        /* \"#utility.yul\":1755:1766   */\n      dup2\n        /* \"#utility.yul\":1737:1767   */\n      tag_41\n      jump\t// in\n    tag_82:\n        /* \"#utility.yul\":1726:1767   */\n      swap2\n      pop\n        /* \"#utility.yul\":1916:1917   */\n      dup3\n        /* \"#utility.yul\":1907:1914   */\n      dup3\n        /* \"#utility.yul\":1903:1918   */\n      div\n        /* \"#utility.yul\":1900:1901   */\n      dup5\n        /* \"#utility.yul\":1897:1919   */\n      eq\n        /* \"#utility.yul\":1877:1878   */\n      dup4\n        /* \"#utility.yul\":1870:1879   */\n      iszero\n        /* \"#utility.yul\":1850:1933   */\n      or\n        /* \"#utility.yul\":1827:1966   */\n      tag_83\n      jumpi\n        /* \"#utility.yul\":1946:1964   */\n      tag_84\n      tag_48\n      jump\t// in\n    tag_84:\n        /* \"#utility.yul\":1827:1966   */\n    tag_83:\n        /* \"#utility.yul\":1611:1973   */\n      pop\n        /* \"#utility.yul\":1563:1973   */\n      swap3\n      swap2\n      pop\n      pop\n      jump\t// out\n        /* \"#utility.yul\":1979:2159   */\n    tag_49:\n        /* \"#utility.yul\":2027:2104   */\n      0x4e487b7100000000000000000000000000000000000000000000000000000000\n        /* \"#utility.yul\":2024:2025   */\n      0x00\n        /* \"#utility.yul\":2017:2105   */\n      mstore\n        /* \"#utility.yul\":2124:2128   */\n      0x12\n        /* \"#utility.yul\":2121:2122   */\n      0x04\n        /* \"#utility.yul\":2114:2129   */\n      mstore\n        /* \"#utility.yul\":2148:2152   */\n      0x24\n        /* \"#utility.yul\":2145:2146   */\n      0x00\n        /* \"#utility.yul\":2138:2153   */\n      revert\n        /* \"#utility.yul\":2165:2350   */\n    tag_28:\n        /* \"#utility.yul\":2205:2206   */\n      0x00\n        /* \"#utility.yul\":2222:2242   */\n      tag_87\n        /* \"#utility.yul\":2240:2241   */\n      dup3\n        /* \"#utility.yul\":2222:2242   */\n      tag_41\n      jump\t// in\n    tag_87:\n        /* \"#utility.yul\":2217:2242   */\n      swap2\n      pop\n        /* \"#utility.yul\":2256:2276   */\n      tag_88\n        /* \"#utility.yul\":2274:2275   */\n      dup4\n        /* \"#utility.yul\":2256:2276   */\n      tag_41\n      jump\t// in\n    tag_88:\n        /* \"#utility.yul\":2251:2276   */\n      swap3\n      pop\n        /* \"#utility.yul\":2295:2296   */\n      dup3\n        /* \"#utility.yul\":2285:2320   */\n      tag_89\n      jumpi\n        /* \"#utility.yul\":2300:2318   */\n      tag_90\n      tag_49\n      jump\t// in\n    tag_90:\n        /* \"#utility.yul\":2285:2320   */\n    tag_89:\n        /* \"#utility.yul\":2342:2343   */\n      dup3\n        /* \"#utility.yul\":2339:2340   */\n      dup3\n        /* \"#utility.yul\":2335:2344   */\n      div\n        /* \"#utility.yul\":2330:2344   */\n      swap1\n      pop\n        /* \"#utility.yul\":2165:2350   */\n      swap3\n      swap2\n      pop\n      pop\n      jump\t// out\n        /* \"#utility.yul\":2356:2461   */\n    tag_50:\n        /* \"#utility.yul\":2392:2399   */\n      0x00\n        /* \"#utility.yul\":2432:2454   */\n      0xffffffffffffffffffff\n        /* \"#utility.yul\":2425:2430   */\n      dup3\n        /* \"#utility.yul\":2421:2455   */\n      and\n        /* \"#utility.yul\":2410:2455   */\n      swap1\n      pop\n        /* \"#utility.yul\":2356:2461   */\n      swap2\n      swap1\n      pop\n      jump\t// out\n        /* \"#utility.yul\":2467:2587   */\n    tag_51:\n        /* \"#utility.yul\":2539:2562   */\n      tag_93\n        /* \"#utility.yul\":2556:2561   */\n      dup2\n        /* \"#utility.yul\":2539:2562   */\n      tag_50\n      jump\t// in\n    tag_93:\n        /* \"#utility.yul\":2532:2537   */\n      dup2\n        /* \"#utility.yul\":2529:2563   */\n      eq\n        /* \"#utility.yul\":2519:2581   */\n      tag_94\n      jumpi\n        /* \"#utility.yul\":2577:2578   */\n      0x00\n        /* \"#utility.yul\":2574:2575   */\n      dup1\n        /* \"#utility.yul\":2567:2579   */\n      revert\n        /* \"#utility.yul\":2519:2581   */\n    tag_94:\n        /* \"#utility.yul\":2467:2587   */\n      pop\n      jump\t// out\n        /* \"#utility.yul\":2593:2734   */\n    tag_52:\n        /* \"#utility.yul\":2649:2654   */\n      0x00\n        /* \"#utility.yul\":2680:2686   */\n      dup2\n        /* \"#utility.yul\":2674:2687   */\n      mload\n        /* \"#utility.yul\":2665:2687   */\n      swap1\n      pop\n        /* \"#utility.yul\":2696:2728   */\n      tag_96\n        /* \"#utility.yul\":2722:2727   */\n      dup2\n        /* \"#utility.yul\":2696:2728   */\n      tag_51\n      jump\t// in\n    tag_96:\n        /* \"#utility.yul\":2593:2734   */\n      swap3\n      swap2\n      pop\n      pop\n      jump\t// out\n        /* \"#utility.yul\":2740:2816   */\n    tag_53:\n        /* \"#utility.yul\":2776:2783   */\n      0x00\n        /* \"#utility.yul\":2805:2810   */\n      dup2\n        /* \"#utility.yul\":2794:2810   */\n      swap1\n      pop\n        /* \"#utility.yul\":2740:2816   */\n      swap2\n      swap1\n      pop\n      jump\t// out\n        /* \"#utility.yul\":2822:2942   */\n    tag_54:\n        /* \"#utility.yul\":2894:2917   */\n      tag_99\n        /* \"#utility.yul\":2911:2916   */\n      dup2\n        /* \"#utility.yul\":2894:2917   */\n      tag_53\n      jump\t// in\n    tag_99:\n        /* \"#utility.yul\":2887:2892   */\n      dup2\n        /* \"#utility.yul\":2884:2918   */\n      eq\n        /* \"#utility.yul\":2874:2936   */\n      tag_100\n      jumpi\n        /* \"#utility.yul\":2932:2933   */\n      0x00\n        /* \"#utility.yul\":2929:2930   */\n      dup1\n        /* \"#utility.yul\":2922:2934   */\n      revert\n        /* \"#utility.yul\":2874:2936   */\n    tag_100:\n        /* \"#utility.yul\":2822:2942   */\n      pop\n      jump\t// out\n        /* \"#utility.yul\":2948:3089   */\n    tag_55:\n        /* \"#utility.yul\":3004:3009   */\n      0x00\n        /* \"#utility.yul\":3035:3041   */\n      dup2\n        /* \"#utility.yul\":3029:3042   */\n      mload\n        /* \"#utility.yul\":3020:3042   */\n      swap1\n      pop\n        /* \"#utility.yul\":3051:3083   */\n      tag_102\n        /* \"#utility.yul\":3077:3082   */\n      dup2\n        /* \"#utility.yul\":3051:3083   */\n      tag_54\n      jump\t// in\n    tag_102:\n        /* \"#utility.yul\":2948:3089   */\n      swap3\n      swap2\n      pop\n      pop\n      jump\t// out\n        /* \"#utility.yul\":3095:3238   */\n    tag_56:\n        /* \"#utility.yul\":3152:3157   */\n      0x00\n        /* \"#utility.yul\":3183:3189   */\n      dup2\n        /* \"#utility.yul\":3177:3190   */\n      mload\n        /* \"#utility.yul\":3168:3190   */\n      swap1\n      pop\n        /* \"#utility.yul\":3199:3232   */\n      tag_104\n        /* \"#utility.yul\":3226:3231   */\n      dup2\n        /* \"#utility.yul\":3199:3232   */\n      tag_46\n      jump\t// in\n    tag_104:\n        /* \"#utility.yul\":3095:3238   */\n      swap3\n      swap2\n      pop\n      pop\n      jump\t// out\n        /* \"#utility.yul\":3244:4215   */\n    tag_33:\n        /* \"#utility.yul\":3347:3353   */\n      0x00\n        /* \"#utility.yul\":3355:3361   */\n      dup1\n        /* \"#utility.yul\":3363:3369   */\n      0x00\n        /* \"#utility.yul\":3371:3377   */\n      dup1\n        /* \"#utility.yul\":3379:3385   */\n      0x00\n        /* \"#utility.yul\":3428:3431   */\n      0xa0\n        /* \"#utility.yul\":3416:3425   */\n      dup7\n        /* \"#utility.yul\":3407:3414   */\n      dup9\n        /* \"#utility.yul\":3403:3426   */\n      sub\n        /* \"#utility.yul\":3399:3432   */\n      slt\n        /* \"#utility.yul\":3396:3516   */\n      iszero\n      tag_106\n      jumpi\n        /* \"#utility.yul\":3435:3514   */\n      tag_107\n      tag_44\n      jump\t// in\n    tag_107:\n        /* \"#utility.yul\":3396:3516   */\n    tag_106:\n        /* \"#utility.yul\":3555:3556   */\n      0x00\n        /* \"#utility.yul\":3580:3643   */\n      tag_108\n        /* \"#utility.yul\":3635:3642   */\n      dup9\n        /* \"#utility.yul\":3626:3632   */\n      dup3\n        /* \"#utility.yul\":3615:3624   */\n      dup10\n        /* \"#utility.yul\":3611:3633   */\n      add\n        /* \"#utility.yul\":3580:3643   */\n      tag_52\n      jump\t// in\n    tag_108:\n        /* \"#utility.yul\":3570:3643   */\n      swap6\n      pop\n        /* \"#utility.yul\":3526:3653   */\n      pop\n        /* \"#utility.yul\":3692:3694   */\n      0x20\n        /* \"#utility.yul\":3718:3781   */\n      tag_109\n        /* \"#utility.yul\":3773:3780   */\n      dup9\n        /* \"#utility.yul\":3764:3770   */\n      dup3\n        /* \"#utility.yul\":3753:3762   */\n      dup10\n        /* \"#utility.yul\":3749:3771   */\n      add\n        /* \"#utility.yul\":3718:3781   */\n      tag_55\n      jump\t// in\n    tag_109:\n        /* \"#utility.yul\":3708:3781   */\n      swap5\n      pop\n        /* \"#utility.yul\":3663:3791   */\n      pop\n        /* \"#utility.yul\":3830:3832   */\n      0x40\n        /* \"#utility.yul\":3856:3920   */\n      tag_110\n        /* \"#utility.yul\":3912:3919   */\n      dup9\n        /* \"#utility.yul\":3903:3909   */\n      dup3\n        /* \"#utility.yul\":3892:3901   */\n      dup10\n        /* \"#utility.yul\":3888:3910   */\n      add\n        /* \"#utility.yul\":3856:3920   */\n      tag_56\n      jump\t// in\n    tag_110:\n        /* \"#utility.yul\":3846:3920   */\n      swap4\n      pop\n        /* \"#utility.yul\":3801:3930   */\n      pop\n        /* \"#utility.yul\":3969:3971   */\n      0x60\n        /* \"#utility.yul\":3995:4059   */\n      tag_111\n        /* \"#utility.yul\":4051:4058   */\n      dup9\n        /* \"#utility.yul\":4042:4048   */\n      dup3\n        /* \"#utility.yul\":4031:4040   */\n      dup10\n        /* \"#utility.yul\":4027:4049   */\n      add\n        /* \"#utility.yul\":3995:4059   */\n      tag_56\n      jump\t// in\n    tag_111:\n        /* \"#utility.yul\":3985:4059   */\n      swap3\n      pop\n        /* \"#utility.yul\":3940:4069   */\n      pop\n        /* \"#utility.yul\":4108:4111   */\n      0x80\n        /* \"#utility.yul\":4135:4198   */\n      tag_112\n        /* \"#utility.yul\":4190:4197   */\n      dup9\n        /* \"#utility.yul\":4181:4187   */\n      dup3\n        /* \"#utility.yul\":4170:4179   */\n      dup10\n        /* \"#utility.yul\":4166:4188   */\n      add\n        /* \"#utility.yul\":4135:4198   */\n      tag_52\n      jump\t// in\n    tag_112:\n        /* \"#utility.yul\":4125:4198   */\n      swap2\n      pop\n        /* \"#utility.yul\":4079:4208   */\n      pop\n        /* \"#utility.yul\":3244:4215   */\n      swap3\n      swap6\n      pop\n      swap3\n      swap6\n      swap1\n      swap4\n      pop\n      jump\t// out\n        /* \"#utility.yul\":4221:4777   */\n    tag_35:\n        /* \"#utility.yul\":4260:4267   */\n      0x00\n        /* \"#utility.yul\":4283:4302   */\n      tag_114\n        /* \"#utility.yul\":4300:4301   */\n      dup3\n        /* \"#utility.yul\":4283:4302   */\n      tag_53\n      jump\t// in\n    tag_114:\n        /* \"#utility.yul\":4278:4302   */\n      swap2\n      pop\n        /* \"#utility.yul\":4316:4335   */\n      tag_115\n        /* \"#utility.yul\":4333:4334   */\n      dup4\n        /* \"#utility.yul\":4316:4335   */\n      tag_53\n      jump\t// in\n    tag_115:\n        /* \"#utility.yul\":4311:4335   */\n      swap3\n      pop\n        /* \"#utility.yul\":4370:4371   */\n      dup3\n        /* \"#utility.yul\":4367:4368   */\n      dup3\n        /* \"#utility.yul\":4363:4372   */\n      mul\n        /* \"#utility.yul\":4392:4421   */\n      tag_116\n        /* \"#utility.yul\":4409:4420   */\n      dup2\n        /* \"#utility.yul\":4392:4421   */\n      tag_53\n      jump\t// in\n    tag_116:\n        /* \"#utility.yul\":4381:4421   */\n      swap2\n      pop\n        /* \"#utility.yul\":4479:4545   */\n      0x8000000000000000000000000000000000000000000000000000000000000000\n        /* \"#utility.yul\":4476:4477   */\n      dup5\n        /* \"#utility.yul\":4473:4546   */\n      eq\n        /* \"#utility.yul\":4469:4470   */\n      0x00\n        /* \"#utility.yul\":4466:4467   */\n      dup5\n        /* \"#utility.yul\":4462:4471   */\n      slt\n        /* \"#utility.yul\":4458:4547   */\n      and\n        /* \"#utility.yul\":4455:4570   */\n      iszero\n      tag_117\n      jumpi\n        /* \"#utility.yul\":4550:4568   */\n      tag_118\n      tag_48\n      jump\t// in\n    tag_118:\n        /* \"#utility.yul\":4455:4570   */\n    tag_117:\n        /* \"#utility.yul\":4720:4721   */\n      dup3\n        /* \"#utility.yul\":4711:4718   */\n      dup3\n        /* \"#utility.yul\":4706:4722   */\n      sdiv\n        /* \"#utility.yul\":4703:4704   */\n      dup5\n        /* \"#utility.yul\":4700:4723   */\n      eq\n        /* \"#utility.yul\":4680:4681   */\n      dup4\n        /* \"#utility.yul\":4673:4682   */\n      iszero\n        /* \"#utility.yul\":4653:4737   */\n      or\n        /* \"#utility.yul\":4630:4770   */\n      tag_119\n      jumpi\n        /* \"#utility.yul\":4750:4768   */\n      tag_120\n      tag_48\n      jump\t// in\n    tag_120:\n        /* \"#utility.yul\":4630:4770   */\n    tag_119:\n        /* \"#utility.yul\":4268:4777   */\n      pop\n        /* \"#utility.yul\":4221:4777   */\n      swap3\n      swap2\n      pop\n      pop\n      jump\t// out\n        /* \"#utility.yul\":4783:4952   */\n    tag_57:\n        /* \"#utility.yul\":4867:4878   */\n      0x00\n        /* \"#utility.yul\":4901:4907   */\n      dup3\n        /* \"#utility.yul\":4896:4899   */\n      dup3\n        /* \"#utility.yul\":4889:4908   */\n      mstore\n        /* \"#utility.yul\":4941:4945   */\n      0x20\n        /* \"#utility.yul\":4936:4939   */\n      dup3\n        /* \"#utility.yul\":4932:4946   */\n      add\n        /* \"#utility.yul\":4917:4946   */\n      swap1\n      pop\n        /* \"#utility.yul\":4783:4952   */\n      swap3\n      swap2\n      pop\n      pop\n      jump\t// out\n        /* \"#utility.yul\":4958:5196   */\n    tag_58:\n        /* \"#utility.yul\":5098:5132   */\n      0x506c6561736520746f7020757020796f75722062616c616e636520746f206d61\n        /* \"#utility.yul\":5094:5095   */\n      0x00\n        /* \"#utility.yul\":5086:5092   */\n      dup3\n        /* \"#utility.yul\":5082:5096   */\n      add\n        /* \"#utility.yul\":5075:5133   */\n      mstore\n        /* \"#utility.yul\":5167:5188   */\n      0x6b652074686973207472616e73616374696f6e00000000000000000000000000\n        /* \"#utility.yul\":5162:5164   */\n      0x20\n        /* \"#utility.yul\":5154:5160   */\n      dup3\n        /* \"#utility.yul\":5150:5165   */\n      add\n        /* \"#utility.yul\":5143:5189   */\n      mstore\n        /* \"#utility.yul\":4958:5196   */\n      pop\n      jump\t// out\n        /* \"#utility.yul\":5202:5568   */\n    tag_59:\n        /* \"#utility.yul\":5344:5347   */\n      0x00\n        /* \"#utility.yul\":5365:5432   */\n      tag_124\n        /* \"#utility.yul\":5429:5431   */\n      0x33\n        /* \"#utility.yul\":5424:5427   */\n      dup4\n        /* \"#utility.yul\":5365:5432   */\n      tag_57\n      jump\t// in\n    tag_124:\n        /* \"#utility.yul\":5358:5432   */\n      swap2\n      pop\n        /* \"#utility.yul\":5441:5534   */\n      tag_125\n        /* \"#utility.yul\":5530:5533   */\n      dup3\n        /* \"#utility.yul\":5441:5534   */\n      tag_58\n      jump\t// in\n    tag_125:\n        /* \"#utility.yul\":5559:5561   */\n      0x40\n        /* \"#utility.yul\":5554:5557   */\n      dup3\n        /* \"#utility.yul\":5550:5562   */\n      add\n        /* \"#utility.yul\":5543:5562   */\n      swap1\n      pop\n        /* \"#utility.yul\":5202:5568   */\n      swap2\n      swap1\n      pop\n      jump\t// out\n        /* \"#utility.yul\":5574:5993   */\n    tag_40:\n        /* \"#utility.yul\":5740:5744   */\n      0x00\n        /* \"#utility.yul\":5778:5780   */\n      0x20\n        /* \"#utility.yul\":5767:5776   */\n      dup3\n        /* \"#utility.yul\":5763:5781   */\n      add\n        /* \"#utility.yul\":5755:5781   */\n      swap1\n      pop\n        /* \"#utility.yul\":5827:5836   */\n      dup2\n        /* \"#utility.yul\":5821:5825   */\n      dup2\n        /* \"#utility.yul\":5817:5837   */\n      sub\n        /* \"#utility.yul\":5813:5814   */\n      0x00\n        /* \"#utility.yul\":5802:5811   */\n      dup4\n        /* \"#utility.yul\":5798:5815   */\n      add\n        /* \"#utility.yul\":5791:5838   */\n      mstore\n        /* \"#utility.yul\":5855:5986   */\n      tag_127\n        /* \"#utility.yul\":5981:5985   */\n      dup2\n        /* \"#utility.yul\":5855:5986   */\n      tag_59\n      jump\t// in\n    tag_127:\n        /* \"#utility.yul\":5847:5986   */\n      swap1\n      pop\n        /* \"#utility.yul\":5574:5993   */\n      swap2\n      swap1\n      pop\n      jump\t// out\n\n    auxdata: 0xa26469706673582212201f2c00aad8f57a4179b11752cfa591ba590cddb77b9f4192b7eaa263e3de07a264736f6c63430008160033\n}\n",
				"bytecode": {
					"linkReferences": {},
					"object": "60806040526005600155348015610014575f80fd5b506040516106d03803806106d0833981810160405281019061003691906100ea565b805f806101000a81548173ffffffffffffffffffffffffffffffffffffffff021916908373ffffffffffffffffffffffffffffffffffffffff16021790555050610115565b5f80fd5b5f73ffffffffffffffffffffffffffffffffffffffff82169050919050565b5f6100a88261007f565b9050919050565b5f6100b98261009e565b9050919050565b6100c9816100af565b81146100d3575f80fd5b50565b5f815190506100e4816100c0565b92915050565b5f602082840312156100ff576100fe61007b565b5b5f61010c848285016100d6565b91505092915050565b6105ae806101225f395ff3fe60806040526004361061003e575f3560e01c8063098de820146100425780631bfc8a551461006c57806398d5fdca146100a8578063b60d4288146100d2575b5f80fd5b34801561004d575f80fd5b506100566100dc565b604051610063919061022a565b60405180910390f35b348015610077575f80fd5b50610092600480360381019061008d9190610271565b6100e2565b60405161009f919061022a565b60405180910390f35b3480156100b3575f80fd5b506100bc610112565b6040516100c9919061022a565b60405180910390f35b6100da6101bd565b005b60015481565b5f806100ec610112565b90506402540be400838261010091906102c9565b61010a9190610337565b915050919050565b5f805f8054906101000a900473ffffffffffffffffffffffffffffffffffffffff1673ffffffffffffffffffffffffffffffffffffffff1663feaf968c6040518163ffffffff1660e01b815260040160a060405180830381865afa15801561017c573d5f803e3d5ffd5b505050506040513d601f19601f820116820180604052508101906101a091906103ed565b5050509150506402540be400816101b79190610464565b91505090565b670de0b6b3a76400006101cf346100e2565b1015610210576040517f08c379a00000000000000000000000000000000000000000000000000000000081526004016102079061055a565b60405180910390fd5b565b5f819050919050565b61022481610212565b82525050565b5f60208201905061023d5f83018461021b565b92915050565b5f80fd5b61025081610212565b811461025a575f80fd5b50565b5f8135905061026b81610247565b92915050565b5f6020828403121561028657610285610243565b5b5f6102938482850161025d565b91505092915050565b7f4e487b71000000000000000000000000000000000000000000000000000000005f52601160045260245ffd5b5f6102d382610212565b91506102de83610212565b92508282026102ec81610212565b915082820484148315176103035761030261029c565b5b5092915050565b7f4e487b71000000000000000000000000000000000000000000000000000000005f52601260045260245ffd5b5f61034182610212565b915061034c83610212565b92508261035c5761035b61030a565b5b828204905092915050565b5f69ffffffffffffffffffff82169050919050565b61038581610367565b811461038f575f80fd5b50565b5f815190506103a08161037c565b92915050565b5f819050919050565b6103b8816103a6565b81146103c2575f80fd5b50565b5f815190506103d3816103af565b92915050565b5f815190506103e781610247565b92915050565b5f805f805f60a0868803121561040657610405610243565b5b5f61041388828901610392565b9550506020610424888289016103c5565b9450506040610435888289016103d9565b9350506060610446888289016103d9565b925050608061045788828901610392565b9150509295509295909350565b5f61046e826103a6565b9150610479836103a6565b9250828202610487816103a6565b91507f800000000000000000000000000000000000000000000000000000000000000084145f841216156104be576104bd61029c565b5b82820584148315176104d3576104d261029c565b5b5092915050565b5f82825260208201905092915050565b7f506c6561736520746f7020757020796f75722062616c616e636520746f206d615f8201527f6b652074686973207472616e73616374696f6e00000000000000000000000000602082015250565b5f6105446033836104da565b915061054f826104ea565b604082019050919050565b5f6020820190508181035f83015261057181610538565b905091905056fea26469706673582212201f2c00aad8f57a4179b11752cfa591ba590cddb77b9f4192b7eaa263e3de07a264736f6c63430008160033",
					"opcodes": "PUSH1 0x80 PUSH1 0x40 MSTORE PUSH1 0x5 PUSH1 0x1 SSTORE CALLVALUE DUP1 ISZERO PUSH2 0x14 JUMPI PUSH0 DUP1 REVERT JUMPDEST POP PUSH1 0x40 MLOAD PUSH2 0x6D0 CODESIZE SUB DUP1 PUSH2 0x6D0 DUP4 CODECOPY DUP2 DUP2 ADD PUSH1 0x40 MSTORE DUP2 ADD SWAP1 PUSH2 0x36 SWAP2 SWAP1 PUSH2 0xEA JUMP JUMPDEST DUP1 PUSH0 DUP1 PUSH2 0x100 EXP DUP2 SLOAD DUP2 PUSH20 0xFFFFFFFFFFFFFFFFFFFFFFFFFFFFFFFFFFFFFFFF MUL NOT AND SWAP1 DUP4 PUSH20 0xFFFFFFFFFFFFFFFFFFFFFFFFFFFFFFFFFFFFFFFF AND MUL OR SWAP1 SSTORE POP POP PUSH2 0x115 JUMP JUMPDEST PUSH0 DUP1 REVERT JUMPDEST PUSH0 PUSH20 0xFFFFFFFFFFFFFFFFFFFFFFFFFFFFFFFFFFFFFFFF DUP3 AND SWAP1 POP SWAP2 SWAP1 POP JUMP JUMPDEST PUSH0 PUSH2 0xA8 DUP3 PUSH2 0x7F JUMP JUMPDEST SWAP1 POP SWAP2 SWAP1 POP JUMP JUMPDEST PUSH0 PUSH2 0xB9 DUP3 PUSH2 0x9E JUMP JUMPDEST SWAP1 POP SWAP2 SWAP1 POP JUMP JUMPDEST PUSH2 0xC9 DUP2 PUSH2 0xAF JUMP JUMPDEST DUP2 EQ PUSH2 0xD3 JUMPI PUSH0 DUP1 REVERT JUMPDEST POP JUMP JUMPDEST PUSH0 DUP2 MLOAD SWAP1 POP PUSH2 0xE4 DUP2 PUSH2 0xC0 JUMP JUMPDEST SWAP3 SWAP2 POP POP JUMP JUMPDEST PUSH0 PUSH1 0x20 DUP3 DUP5 SUB SLT ISZERO PUSH2 0xFF JUMPI PUSH2 0xFE PUSH2 0x7B JUMP JUMPDEST JUMPDEST PUSH0 PUSH2 0x10C DUP5 DUP3 DUP6 ADD PUSH2 0xD6 JUMP JUMPDEST SWAP2 POP POP SWAP3 SWAP2 POP POP JUMP JUMPDEST PUSH2 0x5AE DUP1 PUSH2 0x122 PUSH0 CODECOPY PUSH0 RETURN INVALID PUSH1 0x80 PUSH1 0x40 MSTORE PUSH1 0x4 CALLDATASIZE LT PUSH2 0x3E JUMPI PUSH0 CALLDATALOAD PUSH1 0xE0 SHR DUP1 PUSH4 0x98DE820 EQ PUSH2 0x42 JUMPI DUP1 PUSH4 0x1BFC8A55 EQ PUSH2 0x6C JUMPI DUP1 PUSH4 0x98D5FDCA EQ PUSH2 0xA8 JUMPI DUP1 PUSH4 0xB60D4288 EQ PUSH2 0xD2 JUMPI JUMPDEST PUSH0 DUP1 REVERT JUMPDEST CALLVALUE DUP1 ISZERO PUSH2 0x4D JUMPI PUSH0 DUP1 REVERT JUMPDEST POP PUSH2 0x56 PUSH2 0xDC JUMP JUMPDEST PUSH1 0x40 MLOAD PUSH2 0x63 SWAP2 SWAP1 PUSH2 0x22A JUMP JUMPDEST PUSH1 0x40 MLOAD DUP1 SWAP2 SUB SWAP1 RETURN JUMPDEST CALLVALUE DUP1 ISZERO PUSH2 0x77 JUMPI PUSH0 DUP1 REVERT JUMPDEST POP PUSH2 0x92 PUSH1 0x4 DUP1 CALLDATASIZE SUB DUP2 ADD SWAP1 PUSH2 0x8D SWAP2 SWAP1 PUSH2 0x271 JUMP JUMPDEST PUSH2 0xE2 JUMP JUMPDEST PUSH1 0x40 MLOAD PUSH2 0x9F SWAP2 SWAP1 PUSH2 0x22A JUMP JUMPDEST PUSH1 0x40 MLOAD DUP1 SWAP2 SUB SWAP1 RETURN JUMPDEST CALLVALUE DUP1 ISZERO PUSH2 0xB3 JUMPI PUSH0 DUP1 REVERT JUMPDEST POP PUSH2 0xBC PUSH2 0x112 JUMP JUMPDEST PUSH1 0x40 MLOAD PUSH2 0xC9 SWAP2 SWAP1 PUSH2 0x22A JUMP JUMPDEST PUSH1 0x40 MLOAD DUP1 SWAP2 SUB SWAP1 RETURN JUMPDEST PUSH2 0xDA PUSH2 0x1BD JUMP JUMPDEST STOP JUMPDEST PUSH1 0x1 SLOAD DUP2 JUMP JUMPDEST PUSH0 DUP1 PUSH2 0xEC PUSH2 0x112 JUMP JUMPDEST SWAP1 POP PUSH5 0x2540BE400 DUP4 DUP3 PUSH2 0x100 SWAP2 SWAP1 PUSH2 0x2C9 JUMP JUMPDEST PUSH2 0x10A SWAP2 SWAP1 PUSH2 0x337 JUMP JUMPDEST SWAP2 POP POP SWAP2 SWAP1 POP JUMP JUMPDEST PUSH0 DUP1 PUSH0 DUP1 SLOAD SWAP1 PUSH2 0x100 EXP SWAP1 DIV PUSH20 0xFFFFFFFFFFFFFFFFFFFFFFFFFFFFFFFFFFFFFFFF AND PUSH20 0xFFFFFFFFFFFFFFFFFFFFFFFFFFFFFFFFFFFFFFFF AND PUSH4 0xFEAF968C PUSH1 0x40 MLOAD DUP2 PUSH4 0xFFFFFFFF AND PUSH1 0xE0 SHL DUP2 MSTORE PUSH1 0x4 ADD PUSH1 0xA0 PUSH1 0x40 MLOAD DUP1 DUP4 SUB DUP2 DUP7 GAS STATICCALL ISZERO DUP1 ISZERO PUSH2 0x17C JUMPI RETURNDATASIZE PUSH0 DUP1 RETURNDATACOPY RETURNDATASIZE PUSH0 REVERT JUMPDEST POP POP POP POP PUSH1 0x40 MLOAD RETURNDATASIZE PUSH1 0x1F NOT PUSH1 0x1F DUP3 ADD AND DUP3 ADD DUP1 PUSH1 0x40 MSTORE POP DUP2 ADD SWAP1 PUSH2 0x1A0 SWAP2 SWAP1 PUSH2 0x3ED JUMP JUMPDEST POP POP POP SWAP2 POP POP PUSH5 0x2540BE400 DUP2 PUSH2 0x1B7 SWAP2 SWAP1 PUSH2 0x464 JUMP JUMPDEST SWAP2 POP POP SWAP1 JUMP JUMPDEST PUSH8 0xDE0B6B3A7640000 PUSH2 0x1CF CALLVALUE PUSH2 0xE2 JUMP JUMPDEST LT ISZERO PUSH2 0x210 JUMPI PUSH1 0x40 MLOAD PUSH32 0x8C379A000000000000000000000000000000000000000000000000000000000 DUP2 MSTORE PUSH1 0x4 ADD PUSH2 0x207 SWAP1 PUSH2 0x55A JUMP JUMPDEST PUSH1 0x40 MLOAD DUP1 SWAP2 SUB SWAP1 REVERT JUMPDEST JUMP JUMPDEST PUSH0 DUP2 SWAP1 POP SWAP2 SWAP1 POP JUMP JUMPDEST PUSH2 0x224 DUP2 PUSH2 0x212 JUMP JUMPDEST DUP3 MSTORE POP POP JUMP JUMPDEST PUSH0 PUSH1 0x20 DUP3 ADD SWAP1 POP PUSH2 0x23D PUSH0 DUP4 ADD DUP5 PUSH2 0x21B JUMP JUMPDEST SWAP3 SWAP2 POP POP JUMP JUMPDEST PUSH0 DUP1 REVERT JUMPDEST PUSH2 0x250 DUP2 PUSH2 0x212 JUMP JUMPDEST DUP2 EQ PUSH2 0x25A JUMPI PUSH0 DUP1 REVERT JUMPDEST POP JUMP JUMPDEST PUSH0 DUP2 CALLDATALOAD SWAP1 POP PUSH2 0x26B DUP2 PUSH2 0x247 JUMP JUMPDEST SWAP3 SWAP2 POP POP JUMP JUMPDEST PUSH0 PUSH1 0x20 DUP3 DUP5 SUB SLT ISZERO PUSH2 0x286 JUMPI PUSH2 0x285 PUSH2 0x243 JUMP JUMPDEST JUMPDEST PUSH0 PUSH2 0x293 DUP5 DUP3 DUP6 ADD PUSH2 0x25D JUMP JUMPDEST SWAP2 POP POP SWAP3 SWAP2 POP POP JUMP JUMPDEST PUSH32 0x4E487B7100000000000000000000000000000000000000000000000000000000 PUSH0 MSTORE PUSH1 0x11 PUSH1 0x4 MSTORE PUSH1 0x24 PUSH0 REVERT JUMPDEST PUSH0 PUSH2 0x2D3 DUP3 PUSH2 0x212 JUMP JUMPDEST SWAP2 POP PUSH2 0x2DE DUP4 PUSH2 0x212 JUMP JUMPDEST SWAP3 POP DUP3 DUP3 MUL PUSH2 0x2EC DUP2 PUSH2 0x212 JUMP JUMPDEST SWAP2 POP DUP3 DUP3 DIV DUP5 EQ DUP4 ISZERO OR PUSH2 0x303 JUMPI PUSH2 0x302 PUSH2 0x29C JUMP JUMPDEST JUMPDEST POP SWAP3 SWAP2 POP POP JUMP JUMPDEST PUSH32 0x4E487B7100000000000000000000000000000000000000000000000000000000 PUSH0 MSTORE PUSH1 0x12 PUSH1 0x4 MSTORE PUSH1 0x24 PUSH0 REVERT JUMPDEST PUSH0 PUSH2 0x341 DUP3 PUSH2 0x212 JUMP JUMPDEST SWAP2 POP PUSH2 0x34C DUP4 PUSH2 0x212 JUMP JUMPDEST SWAP3 POP DUP3 PUSH2 0x35C JUMPI PUSH2 0x35B PUSH2 0x30A JUMP JUMPDEST JUMPDEST DUP3 DUP3 DIV SWAP1 POP SWAP3 SWAP2 POP POP JUMP JUMPDEST PUSH0 PUSH10 0xFFFFFFFFFFFFFFFFFFFF DUP3 AND SWAP1 POP SWAP2 SWAP1 POP JUMP JUMPDEST PUSH2 0x385 DUP2 PUSH2 0x367 JUMP JUMPDEST DUP2 EQ PUSH2 0x38F JUMPI PUSH0 DUP1 REVERT JUMPDEST POP JUMP JUMPDEST PUSH0 DUP2 MLOAD SWAP1 POP PUSH2 0x3A0 DUP2 PUSH2 0x37C JUMP JUMPDEST SWAP3 SWAP2 POP POP JUMP JUMPDEST PUSH0 DUP2 SWAP1 POP SWAP2 SWAP1 POP JUMP JUMPDEST PUSH2 0x3B8 DUP2 PUSH2 0x3A6 JUMP JUMPDEST DUP2 EQ PUSH2 0x3C2 JUMPI PUSH0 DUP1 REVERT JUMPDEST POP JUMP JUMPDEST PUSH0 DUP2 MLOAD SWAP1 POP PUSH2 0x3D3 DUP2 PUSH2 0x3AF JUMP JUMPDEST SWAP3 SWAP2 POP POP JUMP JUMPDEST PUSH0 DUP2 MLOAD SWAP1 POP PUSH2 0x3E7 DUP2 PUSH2 0x247 JUMP JUMPDEST SWAP3 SWAP2 POP POP JUMP JUMPDEST PUSH0 DUP1 PUSH0 DUP1 PUSH0 PUSH1 0xA0 DUP7 DUP9 SUB SLT ISZERO PUSH2 0x406 JUMPI PUSH2 0x405 PUSH2 0x243 JUMP JUMPDEST JUMPDEST PUSH0 PUSH2 0x413 DUP9 DUP3 DUP10 ADD PUSH2 0x392 JUMP JUMPDEST SWAP6 POP POP PUSH1 0x20 PUSH2 0x424 DUP9 DUP3 DUP10 ADD PUSH2 0x3C5 JUMP JUMPDEST SWAP5 POP POP PUSH1 0x40 PUSH2 0x435 DUP9 DUP3 DUP10 ADD PUSH2 0x3D9 JUMP JUMPDEST SWAP4 POP POP PUSH1 0x60 PUSH2 0x446 DUP9 DUP3 DUP10 ADD PUSH2 0x3D9 JUMP JUMPDEST SWAP3 POP POP PUSH1 0x80 PUSH2 0x457 DUP9 DUP3 DUP10 ADD PUSH2 0x392 JUMP JUMPDEST SWAP2 POP POP SWAP3 SWAP6 POP SWAP3 SWAP6 SWAP1 SWAP4 POP JUMP JUMPDEST PUSH0 PUSH2 0x46E DUP3 PUSH2 0x3A6 JUMP JUMPDEST SWAP2 POP PUSH2 0x479 DUP4 PUSH2 0x3A6 JUMP JUMPDEST SWAP3 POP DUP3 DUP3 MUL PUSH2 0x487 DUP2 PUSH2 0x3A6 JUMP JUMPDEST SWAP2 POP PUSH32 0x8000000000000000000000000000000000000000000000000000000000000000 DUP5 EQ PUSH0 DUP5 SLT AND ISZERO PUSH2 0x4BE JUMPI PUSH2 0x4BD PUSH2 0x29C JUMP JUMPDEST JUMPDEST DUP3 DUP3 SDIV DUP5 EQ DUP4 ISZERO OR PUSH2 0x4D3 JUMPI PUSH2 0x4D2 PUSH2 0x29C JUMP JUMPDEST JUMPDEST POP SWAP3 SWAP2 POP POP JUMP JUMPDEST PUSH0 DUP3 DUP3 MSTORE PUSH1 0x20 DUP3 ADD SWAP1 POP SWAP3 SWAP2 POP POP JUMP JUMPDEST PUSH32 0x506C6561736520746F7020757020796F75722062616C616E636520746F206D61 PUSH0 DUP3 ADD MSTORE PUSH32 0x6B652074686973207472616E73616374696F6E00000000000000000000000000 PUSH1 0x20 DUP3 ADD MSTORE POP JUMP JUMPDEST PUSH0 PUSH2 0x544 PUSH1 0x33 DUP4 PUSH2 0x4DA JUMP JUMPDEST SWAP2 POP PUSH2 0x54F DUP3 PUSH2 0x4EA JUMP JUMPDEST PUSH1 0x40 DUP3 ADD SWAP1 POP SWAP2 SWAP1 POP JUMP JUMPDEST PUSH0 PUSH1 0x20 DUP3 ADD SWAP1 POP DUP2 DUP2 SUB PUSH0 DUP4 ADD MSTORE PUSH2 0x571 DUP2 PUSH2 0x538 JUMP JUMPDEST SWAP1 POP SWAP2 SWAP1 POP JUMP INVALID LOG2 PUSH5 0x6970667358 0x22 SLT KECCAK256 0x1F 0x2C STOP 0xAA 0xD8 CREATE2 PUSH27 0x4179B11752CFA591BA590CDDB77B9F4192B7EAA263E3DE07A26473 PUSH16 0x6C634300081600330000000000000000 "
				},
				"gasEstimates": {
					"creation": {
						"codeDepositCost": "290800",
						"executionCost": "infinite",
						"totalCost": "infinite"
					},
					"external": {
						"fund()": "infinite",
						"getPrice()": "infinite",
						"getPriceInUsd(uint256)": "infinite",
						"minimumUsd()": "2403"
					}
				},
				"methodIdentifiers": {
					"fund()": "b60d4288",
					"getPrice()": "98d5fdca",
					"getPriceInUsd(uint256)": "1bfc8a55",
					"minimumUsd()": "098de820"
				}
			},
			"storageLayout": {
				"storage": [
					{
						"astId": 52,
						"contract": "FundMe.sol:FundMe",
						"label": "aggregator",
						"offset": 0,
						"slot": "0",
						"type": "t_contract(AggregatorV3Interface)45"
					},
					{
						"astId": 66,
						"contract": "FundMe.sol:FundMe",
						"label": "minimumUsd",
						"offset": 0,
						"slot": "1",
						"type": "t_uint256"
					}
				],
				"types": {
					"t_contract(AggregatorV3Interface)45": {
						"encoding": "inplace",
						"label": "contract AggregatorV3Interface",
						"numberOfBytes": "20"
					},
					"t_uint256": {
						"encoding": "inplace",
						"label": "uint256",
						"numberOfBytes": "32"
					}
				}
			},
			"userdoc": {
				"kind": "user",
				"methods": {},
				"version": 1
			}
		}
	}
}