{
	"FundMe.sol": {
		"FundMe": {
			"abi": [
				{
					"inputs": [
						{
							"internalType": "contract AggregatorV3Interface",
							"name": "_aggregator",
							"type": "address"
						}
					],
					"stateMutability": "nonpayable",
					"type": "constructor"
				},
				{
					"inputs": [
						{
							"internalType": "address",
							"name": "",
							"type": "address"
						}
					],
					"name": "addressToAmountFunded",
					"outputs": [
						{
							"internalType": "uint256",
							"name": "",
							"type": "uint256"
						}
					],
					"stateMutability": "view",
					"type": "function"
				},
				{
					"inputs": [],
					"name": "aggregator",
					"outputs": [
						{
							"internalType": "contract AggregatorV3Interface",
							"name": "",
							"type": "address"
						}
					],
					"stateMutability": "view",
					"type": "function"
				},
				{
					"inputs": [],
					"name": "fund",
					"outputs": [],
					"stateMutability": "payable",
					"type": "function"
				},
				{
					"inputs": [
						{
							"internalType": "uint256",
							"name": "",
							"type": "uint256"
						}
					],
					"name": "funders",
					"outputs": [
						{
							"internalType": "address",
							"name": "",
							"type": "address"
						}
					],
					"stateMutability": "view",
					"type": "function"
				},
				{
					"inputs": [],
					"name": "minimumUsd",
					"outputs": [
						{
							"internalType": "uint256",
							"name": "",
							"type": "uint256"
						}
					],
					"stateMutability": "view",
					"type": "function"
				},
				{
					"inputs": [],
					"name": "owner",
					"outputs": [
						{
							"internalType": "address",
							"name": "",
							"type": "address"
						}
					],
					"stateMutability": "view",
					"type": "function"
				},
				{
					"inputs": [],
					"name": "withdraw",
					"outputs": [],
					"stateMutability": "nonpayable",
					"type": "function"
				}
			],
			"devdoc": {
				"kind": "dev",
				"methods": {},
				"version": 1
			},
			"evm": {
				"assembly": "    /* \"FundMe.sol\":312:2376  contract FundMe {... */\n  mstore(0x40, 0x80)\n    /* \"FundMe.sol\":689:693  5e18 */\n  0x4563918244f40000\n    /* \"FundMe.sol\":661:693  uint256 public minimumUsd = 5e18 */\n  0x04\n  sstore\n    /* \"FundMe.sol\":539:655  constructor(AggregatorV3Interface _aggregator) {... */\n  callvalue\n  dup1\n  iszero\n  tag_1\n  jumpi\n  0x00\n  dup1\n  revert\ntag_1:\n  pop\n  mload(0x40)\n  sub(codesize, bytecodeSize)\n  dup1\n  bytecodeSize\n  dup4\n  codecopy\n  dup2\n  dup2\n  add\n  0x40\n  mstore\n  dup2\n  add\n  swap1\n  tag_2\n  swap2\n  swap1\n  tag_3\n  jump\t// in\ntag_2:\n    /* \"FundMe.sol\":609:620  _aggregator */\n  dup1\n    /* \"FundMe.sol\":596:606  aggregator */\n  0x03\n  0x00\n    /* \"FundMe.sol\":596:620  aggregator = _aggregator */\n  0x0100\n  exp\n  dup2\n  sload\n  dup2\n  0xffffffffffffffffffffffffffffffffffffffff\n  mul\n  not\n  and\n  swap1\n  dup4\n  0xffffffffffffffffffffffffffffffffffffffff\n  and\n  mul\n  or\n  swap1\n  sstore\n  pop\n    /* \"FundMe.sol\":638:648  msg.sender */\n  caller\n    /* \"FundMe.sol\":630:635  owner */\n  0x02\n  0x00\n    /* \"FundMe.sol\":630:648  owner = msg.sender */\n  0x0100\n  exp\n  dup2\n  sload\n  dup2\n  0xffffffffffffffffffffffffffffffffffffffff\n  mul\n  not\n  and\n  swap1\n  dup4\n  0xffffffffffffffffffffffffffffffffffffffff\n  and\n  mul\n  or\n  swap1\n  sstore\n  pop\n    /* \"FundMe.sol\":539:655  constructor(AggregatorV3Interface _aggregator) {... */\n  pop\n    /* \"FundMe.sol\":312:2376  contract FundMe {... */\n  jump(tag_6)\n    /* \"#utility.yul\":88:205   */\ntag_8:\n    /* \"#utility.yul\":197:198   */\n  0x00\n    /* \"#utility.yul\":194:195   */\n  dup1\n    /* \"#utility.yul\":187:199   */\n  revert\n    /* \"#utility.yul\":334:460   */\ntag_10:\n    /* \"#utility.yul\":371:378   */\n  0x00\n    /* \"#utility.yul\":411:453   */\n  0xffffffffffffffffffffffffffffffffffffffff\n    /* \"#utility.yul\":404:409   */\n  dup3\n    /* \"#utility.yul\":400:454   */\n  and\n    /* \"#utility.yul\":389:454   */\n  swap1\n  pop\n    /* \"#utility.yul\":334:460   */\n  swap2\n  swap1\n  pop\n  jump\t// out\n    /* \"#utility.yul\":466:562   */\ntag_11:\n    /* \"#utility.yul\":503:510   */\n  0x00\n    /* \"#utility.yul\":532:556   */\n  tag_21\n    /* \"#utility.yul\":550:555   */\n  dup3\n    /* \"#utility.yul\":532:556   */\n  tag_10\n  jump\t// in\ntag_21:\n    /* \"#utility.yul\":521:556   */\n  swap1\n  pop\n    /* \"#utility.yul\":466:562   */\n  swap2\n  swap1\n  pop\n  jump\t// out\n    /* \"#utility.yul\":568:692   */\ntag_12:\n    /* \"#utility.yul\":633:640   */\n  0x00\n    /* \"#utility.yul\":662:686   */\n  tag_23\n    /* \"#utility.yul\":680:685   */\n  dup3\n    /* \"#utility.yul\":662:686   */\n  tag_11\n  jump\t// in\ntag_23:\n    /* \"#utility.yul\":651:686   */\n  swap1\n  pop\n    /* \"#utility.yul\":568:692   */\n  swap2\n  swap1\n  pop\n  jump\t// out\n    /* \"#utility.yul\":698:876   */\ntag_13:\n    /* \"#utility.yul\":799:851   */\n  tag_25\n    /* \"#utility.yul\":845:850   */\n  dup2\n    /* \"#utility.yul\":799:851   */\n  tag_12\n  jump\t// in\ntag_25:\n    /* \"#utility.yul\":792:797   */\n  dup2\n    /* \"#utility.yul\":789:852   */\n  eq\n    /* \"#utility.yul\":779:870   */\n  tag_26\n  jumpi\n    /* \"#utility.yul\":866:867   */\n  0x00\n    /* \"#utility.yul\":863:864   */\n  dup1\n    /* \"#utility.yul\":856:868   */\n  revert\n    /* \"#utility.yul\":779:870   */\ntag_26:\n    /* \"#utility.yul\":698:876   */\n  pop\n  jump\t// out\n    /* \"#utility.yul\":882:1081   */\ntag_14:\n    /* \"#utility.yul\":967:972   */\n  0x00\n    /* \"#utility.yul\":998:1004   */\n  dup2\n    /* \"#utility.yul\":992:1005   */\n  mload\n    /* \"#utility.yul\":983:1005   */\n  swap1\n  pop\n    /* \"#utility.yul\":1014:1075   */\n  tag_28\n    /* \"#utility.yul\":1069:1074   */\n  dup2\n    /* \"#utility.yul\":1014:1075   */\n  tag_13\n  jump\t// in\ntag_28:\n    /* \"#utility.yul\":882:1081   */\n  swap3\n  swap2\n  pop\n  pop\n  jump\t// out\n    /* \"#utility.yul\":1087:1494   */\ntag_3:\n    /* \"#utility.yul\":1185:1191   */\n  0x00\n    /* \"#utility.yul\":1234:1236   */\n  0x20\n    /* \"#utility.yul\":1222:1231   */\n  dup3\n    /* \"#utility.yul\":1213:1220   */\n  dup5\n    /* \"#utility.yul\":1209:1232   */\n  sub\n    /* \"#utility.yul\":1205:1237   */\n  slt\n    /* \"#utility.yul\":1202:1321   */\n  iszero\n  tag_30\n  jumpi\n    /* \"#utility.yul\":1240:1319   */\n  tag_31\n  tag_8\n  jump\t// in\ntag_31:\n    /* \"#utility.yul\":1202:1321   */\ntag_30:\n    /* \"#utility.yul\":1360:1361   */\n  0x00\n    /* \"#utility.yul\":1385:1477   */\n  tag_32\n    /* \"#utility.yul\":1469:1476   */\n  dup5\n    /* \"#utility.yul\":1460:1466   */\n  dup3\n    /* \"#utility.yul\":1449:1458   */\n  dup6\n    /* \"#utility.yul\":1445:1467   */\n  add\n    /* \"#utility.yul\":1385:1477   */\n  tag_14\n  jump\t// in\ntag_32:\n    /* \"#utility.yul\":1375:1477   */\n  swap2\n  pop\n    /* \"#utility.yul\":1331:1487   */\n  pop\n    /* \"#utility.yul\":1087:1494   */\n  swap3\n  swap2\n  pop\n  pop\n  jump\t// out\n    /* \"FundMe.sol\":312:2376  contract FundMe {... */\ntag_6:\n  dataSize(sub_0)\n  dup1\n  dataOffset(sub_0)\n  0x00\n  codecopy\n  0x00\n  return\nstop\n\nsub_0: assembly {\n        /* \"FundMe.sol\":312:2376  contract FundMe {... */\n      mstore(0x40, 0x80)\n      jumpi(tag_1, lt(calldatasize, 0x04))\n      shr(0xe0, calldataload(0x00))\n      dup1\n      0x3e47d6f3\n      gt\n      tag_9\n      jumpi\n      dup1\n      0x3e47d6f3\n      eq\n      tag_5\n      jumpi\n      dup1\n      0x8da5cb5b\n      eq\n      tag_6\n      jumpi\n      dup1\n      0xb60d4288\n      eq\n      tag_7\n      jumpi\n      dup1\n      0xdc0d3dff\n      eq\n      tag_8\n      jumpi\n      jump(tag_1)\n    tag_9:\n      dup1\n      0x098de820\n      eq\n      tag_2\n      jumpi\n      dup1\n      0x245a7bfc\n      eq\n      tag_3\n      jumpi\n      dup1\n      0x3ccfd60b\n      eq\n      tag_4\n      jumpi\n    tag_1:\n      0x00\n      dup1\n      revert\n        /* \"FundMe.sol\":661:693  uint256 public minimumUsd = 5e18 */\n    tag_2:\n      callvalue\n      dup1\n      iszero\n      tag_10\n      jumpi\n      0x00\n      dup1\n      revert\n    tag_10:\n      pop\n      tag_11\n      tag_12\n      jump\t// in\n    tag_11:\n      mload(0x40)\n      tag_13\n      swap2\n      swap1\n      tag_14\n      jump\t// in\n    tag_13:\n      mload(0x40)\n      dup1\n      swap2\n      sub\n      swap1\n      return\n        /* \"FundMe.sol\":493:532  AggregatorV3Interface public aggregator */\n    tag_3:\n      callvalue\n      dup1\n      iszero\n      tag_15\n      jumpi\n      0x00\n      dup1\n      revert\n    tag_15:\n      pop\n      tag_16\n      tag_17\n      jump\t// in\n    tag_16:\n      mload(0x40)\n      tag_18\n      swap2\n      swap1\n      tag_19\n      jump\t// in\n    tag_18:\n      mload(0x40)\n      dup1\n      swap2\n      sub\n      swap1\n      return\n        /* \"FundMe.sol\":1046:2227  function withdraw() public {... */\n    tag_4:\n      callvalue\n      dup1\n      iszero\n      tag_20\n      jumpi\n      0x00\n      dup1\n      revert\n    tag_20:\n      pop\n      tag_21\n      tag_22\n      jump\t// in\n    tag_21:\n      stop\n        /* \"FundMe.sol\":403:459  mapping(address => uint256) public addressToAmountFunded */\n    tag_5:\n      callvalue\n      dup1\n      iszero\n      tag_23\n      jumpi\n      0x00\n      dup1\n      revert\n    tag_23:\n      pop\n      tag_24\n      0x04\n      dup1\n      calldatasize\n      sub\n      dup2\n      add\n      swap1\n      tag_25\n      swap2\n      swap1\n      tag_26\n      jump\t// in\n    tag_25:\n      tag_27\n      jump\t// in\n    tag_24:\n      mload(0x40)\n      tag_28\n      swap2\n      swap1\n      tag_14\n      jump\t// in\n    tag_28:\n      mload(0x40)\n      dup1\n      swap2\n      sub\n      swap1\n      return\n        /* \"FundMe.sol\":466:486  address public owner */\n    tag_6:\n      callvalue\n      dup1\n      iszero\n      tag_29\n      jumpi\n      0x00\n      dup1\n      revert\n    tag_29:\n      pop\n      tag_30\n      tag_31\n      jump\t// in\n    tag_30:\n      mload(0x40)\n      tag_32\n      swap2\n      swap1\n      tag_33\n      jump\t// in\n    tag_32:\n      mload(0x40)\n      dup1\n      swap2\n      sub\n      swap1\n      return\n        /* \"FundMe.sol\":700:1040  function fund() public payable {... */\n    tag_7:\n      tag_34\n      tag_35\n      jump\t// in\n    tag_34:\n      stop\n        /* \"FundMe.sol\":373:397  address[] public funders */\n    tag_8:\n      callvalue\n      dup1\n      iszero\n      tag_36\n      jumpi\n      0x00\n      dup1\n      revert\n    tag_36:\n      pop\n      tag_37\n      0x04\n      dup1\n      calldatasize\n      sub\n      dup2\n      add\n      swap1\n      tag_38\n      swap2\n      swap1\n      tag_39\n      jump\t// in\n    tag_38:\n      tag_40\n      jump\t// in\n    tag_37:\n      mload(0x40)\n      tag_41\n      swap2\n      swap1\n      tag_33\n      jump\t// in\n    tag_41:\n      mload(0x40)\n      dup1\n      swap2\n      sub\n      swap1\n      return\n        /* \"FundMe.sol\":661:693  uint256 public minimumUsd = 5e18 */\n    tag_12:\n      sload(0x04)\n      dup2\n      jump\t// out\n        /* \"FundMe.sol\":493:532  AggregatorV3Interface public aggregator */\n    tag_17:\n      0x03\n      0x00\n      swap1\n      sload\n      swap1\n      0x0100\n      exp\n      swap1\n      div\n      0xffffffffffffffffffffffffffffffffffffffff\n      and\n      dup2\n      jump\t// out\n        /* \"FundMe.sol\":1046:2227  function withdraw() public {... */\n    tag_22:\n        /* \"FundMe.sol\":1105:1110  owner */\n      0x02\n      0x00\n      swap1\n      sload\n      swap1\n      0x0100\n      exp\n      swap1\n      div\n      0xffffffffffffffffffffffffffffffffffffffff\n      and\n        /* \"FundMe.sol\":1091:1110  msg.sender == owner */\n      0xffffffffffffffffffffffffffffffffffffffff\n      and\n        /* \"FundMe.sol\":1091:1101  msg.sender */\n      caller\n        /* \"FundMe.sol\":1091:1110  msg.sender == owner */\n      0xffffffffffffffffffffffffffffffffffffffff\n      and\n      eq\n        /* \"FundMe.sol\":1083:1138  require(msg.sender == owner, \"Only owner can withdraw\") */\n      tag_43\n      jumpi\n      mload(0x40)\n      0x08c379a000000000000000000000000000000000000000000000000000000000\n      dup2\n      mstore\n      0x04\n      add\n      tag_44\n      swap1\n      tag_45\n      jump\t// in\n    tag_44:\n      mload(0x40)\n      dup1\n      swap2\n      sub\n      swap1\n      revert\n    tag_43:\n        /* \"FundMe.sol\":1166:1185  uint256 funderIndex */\n      0x00\n        /* \"FundMe.sol\":1148:1378  for (... */\n    tag_46:\n        /* \"FundMe.sol\":1217:1224  funders */\n      0x00\n        /* \"FundMe.sol\":1217:1231  funders.length */\n      dup1\n      sload\n      swap1\n      pop\n        /* \"FundMe.sol\":1203:1214  funderIndex */\n      dup2\n        /* \"FundMe.sol\":1203:1231  funderIndex < funders.length */\n      lt\n        /* \"FundMe.sol\":1148:1378  for (... */\n      iszero\n      tag_47\n      jumpi\n        /* \"FundMe.sol\":1283:1297  address funder */\n      0x00\n        /* \"FundMe.sol\":1300:1307  funders */\n      dup1\n        /* \"FundMe.sol\":1308:1319  funderIndex */\n      dup3\n        /* \"FundMe.sol\":1300:1320  funders[funderIndex] */\n      dup2\n      sload\n      dup2\n      lt\n      tag_49\n      jumpi\n      tag_50\n      tag_51\n      jump\t// in\n    tag_50:\n    tag_49:\n      swap1\n      0x00\n      mstore\n      keccak256(0x00, 0x20)\n      add\n      0x00\n      swap1\n      sload\n      swap1\n      0x0100\n      exp\n      swap1\n      div\n      0xffffffffffffffffffffffffffffffffffffffff\n      and\n        /* \"FundMe.sol\":1283:1320  address funder = funders[funderIndex] */\n      swap1\n      pop\n        /* \"FundMe.sol\":1366:1367  0 */\n      0x00\n        /* \"FundMe.sol\":1334:1355  addressToAmountFunded */\n      0x01\n        /* \"FundMe.sol\":1334:1363  addressToAmountFunded[funder] */\n      0x00\n        /* \"FundMe.sol\":1356:1362  funder */\n      dup4\n        /* \"FundMe.sol\":1334:1363  addressToAmountFunded[funder] */\n      0xffffffffffffffffffffffffffffffffffffffff\n      and\n      0xffffffffffffffffffffffffffffffffffffffff\n      and\n      dup2\n      mstore\n      0x20\n      add\n      swap1\n      dup2\n      mstore\n      0x20\n      add\n      0x00\n      keccak256\n        /* \"FundMe.sol\":1334:1367  addressToAmountFunded[funder] = 0 */\n      dup2\n      swap1\n      sstore\n      pop\n        /* \"FundMe.sol\":1269:1378  {... */\n      pop\n        /* \"FundMe.sol\":1245:1258  funderIndex++ */\n      dup1\n      dup1\n      0x01\n      add\n      swap2\n      pop\n      pop\n        /* \"FundMe.sol\":1148:1378  for (... */\n      jump(tag_46)\n    tag_47:\n      pop\n        /* \"FundMe.sol\":1442:1443  0 */\n      0x00\n        /* \"FundMe.sol\":1428:1444  new address[](0) */\n      0xffffffffffffffff\n      dup2\n      gt\n      iszero\n      tag_53\n      jumpi\n      tag_54\n      tag_55\n      jump\t// in\n    tag_54:\n    tag_53:\n      mload(0x40)\n      swap1\n      dup1\n      dup3\n      mstore\n      dup1\n      0x20\n      mul\n      0x20\n      add\n      dup3\n      add\n      0x40\n      mstore\n      dup1\n      iszero\n      tag_56\n      jumpi\n      dup2\n      0x20\n      add\n      0x20\n      dup3\n      mul\n      dup1\n      calldatasize\n      dup4\n      calldatacopy\n      dup1\n      dup3\n      add\n      swap2\n      pop\n      pop\n      swap1\n      pop\n    tag_56:\n      pop\n        /* \"FundMe.sol\":1418:1425  funders */\n      0x00\n        /* \"FundMe.sol\":1418:1444  funders = new address[](0) */\n      swap1\n      dup1\n      mload\n      swap1\n      0x20\n      add\n      swap1\n      tag_57\n      swap3\n      swap2\n      swap1\n      tag_58\n      jump\t// in\n    tag_57:\n      pop\n        /* \"FundMe.sol\":1767:1777  msg.sender */\n      caller\n        /* \"FundMe.sol\":1759:1787  payable(msg.sender).transfer */\n      0xffffffffffffffffffffffffffffffffffffffff\n      and\n        /* \"FundMe.sol\":1759:1810  payable(msg.sender).transfer(address(this).balance) */\n      0x08fc\n        /* \"FundMe.sol\":1788:1809  address(this).balance */\n      selfbalance\n        /* \"FundMe.sol\":1759:1810  payable(msg.sender).transfer(address(this).balance) */\n      swap1\n      dup2\n      iszero\n      mul\n      swap1\n      mload(0x40)\n      0x00\n      mload(0x40)\n      dup1\n      dup4\n      sub\n      dup2\n      dup6\n      dup9\n      dup9\n      call\n      swap4\n      pop\n      pop\n      pop\n      pop\n      iszero\n      dup1\n      iszero\n      tag_60\n      jumpi\n      returndatasize\n      0x00\n      dup1\n      returndatacopy\n      revert(0x00, returndatasize)\n    tag_60:\n      pop\n        /* \"FundMe.sol\":1927:1943  bool sendSuccess */\n      0x00\n        /* \"FundMe.sol\":1954:1964  msg.sender */\n      caller\n        /* \"FundMe.sol\":1946:1970  payable(msg.sender).send */\n      0xffffffffffffffffffffffffffffffffffffffff\n      and\n        /* \"FundMe.sol\":1946:1993  payable(msg.sender).send(address(this).balance) */\n      0x08fc\n        /* \"FundMe.sol\":1971:1992  address(this).balance */\n      selfbalance\n        /* \"FundMe.sol\":1946:1993  payable(msg.sender).send(address(this).balance) */\n      swap1\n      dup2\n      iszero\n      mul\n      swap1\n      mload(0x40)\n      0x00\n      mload(0x40)\n      dup1\n      dup4\n      sub\n      dup2\n      dup6\n      dup9\n      dup9\n      call\n      swap4\n      pop\n      pop\n      pop\n      pop\n        /* \"FundMe.sol\":1927:1993  bool sendSuccess = payable(msg.sender).send(address(this).balance) */\n      swap1\n      pop\n        /* \"FundMe.sol\":2011:2022  sendSuccess */\n      dup1\n        /* \"FundMe.sol\":2003:2041  require(sendSuccess, \"Sending Failed\") */\n      tag_62\n      jumpi\n      mload(0x40)\n      0x08c379a000000000000000000000000000000000000000000000000000000000\n      dup2\n      mstore\n      0x04\n      add\n      tag_63\n      swap1\n      tag_64\n      jump\t// in\n    tag_63:\n      mload(0x40)\n      dup1\n      swap2\n      sub\n      swap1\n      revert\n    tag_62:\n        /* \"FundMe.sol\":2073:2089  bool callSuccess */\n      0x00\n        /* \"FundMe.sol\":2103:2113  msg.sender */\n      caller\n        /* \"FundMe.sol\":2095:2119  payable(msg.sender).call */\n      0xffffffffffffffffffffffffffffffffffffffff\n      and\n        /* \"FundMe.sol\":2140:2161  address(this).balance */\n      selfbalance\n        /* \"FundMe.sol\":2095:2175  payable(msg.sender).call{... */\n      mload(0x40)\n      tag_65\n      swap1\n      tag_66\n      jump\t// in\n    tag_65:\n      0x00\n      mload(0x40)\n      dup1\n      dup4\n      sub\n      dup2\n      dup6\n      dup8\n      gas\n      call\n      swap3\n      pop\n      pop\n      pop\n      returndatasize\n      dup1\n      0x00\n      dup2\n      eq\n      tag_69\n      jumpi\n      mload(0x40)\n      swap2\n      pop\n      and(add(returndatasize, 0x3f), not(0x1f))\n      dup3\n      add\n      0x40\n      mstore\n      returndatasize\n      dup3\n      mstore\n      returndatasize\n      0x00\n      0x20\n      dup5\n      add\n      returndatacopy\n      jump(tag_68)\n    tag_69:\n      0x60\n      swap2\n      pop\n    tag_68:\n      pop\n        /* \"FundMe.sol\":2072:2175  (bool callSuccess, ) = payable(msg.sender).call{... */\n      pop\n      swap1\n      pop\n        /* \"FundMe.sol\":2193:2204  callSuccess */\n      dup1\n        /* \"FundMe.sol\":2185:2220  require(callSuccess, \"Call Failed\") */\n      tag_70\n      jumpi\n      mload(0x40)\n      0x08c379a000000000000000000000000000000000000000000000000000000000\n      dup2\n      mstore\n      0x04\n      add\n      tag_71\n      swap1\n      tag_72\n      jump\t// in\n    tag_71:\n      mload(0x40)\n      dup1\n      swap2\n      sub\n      swap1\n      revert\n    tag_70:\n        /* \"FundMe.sol\":1073:2227  {... */\n      pop\n      pop\n        /* \"FundMe.sol\":1046:2227  function withdraw() public {... */\n      jump\t// out\n        /* \"FundMe.sol\":403:459  mapping(address => uint256) public addressToAmountFunded */\n    tag_27:\n      mstore(0x20, 0x01)\n      dup1\n      0x00\n      mstore\n      keccak256(0x00, 0x40)\n      0x00\n      swap2\n      pop\n      swap1\n      pop\n      sload\n      dup2\n      jump\t// out\n        /* \"FundMe.sol\":466:486  address public owner */\n    tag_31:\n      0x02\n      0x00\n      swap1\n      sload\n      swap1\n      0x0100\n      exp\n      swap1\n      div\n      0xffffffffffffffffffffffffffffffffffffffff\n      and\n      dup2\n      jump\t// out\n        /* \"FundMe.sol\":700:1040  function fund() public payable {... */\n    tag_35:\n        /* \"FundMe.sol\":741:758  uint256 ethAmount */\n      0x00\n        /* \"FundMe.sol\":761:770  msg.value */\n      callvalue\n        /* \"FundMe.sol\":741:770  uint256 ethAmount = msg.value */\n      swap1\n      pop\n        /* \"FundMe.sol\":856:866  minimumUsd */\n      sload(0x04)\n        /* \"FundMe.sol\":801:815  PriceConverter */\n      linkerSymbol(\"0eaef9e137657dd7174bf71a05772e68ff2d722731f16ada39e9f9f82a93857c\")\n        /* \"FundMe.sol\":801:829  PriceConverter.getPriceInUsd */\n      0xdb23d7e6\n        /* \"FundMe.sol\":830:840  aggregator */\n      0x03\n      0x00\n      swap1\n      sload\n      swap1\n      0x0100\n      exp\n      swap1\n      div\n      0xffffffffffffffffffffffffffffffffffffffff\n      and\n        /* \"FundMe.sol\":842:851  ethAmount */\n      dup5\n        /* \"FundMe.sol\":801:852  PriceConverter.getPriceInUsd(aggregator, ethAmount) */\n      mload(0x40)\n      dup4\n      0xffffffff\n      and\n      0xe0\n      shl\n      dup2\n      mstore\n      0x04\n      add\n      tag_74\n      swap3\n      swap2\n      swap1\n      tag_75\n      jump\t// in\n    tag_74:\n      0x20\n      mload(0x40)\n      dup1\n      dup4\n      sub\n      dup2\n      dup7\n      gas\n      delegatecall\n      iszero\n      dup1\n      iszero\n      tag_77\n      jumpi\n      returndatasize\n      0x00\n      dup1\n      returndatacopy\n      revert(0x00, returndatasize)\n    tag_77:\n      pop\n      pop\n      pop\n      pop\n      mload(0x40)\n      returndatasize\n      not(0x1f)\n      0x1f\n      dup3\n      add\n      and\n      dup3\n      add\n      dup1\n      0x40\n      mstore\n      pop\n      dup2\n      add\n      swap1\n      tag_78\n      swap2\n      swap1\n      tag_79\n      jump\t// in\n    tag_78:\n        /* \"FundMe.sol\":801:866  PriceConverter.getPriceInUsd(aggregator, ethAmount) >= minimumUsd */\n      lt\n      iszero\n        /* \"FundMe.sol\":780:943  require(... */\n      tag_80\n      jumpi\n      mload(0x40)\n      0x08c379a000000000000000000000000000000000000000000000000000000000\n      dup2\n      mstore\n      0x04\n      add\n      tag_81\n      swap1\n      tag_82\n      jump\t// in\n    tag_81:\n      mload(0x40)\n      dup1\n      swap2\n      sub\n      swap1\n      revert\n    tag_80:\n        /* \"FundMe.sol\":953:960  funders */\n      0x00\n        /* \"FundMe.sol\":966:976  msg.sender */\n      caller\n        /* \"FundMe.sol\":953:977  funders.push(msg.sender) */\n      swap1\n      dup1\n      0x01\n      dup2\n      sload\n      add\n      dup1\n      dup3\n      sstore\n      dup1\n      swap2\n      pop\n      pop\n      0x01\n      swap1\n      sub\n      swap1\n      0x00\n      mstore\n      keccak256(0x00, 0x20)\n      add\n      0x00\n      swap1\n      swap2\n      swap1\n      swap2\n      swap1\n      swap2\n      0x0100\n      exp\n      dup2\n      sload\n      dup2\n      0xffffffffffffffffffffffffffffffffffffffff\n      mul\n      not\n      and\n      swap1\n      dup4\n      0xffffffffffffffffffffffffffffffffffffffff\n      and\n      mul\n      or\n      swap1\n      sstore\n      pop\n        /* \"FundMe.sol\":1024:1033  ethAmount */\n      dup1\n        /* \"FundMe.sol\":987:1008  addressToAmountFunded */\n      0x01\n        /* \"FundMe.sol\":987:1020  addressToAmountFunded[msg.sender] */\n      0x00\n        /* \"FundMe.sol\":1009:1019  msg.sender */\n      caller\n        /* \"FundMe.sol\":987:1020  addressToAmountFunded[msg.sender] */\n      0xffffffffffffffffffffffffffffffffffffffff\n      and\n      0xffffffffffffffffffffffffffffffffffffffff\n      and\n      dup2\n      mstore\n      0x20\n      add\n      swap1\n      dup2\n      mstore\n      0x20\n      add\n      0x00\n      keccak256\n      0x00\n        /* \"FundMe.sol\":987:1033  addressToAmountFunded[msg.sender] += ethAmount */\n      dup3\n      dup3\n      sload\n      tag_84\n      swap2\n      swap1\n      tag_85\n      jump\t// in\n    tag_84:\n      swap3\n      pop\n      pop\n      dup2\n      swap1\n      sstore\n      pop\n        /* \"FundMe.sol\":731:1040  {... */\n      pop\n        /* \"FundMe.sol\":700:1040  function fund() public payable {... */\n      jump\t// out\n        /* \"FundMe.sol\":373:397  address[] public funders */\n    tag_40:\n      0x00\n      dup2\n      dup2\n      sload\n      dup2\n      lt\n      tag_86\n      jumpi\n      0x00\n      dup1\n      revert\n    tag_86:\n      swap1\n      0x00\n      mstore\n      keccak256(0x00, 0x20)\n      add\n      0x00\n      swap2\n      pop\n      sload\n      swap1\n      0x0100\n      exp\n      swap1\n      div\n      0xffffffffffffffffffffffffffffffffffffffff\n      and\n      dup2\n      jump\t// out\n    tag_58:\n      dup3\n      dup1\n      sload\n      dup3\n      dup3\n      sstore\n      swap1\n      0x00\n      mstore\n      keccak256(0x00, 0x20)\n      swap1\n      dup2\n      add\n      swap3\n      dup3\n      iszero\n      tag_88\n      jumpi\n      swap2\n      0x20\n      mul\n      dup3\n      add\n    tag_89:\n      dup3\n      dup2\n      gt\n      iszero\n      tag_90\n      jumpi\n      dup3\n      mload\n      dup3\n      exp(0x0100, 0x00)\n      dup2\n      sload\n      dup2\n      0xffffffffffffffffffffffffffffffffffffffff\n      mul\n      not\n      and\n      swap1\n      dup4\n      0xffffffffffffffffffffffffffffffffffffffff\n      and\n      mul\n      or\n      swap1\n      sstore\n      pop\n      swap2\n      0x20\n      add\n      swap2\n      swap1\n      0x01\n      add\n      swap1\n      jump(tag_89)\n    tag_90:\n    tag_88:\n      pop\n      swap1\n      pop\n      tag_91\n      swap2\n      swap1\n      tag_92\n      jump\t// in\n    tag_91:\n      pop\n      swap1\n      jump\t// out\n    tag_92:\n    tag_93:\n      dup1\n      dup3\n      gt\n      iszero\n      tag_94\n      jumpi\n      0x00\n      dup2\n      0x00\n      swap1\n      sstore\n      pop\n      0x01\n      add\n      jump(tag_93)\n    tag_94:\n      pop\n      swap1\n      jump\t// out\n        /* \"#utility.yul\":7:84   */\n    tag_95:\n        /* \"#utility.yul\":44:51   */\n      0x00\n        /* \"#utility.yul\":73:78   */\n      dup2\n        /* \"#utility.yul\":62:78   */\n      swap1\n      pop\n        /* \"#utility.yul\":7:84   */\n      swap2\n      swap1\n      pop\n      jump\t// out\n        /* \"#utility.yul\":90:208   */\n    tag_96:\n        /* \"#utility.yul\":177:201   */\n      tag_131\n        /* \"#utility.yul\":195:200   */\n      dup2\n        /* \"#utility.yul\":177:201   */\n      tag_95\n      jump\t// in\n    tag_131:\n        /* \"#utility.yul\":172:175   */\n      dup3\n        /* \"#utility.yul\":165:202   */\n      mstore\n        /* \"#utility.yul\":90:208   */\n      pop\n      pop\n      jump\t// out\n        /* \"#utility.yul\":214:436   */\n    tag_14:\n        /* \"#utility.yul\":307:311   */\n      0x00\n        /* \"#utility.yul\":345:347   */\n      0x20\n        /* \"#utility.yul\":334:343   */\n      dup3\n        /* \"#utility.yul\":330:348   */\n      add\n        /* \"#utility.yul\":322:348   */\n      swap1\n      pop\n        /* \"#utility.yul\":358:429   */\n      tag_133\n        /* \"#utility.yul\":426:427   */\n      0x00\n        /* \"#utility.yul\":415:424   */\n      dup4\n        /* \"#utility.yul\":411:428   */\n      add\n        /* \"#utility.yul\":402:408   */\n      dup5\n        /* \"#utility.yul\":358:429   */\n      tag_96\n      jump\t// in\n    tag_133:\n        /* \"#utility.yul\":214:436   */\n      swap3\n      swap2\n      pop\n      pop\n      jump\t// out\n        /* \"#utility.yul\":442:568   */\n    tag_97:\n        /* \"#utility.yul\":479:486   */\n      0x00\n        /* \"#utility.yul\":519:561   */\n      0xffffffffffffffffffffffffffffffffffffffff\n        /* \"#utility.yul\":512:517   */\n      dup3\n        /* \"#utility.yul\":508:562   */\n      and\n        /* \"#utility.yul\":497:562   */\n      swap1\n      pop\n        /* \"#utility.yul\":442:568   */\n      swap2\n      swap1\n      pop\n      jump\t// out\n        /* \"#utility.yul\":574:634   */\n    tag_98:\n        /* \"#utility.yul\":602:605   */\n      0x00\n        /* \"#utility.yul\":623:628   */\n      dup2\n        /* \"#utility.yul\":616:628   */\n      swap1\n      pop\n        /* \"#utility.yul\":574:634   */\n      swap2\n      swap1\n      pop\n      jump\t// out\n        /* \"#utility.yul\":640:782   */\n    tag_99:\n        /* \"#utility.yul\":690:699   */\n      0x00\n        /* \"#utility.yul\":723:776   */\n      tag_137\n        /* \"#utility.yul\":741:775   */\n      tag_138\n        /* \"#utility.yul\":750:774   */\n      tag_139\n        /* \"#utility.yul\":768:773   */\n      dup5\n        /* \"#utility.yul\":750:774   */\n      tag_97\n      jump\t// in\n    tag_139:\n        /* \"#utility.yul\":741:775   */\n      tag_98\n      jump\t// in\n    tag_138:\n        /* \"#utility.yul\":723:776   */\n      tag_97\n      jump\t// in\n    tag_137:\n        /* \"#utility.yul\":710:776   */\n      swap1\n      pop\n        /* \"#utility.yul\":640:782   */\n      swap2\n      swap1\n      pop\n      jump\t// out\n        /* \"#utility.yul\":788:914   */\n    tag_100:\n        /* \"#utility.yul\":838:847   */\n      0x00\n        /* \"#utility.yul\":871:908   */\n      tag_141\n        /* \"#utility.yul\":902:907   */\n      dup3\n        /* \"#utility.yul\":871:908   */\n      tag_99\n      jump\t// in\n    tag_141:\n        /* \"#utility.yul\":858:908   */\n      swap1\n      pop\n        /* \"#utility.yul\":788:914   */\n      swap2\n      swap1\n      pop\n      jump\t// out\n        /* \"#utility.yul\":920:1074   */\n    tag_101:\n        /* \"#utility.yul\":998:1007   */\n      0x00\n        /* \"#utility.yul\":1031:1068   */\n      tag_143\n        /* \"#utility.yul\":1062:1067   */\n      dup3\n        /* \"#utility.yul\":1031:1068   */\n      tag_100\n      jump\t// in\n    tag_143:\n        /* \"#utility.yul\":1018:1068   */\n      swap1\n      pop\n        /* \"#utility.yul\":920:1074   */\n      swap2\n      swap1\n      pop\n      jump\t// out\n        /* \"#utility.yul\":1080:1267   */\n    tag_102:\n        /* \"#utility.yul\":1195:1260   */\n      tag_145\n        /* \"#utility.yul\":1254:1259   */\n      dup2\n        /* \"#utility.yul\":1195:1260   */\n      tag_101\n      jump\t// in\n    tag_145:\n        /* \"#utility.yul\":1190:1193   */\n      dup3\n        /* \"#utility.yul\":1183:1261   */\n      mstore\n        /* \"#utility.yul\":1080:1267   */\n      pop\n      pop\n      jump\t// out\n        /* \"#utility.yul\":1273:1551   */\n    tag_19:\n        /* \"#utility.yul\":1394:1398   */\n      0x00\n        /* \"#utility.yul\":1432:1434   */\n      0x20\n        /* \"#utility.yul\":1421:1430   */\n      dup3\n        /* \"#utility.yul\":1417:1435   */\n      add\n        /* \"#utility.yul\":1409:1435   */\n      swap1\n      pop\n        /* \"#utility.yul\":1445:1544   */\n      tag_147\n        /* \"#utility.yul\":1541:1542   */\n      0x00\n        /* \"#utility.yul\":1530:1539   */\n      dup4\n        /* \"#utility.yul\":1526:1543   */\n      add\n        /* \"#utility.yul\":1517:1523   */\n      dup5\n        /* \"#utility.yul\":1445:1544   */\n      tag_102\n      jump\t// in\n    tag_147:\n        /* \"#utility.yul\":1273:1551   */\n      swap3\n      swap2\n      pop\n      pop\n      jump\t// out\n        /* \"#utility.yul\":1638:1755   */\n    tag_104:\n        /* \"#utility.yul\":1747:1748   */\n      0x00\n        /* \"#utility.yul\":1744:1745   */\n      dup1\n        /* \"#utility.yul\":1737:1749   */\n      revert\n        /* \"#utility.yul\":1884:1980   */\n    tag_106:\n        /* \"#utility.yul\":1921:1928   */\n      0x00\n        /* \"#utility.yul\":1950:1974   */\n      tag_152\n        /* \"#utility.yul\":1968:1973   */\n      dup3\n        /* \"#utility.yul\":1950:1974   */\n      tag_97\n      jump\t// in\n    tag_152:\n        /* \"#utility.yul\":1939:1974   */\n      swap1\n      pop\n        /* \"#utility.yul\":1884:1980   */\n      swap2\n      swap1\n      pop\n      jump\t// out\n        /* \"#utility.yul\":1986:2108   */\n    tag_107:\n        /* \"#utility.yul\":2059:2083   */\n      tag_154\n        /* \"#utility.yul\":2077:2082   */\n      dup2\n        /* \"#utility.yul\":2059:2083   */\n      tag_106\n      jump\t// in\n    tag_154:\n        /* \"#utility.yul\":2052:2057   */\n      dup2\n        /* \"#utility.yul\":2049:2084   */\n      eq\n        /* \"#utility.yul\":2039:2102   */\n      tag_155\n      jumpi\n        /* \"#utility.yul\":2098:2099   */\n      0x00\n        /* \"#utility.yul\":2095:2096   */\n      dup1\n        /* \"#utility.yul\":2088:2100   */\n      revert\n        /* \"#utility.yul\":2039:2102   */\n    tag_155:\n        /* \"#utility.yul\":1986:2108   */\n      pop\n      jump\t// out\n        /* \"#utility.yul\":2114:2253   */\n    tag_108:\n        /* \"#utility.yul\":2160:2165   */\n      0x00\n        /* \"#utility.yul\":2198:2204   */\n      dup2\n        /* \"#utility.yul\":2185:2205   */\n      calldataload\n        /* \"#utility.yul\":2176:2205   */\n      swap1\n      pop\n        /* \"#utility.yul\":2214:2247   */\n      tag_157\n        /* \"#utility.yul\":2241:2246   */\n      dup2\n        /* \"#utility.yul\":2214:2247   */\n      tag_107\n      jump\t// in\n    tag_157:\n        /* \"#utility.yul\":2114:2253   */\n      swap3\n      swap2\n      pop\n      pop\n      jump\t// out\n        /* \"#utility.yul\":2259:2588   */\n    tag_26:\n        /* \"#utility.yul\":2318:2324   */\n      0x00\n        /* \"#utility.yul\":2367:2369   */\n      0x20\n        /* \"#utility.yul\":2355:2364   */\n      dup3\n        /* \"#utility.yul\":2346:2353   */\n      dup5\n        /* \"#utility.yul\":2342:2365   */\n      sub\n        /* \"#utility.yul\":2338:2370   */\n      slt\n        /* \"#utility.yul\":2335:2454   */\n      iszero\n      tag_159\n      jumpi\n        /* \"#utility.yul\":2373:2452   */\n      tag_160\n      tag_104\n      jump\t// in\n    tag_160:\n        /* \"#utility.yul\":2335:2454   */\n    tag_159:\n        /* \"#utility.yul\":2493:2494   */\n      0x00\n        /* \"#utility.yul\":2518:2571   */\n      tag_161\n        /* \"#utility.yul\":2563:2570   */\n      dup5\n        /* \"#utility.yul\":2554:2560   */\n      dup3\n        /* \"#utility.yul\":2543:2552   */\n      dup6\n        /* \"#utility.yul\":2539:2561   */\n      add\n        /* \"#utility.yul\":2518:2571   */\n      tag_108\n      jump\t// in\n    tag_161:\n        /* \"#utility.yul\":2508:2571   */\n      swap2\n      pop\n        /* \"#utility.yul\":2464:2581   */\n      pop\n        /* \"#utility.yul\":2259:2588   */\n      swap3\n      swap2\n      pop\n      pop\n      jump\t// out\n        /* \"#utility.yul\":2594:2712   */\n    tag_109:\n        /* \"#utility.yul\":2681:2705   */\n      tag_163\n        /* \"#utility.yul\":2699:2704   */\n      dup2\n        /* \"#utility.yul\":2681:2705   */\n      tag_106\n      jump\t// in\n    tag_163:\n        /* \"#utility.yul\":2676:2679   */\n      dup3\n        /* \"#utility.yul\":2669:2706   */\n      mstore\n        /* \"#utility.yul\":2594:2712   */\n      pop\n      pop\n      jump\t// out\n        /* \"#utility.yul\":2718:2940   */\n    tag_33:\n        /* \"#utility.yul\":2811:2815   */\n      0x00\n        /* \"#utility.yul\":2849:2851   */\n      0x20\n        /* \"#utility.yul\":2838:2847   */\n      dup3\n        /* \"#utility.yul\":2834:2852   */\n      add\n        /* \"#utility.yul\":2826:2852   */\n      swap1\n      pop\n        /* \"#utility.yul\":2862:2933   */\n      tag_165\n        /* \"#utility.yul\":2930:2931   */\n      0x00\n        /* \"#utility.yul\":2919:2928   */\n      dup4\n        /* \"#utility.yul\":2915:2932   */\n      add\n        /* \"#utility.yul\":2906:2912   */\n      dup5\n        /* \"#utility.yul\":2862:2933   */\n      tag_109\n      jump\t// in\n    tag_165:\n        /* \"#utility.yul\":2718:2940   */\n      swap3\n      swap2\n      pop\n      pop\n      jump\t// out\n        /* \"#utility.yul\":2946:3068   */\n    tag_110:\n        /* \"#utility.yul\":3019:3043   */\n      tag_167\n        /* \"#utility.yul\":3037:3042   */\n      dup2\n        /* \"#utility.yul\":3019:3043   */\n      tag_95\n      jump\t// in\n    tag_167:\n        /* \"#utility.yul\":3012:3017   */\n      dup2\n        /* \"#utility.yul\":3009:3044   */\n      eq\n        /* \"#utility.yul\":2999:3062   */\n      tag_168\n      jumpi\n        /* \"#utility.yul\":3058:3059   */\n      0x00\n        /* \"#utility.yul\":3055:3056   */\n      dup1\n        /* \"#utility.yul\":3048:3060   */\n      revert\n        /* \"#utility.yul\":2999:3062   */\n    tag_168:\n        /* \"#utility.yul\":2946:3068   */\n      pop\n      jump\t// out\n        /* \"#utility.yul\":3074:3213   */\n    tag_111:\n        /* \"#utility.yul\":3120:3125   */\n      0x00\n        /* \"#utility.yul\":3158:3164   */\n      dup2\n        /* \"#utility.yul\":3145:3165   */\n      calldataload\n        /* \"#utility.yul\":3136:3165   */\n      swap1\n      pop\n        /* \"#utility.yul\":3174:3207   */\n      tag_170\n        /* \"#utility.yul\":3201:3206   */\n      dup2\n        /* \"#utility.yul\":3174:3207   */\n      tag_110\n      jump\t// in\n    tag_170:\n        /* \"#utility.yul\":3074:3213   */\n      swap3\n      swap2\n      pop\n      pop\n      jump\t// out\n        /* \"#utility.yul\":3219:3548   */\n    tag_39:\n        /* \"#utility.yul\":3278:3284   */\n      0x00\n        /* \"#utility.yul\":3327:3329   */\n      0x20\n        /* \"#utility.yul\":3315:3324   */\n      dup3\n        /* \"#utility.yul\":3306:3313   */\n      dup5\n        /* \"#utility.yul\":3302:3325   */\n      sub\n        /* \"#utility.yul\":3298:3330   */\n      slt\n        /* \"#utility.yul\":3295:3414   */\n      iszero\n      tag_172\n      jumpi\n        /* \"#utility.yul\":3333:3412   */\n      tag_173\n      tag_104\n      jump\t// in\n    tag_173:\n        /* \"#utility.yul\":3295:3414   */\n    tag_172:\n        /* \"#utility.yul\":3453:3454   */\n      0x00\n        /* \"#utility.yul\":3478:3531   */\n      tag_174\n        /* \"#utility.yul\":3523:3530   */\n      dup5\n        /* \"#utility.yul\":3514:3520   */\n      dup3\n        /* \"#utility.yul\":3503:3512   */\n      dup6\n        /* \"#utility.yul\":3499:3521   */\n      add\n        /* \"#utility.yul\":3478:3531   */\n      tag_111\n      jump\t// in\n    tag_174:\n        /* \"#utility.yul\":3468:3531   */\n      swap2\n      pop\n        /* \"#utility.yul\":3424:3541   */\n      pop\n        /* \"#utility.yul\":3219:3548   */\n      swap3\n      swap2\n      pop\n      pop\n      jump\t// out\n        /* \"#utility.yul\":3554:3723   */\n    tag_112:\n        /* \"#utility.yul\":3638:3649   */\n      0x00\n        /* \"#utility.yul\":3672:3678   */\n      dup3\n        /* \"#utility.yul\":3667:3670   */\n      dup3\n        /* \"#utility.yul\":3660:3679   */\n      mstore\n        /* \"#utility.yul\":3712:3716   */\n      0x20\n        /* \"#utility.yul\":3707:3710   */\n      dup3\n        /* \"#utility.yul\":3703:3717   */\n      add\n        /* \"#utility.yul\":3688:3717   */\n      swap1\n      pop\n        /* \"#utility.yul\":3554:3723   */\n      swap3\n      swap2\n      pop\n      pop\n      jump\t// out\n        /* \"#utility.yul\":3729:3902   */\n    tag_113:\n        /* \"#utility.yul\":3869:3894   */\n      0x4f6e6c79206f776e65722063616e207769746864726177000000000000000000\n        /* \"#utility.yul\":3865:3866   */\n      0x00\n        /* \"#utility.yul\":3857:3863   */\n      dup3\n        /* \"#utility.yul\":3853:3867   */\n      add\n        /* \"#utility.yul\":3846:3895   */\n      mstore\n        /* \"#utility.yul\":3729:3902   */\n      pop\n      jump\t// out\n        /* \"#utility.yul\":3908:4274   */\n    tag_114:\n        /* \"#utility.yul\":4050:4053   */\n      0x00\n        /* \"#utility.yul\":4071:4138   */\n      tag_178\n        /* \"#utility.yul\":4135:4137   */\n      0x17\n        /* \"#utility.yul\":4130:4133   */\n      dup4\n        /* \"#utility.yul\":4071:4138   */\n      tag_112\n      jump\t// in\n    tag_178:\n        /* \"#utility.yul\":4064:4138   */\n      swap2\n      pop\n        /* \"#utility.yul\":4147:4240   */\n      tag_179\n        /* \"#utility.yul\":4236:4239   */\n      dup3\n        /* \"#utility.yul\":4147:4240   */\n      tag_113\n      jump\t// in\n    tag_179:\n        /* \"#utility.yul\":4265:4267   */\n      0x20\n        /* \"#utility.yul\":4260:4263   */\n      dup3\n        /* \"#utility.yul\":4256:4268   */\n      add\n        /* \"#utility.yul\":4249:4268   */\n      swap1\n      pop\n        /* \"#utility.yul\":3908:4274   */\n      swap2\n      swap1\n      pop\n      jump\t// out\n        /* \"#utility.yul\":4280:4699   */\n    tag_45:\n        /* \"#utility.yul\":4446:4450   */\n      0x00\n        /* \"#utility.yul\":4484:4486   */\n      0x20\n        /* \"#utility.yul\":4473:4482   */\n      dup3\n        /* \"#utility.yul\":4469:4487   */\n      add\n        /* \"#utility.yul\":4461:4487   */\n      swap1\n      pop\n        /* \"#utility.yul\":4533:4542   */\n      dup2\n        /* \"#utility.yul\":4527:4531   */\n      dup2\n        /* \"#utility.yul\":4523:4543   */\n      sub\n        /* \"#utility.yul\":4519:4520   */\n      0x00\n        /* \"#utility.yul\":4508:4517   */\n      dup4\n        /* \"#utility.yul\":4504:4521   */\n      add\n        /* \"#utility.yul\":4497:4544   */\n      mstore\n        /* \"#utility.yul\":4561:4692   */\n      tag_181\n        /* \"#utility.yul\":4687:4691   */\n      dup2\n        /* \"#utility.yul\":4561:4692   */\n      tag_114\n      jump\t// in\n    tag_181:\n        /* \"#utility.yul\":4553:4692   */\n      swap1\n      pop\n        /* \"#utility.yul\":4280:4699   */\n      swap2\n      swap1\n      pop\n      jump\t// out\n        /* \"#utility.yul\":4705:4885   */\n    tag_51:\n        /* \"#utility.yul\":4753:4830   */\n      0x4e487b7100000000000000000000000000000000000000000000000000000000\n        /* \"#utility.yul\":4750:4751   */\n      0x00\n        /* \"#utility.yul\":4743:4831   */\n      mstore\n        /* \"#utility.yul\":4850:4854   */\n      0x32\n        /* \"#utility.yul\":4847:4848   */\n      0x04\n        /* \"#utility.yul\":4840:4855   */\n      mstore\n        /* \"#utility.yul\":4874:4878   */\n      0x24\n        /* \"#utility.yul\":4871:4872   */\n      0x00\n        /* \"#utility.yul\":4864:4879   */\n      revert\n        /* \"#utility.yul\":4891:5071   */\n    tag_55:\n        /* \"#utility.yul\":4939:5016   */\n      0x4e487b7100000000000000000000000000000000000000000000000000000000\n        /* \"#utility.yul\":4936:4937   */\n      0x00\n        /* \"#utility.yul\":4929:5017   */\n      mstore\n        /* \"#utility.yul\":5036:5040   */\n      0x41\n        /* \"#utility.yul\":5033:5034   */\n      0x04\n        /* \"#utility.yul\":5026:5041   */\n      mstore\n        /* \"#utility.yul\":5060:5064   */\n      0x24\n        /* \"#utility.yul\":5057:5058   */\n      0x00\n        /* \"#utility.yul\":5050:5065   */\n      revert\n        /* \"#utility.yul\":5077:5241   */\n    tag_115:\n        /* \"#utility.yul\":5217:5233   */\n      0x53656e64696e67204661696c6564000000000000000000000000000000000000\n        /* \"#utility.yul\":5213:5214   */\n      0x00\n        /* \"#utility.yul\":5205:5211   */\n      dup3\n        /* \"#utility.yul\":5201:5215   */\n      add\n        /* \"#utility.yul\":5194:5234   */\n      mstore\n        /* \"#utility.yul\":5077:5241   */\n      pop\n      jump\t// out\n        /* \"#utility.yul\":5247:5613   */\n    tag_116:\n        /* \"#utility.yul\":5389:5392   */\n      0x00\n        /* \"#utility.yul\":5410:5477   */\n      tag_186\n        /* \"#utility.yul\":5474:5476   */\n      0x0e\n        /* \"#utility.yul\":5469:5472   */\n      dup4\n        /* \"#utility.yul\":5410:5477   */\n      tag_112\n      jump\t// in\n    tag_186:\n        /* \"#utility.yul\":5403:5477   */\n      swap2\n      pop\n        /* \"#utility.yul\":5486:5579   */\n      tag_187\n        /* \"#utility.yul\":5575:5578   */\n      dup3\n        /* \"#utility.yul\":5486:5579   */\n      tag_115\n      jump\t// in\n    tag_187:\n        /* \"#utility.yul\":5604:5606   */\n      0x20\n        /* \"#utility.yul\":5599:5602   */\n      dup3\n        /* \"#utility.yul\":5595:5607   */\n      add\n        /* \"#utility.yul\":5588:5607   */\n      swap1\n      pop\n        /* \"#utility.yul\":5247:5613   */\n      swap2\n      swap1\n      pop\n      jump\t// out\n        /* \"#utility.yul\":5619:6038   */\n    tag_64:\n        /* \"#utility.yul\":5785:5789   */\n      0x00\n        /* \"#utility.yul\":5823:5825   */\n      0x20\n        /* \"#utility.yul\":5812:5821   */\n      dup3\n        /* \"#utility.yul\":5808:5826   */\n      add\n        /* \"#utility.yul\":5800:5826   */\n      swap1\n      pop\n        /* \"#utility.yul\":5872:5881   */\n      dup2\n        /* \"#utility.yul\":5866:5870   */\n      dup2\n        /* \"#utility.yul\":5862:5882   */\n      sub\n        /* \"#utility.yul\":5858:5859   */\n      0x00\n        /* \"#utility.yul\":5847:5856   */\n      dup4\n        /* \"#utility.yul\":5843:5860   */\n      add\n        /* \"#utility.yul\":5836:5883   */\n      mstore\n        /* \"#utility.yul\":5900:6031   */\n      tag_189\n        /* \"#utility.yul\":6026:6030   */\n      dup2\n        /* \"#utility.yul\":5900:6031   */\n      tag_116\n      jump\t// in\n    tag_189:\n        /* \"#utility.yul\":5892:6031   */\n      swap1\n      pop\n        /* \"#utility.yul\":5619:6038   */\n      swap2\n      swap1\n      pop\n      jump\t// out\n        /* \"#utility.yul\":6044:6191   */\n    tag_117:\n        /* \"#utility.yul\":6145:6156   */\n      0x00\n        /* \"#utility.yul\":6182:6185   */\n      dup2\n        /* \"#utility.yul\":6167:6185   */\n      swap1\n      pop\n        /* \"#utility.yul\":6044:6191   */\n      swap3\n      swap2\n      pop\n      pop\n      jump\t// out\n        /* \"#utility.yul\":6197:6311   */\n    tag_118:\n      pop\n      jump\t// out\n        /* \"#utility.yul\":6317:6715   */\n    tag_119:\n        /* \"#utility.yul\":6476:6479   */\n      0x00\n        /* \"#utility.yul\":6497:6580   */\n      tag_193\n        /* \"#utility.yul\":6578:6579   */\n      0x00\n        /* \"#utility.yul\":6573:6576   */\n      dup4\n        /* \"#utility.yul\":6497:6580   */\n      tag_117\n      jump\t// in\n    tag_193:\n        /* \"#utility.yul\":6490:6580   */\n      swap2\n      pop\n        /* \"#utility.yul\":6589:6682   */\n      tag_194\n        /* \"#utility.yul\":6678:6681   */\n      dup3\n        /* \"#utility.yul\":6589:6682   */\n      tag_118\n      jump\t// in\n    tag_194:\n        /* \"#utility.yul\":6707:6708   */\n      0x00\n        /* \"#utility.yul\":6702:6705   */\n      dup3\n        /* \"#utility.yul\":6698:6709   */\n      add\n        /* \"#utility.yul\":6691:6709   */\n      swap1\n      pop\n        /* \"#utility.yul\":6317:6715   */\n      swap2\n      swap1\n      pop\n      jump\t// out\n        /* \"#utility.yul\":6721:7100   */\n    tag_66:\n        /* \"#utility.yul\":6905:6908   */\n      0x00\n        /* \"#utility.yul\":6927:7074   */\n      tag_196\n        /* \"#utility.yul\":7070:7073   */\n      dup3\n        /* \"#utility.yul\":6927:7074   */\n      tag_119\n      jump\t// in\n    tag_196:\n        /* \"#utility.yul\":6920:7074   */\n      swap2\n      pop\n        /* \"#utility.yul\":7091:7094   */\n      dup2\n        /* \"#utility.yul\":7084:7094   */\n      swap1\n      pop\n        /* \"#utility.yul\":6721:7100   */\n      swap2\n      swap1\n      pop\n      jump\t// out\n        /* \"#utility.yul\":7106:7267   */\n    tag_120:\n        /* \"#utility.yul\":7246:7259   */\n      0x43616c6c204661696c6564000000000000000000000000000000000000000000\n        /* \"#utility.yul\":7242:7243   */\n      0x00\n        /* \"#utility.yul\":7234:7240   */\n      dup3\n        /* \"#utility.yul\":7230:7244   */\n      add\n        /* \"#utility.yul\":7223:7260   */\n      mstore\n        /* \"#utility.yul\":7106:7267   */\n      pop\n      jump\t// out\n        /* \"#utility.yul\":7273:7639   */\n    tag_121:\n        /* \"#utility.yul\":7415:7418   */\n      0x00\n        /* \"#utility.yul\":7436:7503   */\n      tag_199\n        /* \"#utility.yul\":7500:7502   */\n      0x0b\n        /* \"#utility.yul\":7495:7498   */\n      dup4\n        /* \"#utility.yul\":7436:7503   */\n      tag_112\n      jump\t// in\n    tag_199:\n        /* \"#utility.yul\":7429:7503   */\n      swap2\n      pop\n        /* \"#utility.yul\":7512:7605   */\n      tag_200\n        /* \"#utility.yul\":7601:7604   */\n      dup3\n        /* \"#utility.yul\":7512:7605   */\n      tag_120\n      jump\t// in\n    tag_200:\n        /* \"#utility.yul\":7630:7632   */\n      0x20\n        /* \"#utility.yul\":7625:7628   */\n      dup3\n        /* \"#utility.yul\":7621:7633   */\n      add\n        /* \"#utility.yul\":7614:7633   */\n      swap1\n      pop\n        /* \"#utility.yul\":7273:7639   */\n      swap2\n      swap1\n      pop\n      jump\t// out\n        /* \"#utility.yul\":7645:8064   */\n    tag_72:\n        /* \"#utility.yul\":7811:7815   */\n      0x00\n        /* \"#utility.yul\":7849:7851   */\n      0x20\n        /* \"#utility.yul\":7838:7847   */\n      dup3\n        /* \"#utility.yul\":7834:7852   */\n      add\n        /* \"#utility.yul\":7826:7852   */\n      swap1\n      pop\n        /* \"#utility.yul\":7898:7907   */\n      dup2\n        /* \"#utility.yul\":7892:7896   */\n      dup2\n        /* \"#utility.yul\":7888:7908   */\n      sub\n        /* \"#utility.yul\":7884:7885   */\n      0x00\n        /* \"#utility.yul\":7873:7882   */\n      dup4\n        /* \"#utility.yul\":7869:7886   */\n      add\n        /* \"#utility.yul\":7862:7909   */\n      mstore\n        /* \"#utility.yul\":7926:8057   */\n      tag_202\n        /* \"#utility.yul\":8052:8056   */\n      dup2\n        /* \"#utility.yul\":7926:8057   */\n      tag_121\n      jump\t// in\n    tag_202:\n        /* \"#utility.yul\":7918:8057   */\n      swap1\n      pop\n        /* \"#utility.yul\":7645:8064   */\n      swap2\n      swap1\n      pop\n      jump\t// out\n        /* \"#utility.yul\":8070:8265   */\n    tag_122:\n        /* \"#utility.yul\":8193:8258   */\n      tag_204\n        /* \"#utility.yul\":8252:8257   */\n      dup2\n        /* \"#utility.yul\":8193:8258   */\n      tag_101\n      jump\t// in\n    tag_204:\n        /* \"#utility.yul\":8188:8191   */\n      dup3\n        /* \"#utility.yul\":8181:8259   */\n      mstore\n        /* \"#utility.yul\":8070:8265   */\n      pop\n      pop\n      jump\t// out\n        /* \"#utility.yul\":8271:8397   */\n    tag_123:\n        /* \"#utility.yul\":8366:8390   */\n      tag_206\n        /* \"#utility.yul\":8384:8389   */\n      dup2\n        /* \"#utility.yul\":8366:8390   */\n      tag_95\n      jump\t// in\n    tag_206:\n        /* \"#utility.yul\":8361:8364   */\n      dup3\n        /* \"#utility.yul\":8354:8391   */\n      mstore\n        /* \"#utility.yul\":8271:8397   */\n      pop\n      pop\n      jump\t// out\n        /* \"#utility.yul\":8403:8815   */\n    tag_75:\n        /* \"#utility.yul\":8560:8564   */\n      0x00\n        /* \"#utility.yul\":8598:8600   */\n      0x40\n        /* \"#utility.yul\":8587:8596   */\n      dup3\n        /* \"#utility.yul\":8583:8601   */\n      add\n        /* \"#utility.yul\":8575:8601   */\n      swap1\n      pop\n        /* \"#utility.yul\":8611:8718   */\n      tag_208\n        /* \"#utility.yul\":8715:8716   */\n      0x00\n        /* \"#utility.yul\":8704:8713   */\n      dup4\n        /* \"#utility.yul\":8700:8717   */\n      add\n        /* \"#utility.yul\":8691:8697   */\n      dup6\n        /* \"#utility.yul\":8611:8718   */\n      tag_122\n      jump\t// in\n    tag_208:\n        /* \"#utility.yul\":8728:8808   */\n      tag_209\n        /* \"#utility.yul\":8804:8806   */\n      0x20\n        /* \"#utility.yul\":8793:8802   */\n      dup4\n        /* \"#utility.yul\":8789:8807   */\n      add\n        /* \"#utility.yul\":8780:8786   */\n      dup5\n        /* \"#utility.yul\":8728:8808   */\n      tag_123\n      jump\t// in\n    tag_209:\n        /* \"#utility.yul\":8403:8815   */\n      swap4\n      swap3\n      pop\n      pop\n      pop\n      jump\t// out\n        /* \"#utility.yul\":8821:8964   */\n    tag_124:\n        /* \"#utility.yul\":8878:8883   */\n      0x00\n        /* \"#utility.yul\":8909:8915   */\n      dup2\n        /* \"#utility.yul\":8903:8916   */\n      mload\n        /* \"#utility.yul\":8894:8916   */\n      swap1\n      pop\n        /* \"#utility.yul\":8925:8958   */\n      tag_211\n        /* \"#utility.yul\":8952:8957   */\n      dup2\n        /* \"#utility.yul\":8925:8958   */\n      tag_110\n      jump\t// in\n    tag_211:\n        /* \"#utility.yul\":8821:8964   */\n      swap3\n      swap2\n      pop\n      pop\n      jump\t// out\n        /* \"#utility.yul\":8970:9321   */\n    tag_79:\n        /* \"#utility.yul\":9040:9046   */\n      0x00\n        /* \"#utility.yul\":9089:9091   */\n      0x20\n        /* \"#utility.yul\":9077:9086   */\n      dup3\n        /* \"#utility.yul\":9068:9075   */\n      dup5\n        /* \"#utility.yul\":9064:9087   */\n      sub\n        /* \"#utility.yul\":9060:9092   */\n      slt\n        /* \"#utility.yul\":9057:9176   */\n      iszero\n      tag_213\n      jumpi\n        /* \"#utility.yul\":9095:9174   */\n      tag_214\n      tag_104\n      jump\t// in\n    tag_214:\n        /* \"#utility.yul\":9057:9176   */\n    tag_213:\n        /* \"#utility.yul\":9215:9216   */\n      0x00\n        /* \"#utility.yul\":9240:9304   */\n      tag_215\n        /* \"#utility.yul\":9296:9303   */\n      dup5\n        /* \"#utility.yul\":9287:9293   */\n      dup3\n        /* \"#utility.yul\":9276:9285   */\n      dup6\n        /* \"#utility.yul\":9272:9294   */\n      add\n        /* \"#utility.yul\":9240:9304   */\n      tag_124\n      jump\t// in\n    tag_215:\n        /* \"#utility.yul\":9230:9304   */\n      swap2\n      pop\n        /* \"#utility.yul\":9186:9314   */\n      pop\n        /* \"#utility.yul\":8970:9321   */\n      swap3\n      swap2\n      pop\n      pop\n      jump\t// out\n        /* \"#utility.yul\":9327:9565   */\n    tag_125:\n        /* \"#utility.yul\":9467:9501   */\n      0x506c6561736520746f7020757020796f75722062616c616e636520746f206d61\n        /* \"#utility.yul\":9463:9464   */\n      0x00\n        /* \"#utility.yul\":9455:9461   */\n      dup3\n        /* \"#utility.yul\":9451:9465   */\n      add\n        /* \"#utility.yul\":9444:9502   */\n      mstore\n        /* \"#utility.yul\":9536:9557   */\n      0x6b652074686973207472616e73616374696f6e00000000000000000000000000\n        /* \"#utility.yul\":9531:9533   */\n      0x20\n        /* \"#utility.yul\":9523:9529   */\n      dup3\n        /* \"#utility.yul\":9519:9534   */\n      add\n        /* \"#utility.yul\":9512:9558   */\n      mstore\n        /* \"#utility.yul\":9327:9565   */\n      pop\n      jump\t// out\n        /* \"#utility.yul\":9571:9937   */\n    tag_126:\n        /* \"#utility.yul\":9713:9716   */\n      0x00\n        /* \"#utility.yul\":9734:9801   */\n      tag_218\n        /* \"#utility.yul\":9798:9800   */\n      0x33\n        /* \"#utility.yul\":9793:9796   */\n      dup4\n        /* \"#utility.yul\":9734:9801   */\n      tag_112\n      jump\t// in\n    tag_218:\n        /* \"#utility.yul\":9727:9801   */\n      swap2\n      pop\n        /* \"#utility.yul\":9810:9903   */\n      tag_219\n        /* \"#utility.yul\":9899:9902   */\n      dup3\n        /* \"#utility.yul\":9810:9903   */\n      tag_125\n      jump\t// in\n    tag_219:\n        /* \"#utility.yul\":9928:9930   */\n      0x40\n        /* \"#utility.yul\":9923:9926   */\n      dup3\n        /* \"#utility.yul\":9919:9931   */\n      add\n        /* \"#utility.yul\":9912:9931   */\n      swap1\n      pop\n        /* \"#utility.yul\":9571:9937   */\n      swap2\n      swap1\n      pop\n      jump\t// out\n        /* \"#utility.yul\":9943:10362   */\n    tag_82:\n        /* \"#utility.yul\":10109:10113   */\n      0x00\n        /* \"#utility.yul\":10147:10149   */\n      0x20\n        /* \"#utility.yul\":10136:10145   */\n      dup3\n        /* \"#utility.yul\":10132:10150   */\n      add\n        /* \"#utility.yul\":10124:10150   */\n      swap1\n      pop\n        /* \"#utility.yul\":10196:10205   */\n      dup2\n        /* \"#utility.yul\":10190:10194   */\n      dup2\n        /* \"#utility.yul\":10186:10206   */\n      sub\n        /* \"#utility.yul\":10182:10183   */\n      0x00\n        /* \"#utility.yul\":10171:10180   */\n      dup4\n        /* \"#utility.yul\":10167:10184   */\n      add\n        /* \"#utility.yul\":10160:10207   */\n      mstore\n        /* \"#utility.yul\":10224:10355   */\n      tag_221\n        /* \"#utility.yul\":10350:10354   */\n      dup2\n        /* \"#utility.yul\":10224:10355   */\n      tag_126\n      jump\t// in\n    tag_221:\n        /* \"#utility.yul\":10216:10355   */\n      swap1\n      pop\n        /* \"#utility.yul\":9943:10362   */\n      swap2\n      swap1\n      pop\n      jump\t// out\n        /* \"#utility.yul\":10368:10548   */\n    tag_127:\n        /* \"#utility.yul\":10416:10493   */\n      0x4e487b7100000000000000000000000000000000000000000000000000000000\n        /* \"#utility.yul\":10413:10414   */\n      0x00\n        /* \"#utility.yul\":10406:10494   */\n      mstore\n        /* \"#utility.yul\":10513:10517   */\n      0x11\n        /* \"#utility.yul\":10510:10511   */\n      0x04\n        /* \"#utility.yul\":10503:10518   */\n      mstore\n        /* \"#utility.yul\":10537:10541   */\n      0x24\n        /* \"#utility.yul\":10534:10535   */\n      0x00\n        /* \"#utility.yul\":10527:10542   */\n      revert\n        /* \"#utility.yul\":10554:10745   */\n    tag_85:\n        /* \"#utility.yul\":10594:10597   */\n      0x00\n        /* \"#utility.yul\":10613:10633   */\n      tag_224\n        /* \"#utility.yul\":10631:10632   */\n      dup3\n        /* \"#utility.yul\":10613:10633   */\n      tag_95\n      jump\t// in\n    tag_224:\n        /* \"#utility.yul\":10608:10633   */\n      swap2\n      pop\n        /* \"#utility.yul\":10647:10667   */\n      tag_225\n        /* \"#utility.yul\":10665:10666   */\n      dup4\n        /* \"#utility.yul\":10647:10667   */\n      tag_95\n      jump\t// in\n    tag_225:\n        /* \"#utility.yul\":10642:10667   */\n      swap3\n      pop\n        /* \"#utility.yul\":10690:10691   */\n      dup3\n        /* \"#utility.yul\":10687:10688   */\n      dup3\n        /* \"#utility.yul\":10683:10692   */\n      add\n        /* \"#utility.yul\":10676:10692   */\n      swap1\n      pop\n        /* \"#utility.yul\":10711:10714   */\n      dup1\n        /* \"#utility.yul\":10708:10709   */\n      dup3\n        /* \"#utility.yul\":10705:10715   */\n      gt\n        /* \"#utility.yul\":10702:10738   */\n      iszero\n      tag_226\n      jumpi\n        /* \"#utility.yul\":10718:10736   */\n      tag_227\n      tag_127\n      jump\t// in\n    tag_227:\n        /* \"#utility.yul\":10702:10738   */\n    tag_226:\n        /* \"#utility.yul\":10554:10745   */\n      swap3\n      swap2\n      pop\n      pop\n      jump\t// out\n\n    auxdata: 0xa264697066735822122015b34af73f26e84baf0ecb7e8dda42a8d24712e233b03d1f5a2e423ee108e1b564736f6c63430008170033\n}\n",
				"bytecode": {
					"linkReferences": {
						"PriceConverter.sol": {
							"PriceConverter": [
								{
									"length": 20,
									"start": 1618
								}
							]
						}
					},
					"object": "6080604052674563918244f4000060045534801561001b575f80fd5b50604051610df1380380610df1833981810160405281019061003d9190610132565b8060035f6101000a81548173ffffffffffffffffffffffffffffffffffffffff021916908373ffffffffffffffffffffffffffffffffffffffff1602179055503360025f6101000a81548173ffffffffffffffffffffffffffffffffffffffff021916908373ffffffffffffffffffffffffffffffffffffffff1602179055505061015d565b5f80fd5b5f73ffffffffffffffffffffffffffffffffffffffff82169050919050565b5f6100f0826100c7565b9050919050565b5f610101826100e6565b9050919050565b610111816100f7565b811461011b575f80fd5b50565b5f8151905061012c81610108565b92915050565b5f60208284031215610147576101466100c3565b5b5f6101548482850161011e565b91505092915050565b610c878061016a5f395ff3fe60806040526004361061006f575f3560e01c80633e47d6f31161004d5780633e47d6f3146100dd5780638da5cb5b14610119578063b60d428814610143578063dc0d3dff1461014d5761006f565b8063098de82014610073578063245a7bfc1461009d5780633ccfd60b146100c7575b5f80fd5b34801561007e575f80fd5b50610087610189565b6040516100949190610769565b60405180910390f35b3480156100a8575f80fd5b506100b161018f565b6040516100be91906107fc565b60405180910390f35b3480156100d2575f80fd5b506100db6101b4565b005b3480156100e8575f80fd5b5061010360048036038101906100fe9190610854565b6104a5565b6040516101109190610769565b60405180910390f35b348015610124575f80fd5b5061012d6104ba565b60405161013a919061088e565b60405180910390f35b61014b6104df565b005b348015610158575f80fd5b50610173600480360381019061016e91906108d1565b610675565b604051610180919061088e565b60405180910390f35b60045481565b60035f9054906101000a900473ffffffffffffffffffffffffffffffffffffffff1681565b60025f9054906101000a900473ffffffffffffffffffffffffffffffffffffffff1673ffffffffffffffffffffffffffffffffffffffff163373ffffffffffffffffffffffffffffffffffffffff1614610243576040517f08c379a000000000000000000000000000000000000000000000000000000000815260040161023a90610956565b60405180910390fd5b5f5b5f805490508110156102df575f80828154811061026557610264610974565b5b905f5260205f20015f9054906101000a900473ffffffffffffffffffffffffffffffffffffffff1690505f60015f8373ffffffffffffffffffffffffffffffffffffffff1673ffffffffffffffffffffffffffffffffffffffff1681526020019081526020015f2081905550508080600101915050610245565b505f67ffffffffffffffff8111156102fa576102f96109a1565b5b6040519080825280602002602001820160405280156103285781602001602082028036833780820191505090505b505f908051906020019061033d9291906106af565b503373ffffffffffffffffffffffffffffffffffffffff166108fc4790811502906040515f60405180830381858888f19350505050158015610381573d5f803e3d5ffd5b505f3373ffffffffffffffffffffffffffffffffffffffff166108fc4790811502906040515f60405180830381858888f193505050509050806103f9576040517f08c379a00000000000000000000000000000000000000000000000000000000081526004016103f090610a18565b60405180910390fd5b5f3373ffffffffffffffffffffffffffffffffffffffff164760405161041e90610a63565b5f6040518083038185875af1925050503d805f8114610458576040519150601f19603f3d011682016040523d82523d5f602084013e61045d565b606091505b50509050806104a1576040517f08c379a000000000000000000000000000000000000000000000000000000000815260040161049890610ac1565b60405180910390fd5b5050565b6001602052805f5260405f205f915090505481565b60025f9054906101000a900473ffffffffffffffffffffffffffffffffffffffff1681565b5f34905060045473__$0eaef9e137657dd7174bf71a05772e68ff$__63db23d7e660035f9054906101000a900473ffffffffffffffffffffffffffffffffffffffff16846040518363ffffffff1660e01b8152600401610540929190610afd565b602060405180830381865af415801561055b573d5f803e3d5ffd5b505050506040513d601f19601f8201168201806040525081019061057f9190610b38565b10156105c0576040517f08c379a00000000000000000000000000000000000000000000000000000000081526004016105b790610bd3565b60405180910390fd5b5f33908060018154018082558091505060019003905f5260205f20015f9091909190916101000a81548173ffffffffffffffffffffffffffffffffffffffff021916908373ffffffffffffffffffffffffffffffffffffffff1602179055508060015f3373ffffffffffffffffffffffffffffffffffffffff1673ffffffffffffffffffffffffffffffffffffffff1681526020019081526020015f205f82825461066b9190610c1e565b9250508190555050565b5f8181548110610683575f80fd5b905f5260205f20015f915054906101000a900473ffffffffffffffffffffffffffffffffffffffff1681565b828054828255905f5260205f20908101928215610725579160200282015b82811115610724578251825f6101000a81548173ffffffffffffffffffffffffffffffffffffffff021916908373ffffffffffffffffffffffffffffffffffffffff160217905550916020019190600101906106cd565b5b5090506107329190610736565b5090565b5b8082111561074d575f815f905550600101610737565b5090565b5f819050919050565b61076381610751565b82525050565b5f60208201905061077c5f83018461075a565b92915050565b5f73ffffffffffffffffffffffffffffffffffffffff82169050919050565b5f819050919050565b5f6107c46107bf6107ba84610782565b6107a1565b610782565b9050919050565b5f6107d5826107aa565b9050919050565b5f6107e6826107cb565b9050919050565b6107f6816107dc565b82525050565b5f60208201905061080f5f8301846107ed565b92915050565b5f80fd5b5f61082382610782565b9050919050565b61083381610819565b811461083d575f80fd5b50565b5f8135905061084e8161082a565b92915050565b5f6020828403121561086957610868610815565b5b5f61087684828501610840565b91505092915050565b61088881610819565b82525050565b5f6020820190506108a15f83018461087f565b92915050565b6108b081610751565b81146108ba575f80fd5b50565b5f813590506108cb816108a7565b92915050565b5f602082840312156108e6576108e5610815565b5b5f6108f3848285016108bd565b91505092915050565b5f82825260208201905092915050565b7f4f6e6c79206f776e65722063616e2077697468647261770000000000000000005f82015250565b5f6109406017836108fc565b915061094b8261090c565b602082019050919050565b5f6020820190508181035f83015261096d81610934565b9050919050565b7f4e487b71000000000000000000000000000000000000000000000000000000005f52603260045260245ffd5b7f4e487b71000000000000000000000000000000000000000000000000000000005f52604160045260245ffd5b7f53656e64696e67204661696c65640000000000000000000000000000000000005f82015250565b5f610a02600e836108fc565b9150610a0d826109ce565b602082019050919050565b5f6020820190508181035f830152610a2f816109f6565b9050919050565b5f81905092915050565b50565b5f610a4e5f83610a36565b9150610a5982610a40565b5f82019050919050565b5f610a6d82610a43565b9150819050919050565b7f43616c6c204661696c65640000000000000000000000000000000000000000005f82015250565b5f610aab600b836108fc565b9150610ab682610a77565b602082019050919050565b5f6020820190508181035f830152610ad881610a9f565b9050919050565b610ae8816107dc565b82525050565b610af781610751565b82525050565b5f604082019050610b105f830185610adf565b610b1d6020830184610aee565b9392505050565b5f81519050610b32816108a7565b92915050565b5f60208284031215610b4d57610b4c610815565b5b5f610b5a84828501610b24565b91505092915050565b7f506c6561736520746f7020757020796f75722062616c616e636520746f206d615f8201527f6b652074686973207472616e73616374696f6e00000000000000000000000000602082015250565b5f610bbd6033836108fc565b9150610bc882610b63565b604082019050919050565b5f6020820190508181035f830152610bea81610bb1565b9050919050565b7f4e487b71000000000000000000000000000000000000000000000000000000005f52601160045260245ffd5b5f610c2882610751565b9150610c3383610751565b9250828201905080821115610c4b57610c4a610bf1565b5b9291505056fea264697066735822122015b34af73f26e84baf0ecb7e8dda42a8d24712e233b03d1f5a2e423ee108e1b564736f6c63430008170033",
					"opcodes": "PUSH1 0x80 PUSH1 0x40 MSTORE PUSH8 0x4563918244F40000 PUSH1 0x4 SSTORE CALLVALUE DUP1 ISZERO PUSH2 0x1B JUMPI PUSH0 DUP1 REVERT JUMPDEST POP PUSH1 0x40 MLOAD PUSH2 0xDF1 CODESIZE SUB DUP1 PUSH2 0xDF1 DUP4 CODECOPY DUP2 DUP2 ADD PUSH1 0x40 MSTORE DUP2 ADD SWAP1 PUSH2 0x3D SWAP2 SWAP1 PUSH2 0x132 JUMP JUMPDEST DUP1 PUSH1 0x3 PUSH0 PUSH2 0x100 EXP DUP2 SLOAD DUP2 PUSH20 0xFFFFFFFFFFFFFFFFFFFFFFFFFFFFFFFFFFFFFFFF MUL NOT AND SWAP1 DUP4 PUSH20 0xFFFFFFFFFFFFFFFFFFFFFFFFFFFFFFFFFFFFFFFF AND MUL OR SWAP1 SSTORE POP CALLER PUSH1 0x2 PUSH0 PUSH2 0x100 EXP DUP2 SLOAD DUP2 PUSH20 0xFFFFFFFFFFFFFFFFFFFFFFFFFFFFFFFFFFFFFFFF MUL NOT AND SWAP1 DUP4 PUSH20 0xFFFFFFFFFFFFFFFFFFFFFFFFFFFFFFFFFFFFFFFF AND MUL OR SWAP1 SSTORE POP POP PUSH2 0x15D JUMP JUMPDEST PUSH0 DUP1 REVERT JUMPDEST PUSH0 PUSH20 0xFFFFFFFFFFFFFFFFFFFFFFFFFFFFFFFFFFFFFFFF DUP3 AND SWAP1 POP SWAP2 SWAP1 POP JUMP JUMPDEST PUSH0 PUSH2 0xF0 DUP3 PUSH2 0xC7 JUMP JUMPDEST SWAP1 POP SWAP2 SWAP1 POP JUMP JUMPDEST PUSH0 PUSH2 0x101 DUP3 PUSH2 0xE6 JUMP JUMPDEST SWAP1 POP SWAP2 SWAP1 POP JUMP JUMPDEST PUSH2 0x111 DUP2 PUSH2 0xF7 JUMP JUMPDEST DUP2 EQ PUSH2 0x11B JUMPI PUSH0 DUP1 REVERT JUMPDEST POP JUMP JUMPDEST PUSH0 DUP2 MLOAD SWAP1 POP PUSH2 0x12C DUP2 PUSH2 0x108 JUMP JUMPDEST SWAP3 SWAP2 POP POP JUMP JUMPDEST PUSH0 PUSH1 0x20 DUP3 DUP5 SUB SLT ISZERO PUSH2 0x147 JUMPI PUSH2 0x146 PUSH2 0xC3 JUMP JUMPDEST JUMPDEST PUSH0 PUSH2 0x154 DUP5 DUP3 DUP6 ADD PUSH2 0x11E JUMP JUMPDEST SWAP2 POP POP SWAP3 SWAP2 POP POP JUMP JUMPDEST PUSH2 0xC87 DUP1 PUSH2 0x16A PUSH0 CODECOPY PUSH0 RETURN INVALID PUSH1 0x80 PUSH1 0x40 MSTORE PUSH1 0x4 CALLDATASIZE LT PUSH2 0x6F JUMPI PUSH0 CALLDATALOAD PUSH1 0xE0 SHR DUP1 PUSH4 0x3E47D6F3 GT PUSH2 0x4D JUMPI DUP1 PUSH4 0x3E47D6F3 EQ PUSH2 0xDD JUMPI DUP1 PUSH4 0x8DA5CB5B EQ PUSH2 0x119 JUMPI DUP1 PUSH4 0xB60D4288 EQ PUSH2 0x143 JUMPI DUP1 PUSH4 0xDC0D3DFF EQ PUSH2 0x14D JUMPI PUSH2 0x6F JUMP JUMPDEST DUP1 PUSH4 0x98DE820 EQ PUSH2 0x73 JUMPI DUP1 PUSH4 0x245A7BFC EQ PUSH2 0x9D JUMPI DUP1 PUSH4 0x3CCFD60B EQ PUSH2 0xC7 JUMPI JUMPDEST PUSH0 DUP1 REVERT JUMPDEST CALLVALUE DUP1 ISZERO PUSH2 0x7E JUMPI PUSH0 DUP1 REVERT JUMPDEST POP PUSH2 0x87 PUSH2 0x189 JUMP JUMPDEST PUSH1 0x40 MLOAD PUSH2 0x94 SWAP2 SWAP1 PUSH2 0x769 JUMP JUMPDEST PUSH1 0x40 MLOAD DUP1 SWAP2 SUB SWAP1 RETURN JUMPDEST CALLVALUE DUP1 ISZERO PUSH2 0xA8 JUMPI PUSH0 DUP1 REVERT JUMPDEST POP PUSH2 0xB1 PUSH2 0x18F JUMP JUMPDEST PUSH1 0x40 MLOAD PUSH2 0xBE SWAP2 SWAP1 PUSH2 0x7FC JUMP JUMPDEST PUSH1 0x40 MLOAD DUP1 SWAP2 SUB SWAP1 RETURN JUMPDEST CALLVALUE DUP1 ISZERO PUSH2 0xD2 JUMPI PUSH0 DUP1 REVERT JUMPDEST POP PUSH2 0xDB PUSH2 0x1B4 JUMP JUMPDEST STOP JUMPDEST CALLVALUE DUP1 ISZERO PUSH2 0xE8 JUMPI PUSH0 DUP1 REVERT JUMPDEST POP PUSH2 0x103 PUSH1 0x4 DUP1 CALLDATASIZE SUB DUP2 ADD SWAP1 PUSH2 0xFE SWAP2 SWAP1 PUSH2 0x854 JUMP JUMPDEST PUSH2 0x4A5 JUMP JUMPDEST PUSH1 0x40 MLOAD PUSH2 0x110 SWAP2 SWAP1 PUSH2 0x769 JUMP JUMPDEST PUSH1 0x40 MLOAD DUP1 SWAP2 SUB SWAP1 RETURN JUMPDEST CALLVALUE DUP1 ISZERO PUSH2 0x124 JUMPI PUSH0 DUP1 REVERT JUMPDEST POP PUSH2 0x12D PUSH2 0x4BA JUMP JUMPDEST PUSH1 0x40 MLOAD PUSH2 0x13A SWAP2 SWAP1 PUSH2 0x88E JUMP JUMPDEST PUSH1 0x40 MLOAD DUP1 SWAP2 SUB SWAP1 RETURN JUMPDEST PUSH2 0x14B PUSH2 0x4DF JUMP JUMPDEST STOP JUMPDEST CALLVALUE DUP1 ISZERO PUSH2 0x158 JUMPI PUSH0 DUP1 REVERT JUMPDEST POP PUSH2 0x173 PUSH1 0x4 DUP1 CALLDATASIZE SUB DUP2 ADD SWAP1 PUSH2 0x16E SWAP2 SWAP1 PUSH2 0x8D1 JUMP JUMPDEST PUSH2 0x675 JUMP JUMPDEST PUSH1 0x40 MLOAD PUSH2 0x180 SWAP2 SWAP1 PUSH2 0x88E JUMP JUMPDEST PUSH1 0x40 MLOAD DUP1 SWAP2 SUB SWAP1 RETURN JUMPDEST PUSH1 0x4 SLOAD DUP2 JUMP JUMPDEST PUSH1 0x3 PUSH0 SWAP1 SLOAD SWAP1 PUSH2 0x100 EXP SWAP1 DIV PUSH20 0xFFFFFFFFFFFFFFFFFFFFFFFFFFFFFFFFFFFFFFFF AND DUP2 JUMP JUMPDEST PUSH1 0x2 PUSH0 SWAP1 SLOAD SWAP1 PUSH2 0x100 EXP SWAP1 DIV PUSH20 0xFFFFFFFFFFFFFFFFFFFFFFFFFFFFFFFFFFFFFFFF AND PUSH20 0xFFFFFFFFFFFFFFFFFFFFFFFFFFFFFFFFFFFFFFFF AND CALLER PUSH20 0xFFFFFFFFFFFFFFFFFFFFFFFFFFFFFFFFFFFFFFFF AND EQ PUSH2 0x243 JUMPI PUSH1 0x40 MLOAD PUSH32 0x8C379A000000000000000000000000000000000000000000000000000000000 DUP2 MSTORE PUSH1 0x4 ADD PUSH2 0x23A SWAP1 PUSH2 0x956 JUMP JUMPDEST PUSH1 0x40 MLOAD DUP1 SWAP2 SUB SWAP1 REVERT JUMPDEST PUSH0 JUMPDEST PUSH0 DUP1 SLOAD SWAP1 POP DUP2 LT ISZERO PUSH2 0x2DF JUMPI PUSH0 DUP1 DUP3 DUP2 SLOAD DUP2 LT PUSH2 0x265 JUMPI PUSH2 0x264 PUSH2 0x974 JUMP JUMPDEST JUMPDEST SWAP1 PUSH0 MSTORE PUSH1 0x20 PUSH0 KECCAK256 ADD PUSH0 SWAP1 SLOAD SWAP1 PUSH2 0x100 EXP SWAP1 DIV PUSH20 0xFFFFFFFFFFFFFFFFFFFFFFFFFFFFFFFFFFFFFFFF AND SWAP1 POP PUSH0 PUSH1 0x1 PUSH0 DUP4 PUSH20 0xFFFFFFFFFFFFFFFFFFFFFFFFFFFFFFFFFFFFFFFF AND PUSH20 0xFFFFFFFFFFFFFFFFFFFFFFFFFFFFFFFFFFFFFFFF AND DUP2 MSTORE PUSH1 0x20 ADD SWAP1 DUP2 MSTORE PUSH1 0x20 ADD PUSH0 KECCAK256 DUP2 SWAP1 SSTORE POP POP DUP1 DUP1 PUSH1 0x1 ADD SWAP2 POP POP PUSH2 0x245 JUMP JUMPDEST POP PUSH0 PUSH8 0xFFFFFFFFFFFFFFFF DUP2 GT ISZERO PUSH2 0x2FA JUMPI PUSH2 0x2F9 PUSH2 0x9A1 JUMP JUMPDEST JUMPDEST PUSH1 0x40 MLOAD SWAP1 DUP1 DUP3 MSTORE DUP1 PUSH1 0x20 MUL PUSH1 0x20 ADD DUP3 ADD PUSH1 0x40 MSTORE DUP1 ISZERO PUSH2 0x328 JUMPI DUP2 PUSH1 0x20 ADD PUSH1 0x20 DUP3 MUL DUP1 CALLDATASIZE DUP4 CALLDATACOPY DUP1 DUP3 ADD SWAP2 POP POP SWAP1 POP JUMPDEST POP PUSH0 SWAP1 DUP1 MLOAD SWAP1 PUSH1 0x20 ADD SWAP1 PUSH2 0x33D SWAP3 SWAP2 SWAP1 PUSH2 0x6AF JUMP JUMPDEST POP CALLER PUSH20 0xFFFFFFFFFFFFFFFFFFFFFFFFFFFFFFFFFFFFFFFF AND PUSH2 0x8FC SELFBALANCE SWAP1 DUP2 ISZERO MUL SWAP1 PUSH1 0x40 MLOAD PUSH0 PUSH1 0x40 MLOAD DUP1 DUP4 SUB DUP2 DUP6 DUP9 DUP9 CALL SWAP4 POP POP POP POP ISZERO DUP1 ISZERO PUSH2 0x381 JUMPI RETURNDATASIZE PUSH0 DUP1 RETURNDATACOPY RETURNDATASIZE PUSH0 REVERT JUMPDEST POP PUSH0 CALLER PUSH20 0xFFFFFFFFFFFFFFFFFFFFFFFFFFFFFFFFFFFFFFFF AND PUSH2 0x8FC SELFBALANCE SWAP1 DUP2 ISZERO MUL SWAP1 PUSH1 0x40 MLOAD PUSH0 PUSH1 0x40 MLOAD DUP1 DUP4 SUB DUP2 DUP6 DUP9 DUP9 CALL SWAP4 POP POP POP POP SWAP1 POP DUP1 PUSH2 0x3F9 JUMPI PUSH1 0x40 MLOAD PUSH32 0x8C379A000000000000000000000000000000000000000000000000000000000 DUP2 MSTORE PUSH1 0x4 ADD PUSH2 0x3F0 SWAP1 PUSH2 0xA18 JUMP JUMPDEST PUSH1 0x40 MLOAD DUP1 SWAP2 SUB SWAP1 REVERT JUMPDEST PUSH0 CALLER PUSH20 0xFFFFFFFFFFFFFFFFFFFFFFFFFFFFFFFFFFFFFFFF AND SELFBALANCE PUSH1 0x40 MLOAD PUSH2 0x41E SWAP1 PUSH2 0xA63 JUMP JUMPDEST PUSH0 PUSH1 0x40 MLOAD DUP1 DUP4 SUB DUP2 DUP6 DUP8 GAS CALL SWAP3 POP POP POP RETURNDATASIZE DUP1 PUSH0 DUP2 EQ PUSH2 0x458 JUMPI PUSH1 0x40 MLOAD SWAP2 POP PUSH1 0x1F NOT PUSH1 0x3F RETURNDATASIZE ADD AND DUP3 ADD PUSH1 0x40 MSTORE RETURNDATASIZE DUP3 MSTORE RETURNDATASIZE PUSH0 PUSH1 0x20 DUP5 ADD RETURNDATACOPY PUSH2 0x45D JUMP JUMPDEST PUSH1 0x60 SWAP2 POP JUMPDEST POP POP SWAP1 POP DUP1 PUSH2 0x4A1 JUMPI PUSH1 0x40 MLOAD PUSH32 0x8C379A000000000000000000000000000000000000000000000000000000000 DUP2 MSTORE PUSH1 0x4 ADD PUSH2 0x498 SWAP1 PUSH2 0xAC1 JUMP JUMPDEST PUSH1 0x40 MLOAD DUP1 SWAP2 SUB SWAP1 REVERT JUMPDEST POP POP JUMP JUMPDEST PUSH1 0x1 PUSH1 0x20 MSTORE DUP1 PUSH0 MSTORE PUSH1 0x40 PUSH0 KECCAK256 PUSH0 SWAP2 POP SWAP1 POP SLOAD DUP2 JUMP JUMPDEST PUSH1 0x2 PUSH0 SWAP1 SLOAD SWAP1 PUSH2 0x100 EXP SWAP1 DIV PUSH20 0xFFFFFFFFFFFFFFFFFFFFFFFFFFFFFFFFFFFFFFFF AND DUP2 JUMP JUMPDEST PUSH0 CALLVALUE SWAP1 POP PUSH1 0x4 SLOAD PUSH20 0x0 PUSH4 0xDB23D7E6 PUSH1 0x3 PUSH0 SWAP1 SLOAD SWAP1 PUSH2 0x100 EXP SWAP1 DIV PUSH20 0xFFFFFFFFFFFFFFFFFFFFFFFFFFFFFFFFFFFFFFFF AND DUP5 PUSH1 0x40 MLOAD DUP4 PUSH4 0xFFFFFFFF AND PUSH1 0xE0 SHL DUP2 MSTORE PUSH1 0x4 ADD PUSH2 0x540 SWAP3 SWAP2 SWAP1 PUSH2 0xAFD JUMP JUMPDEST PUSH1 0x20 PUSH1 0x40 MLOAD DUP1 DUP4 SUB DUP2 DUP7 GAS DELEGATECALL ISZERO DUP1 ISZERO PUSH2 0x55B JUMPI RETURNDATASIZE PUSH0 DUP1 RETURNDATACOPY RETURNDATASIZE PUSH0 REVERT JUMPDEST POP POP POP POP PUSH1 0x40 MLOAD RETURNDATASIZE PUSH1 0x1F NOT PUSH1 0x1F DUP3 ADD AND DUP3 ADD DUP1 PUSH1 0x40 MSTORE POP DUP2 ADD SWAP1 PUSH2 0x57F SWAP2 SWAP1 PUSH2 0xB38 JUMP JUMPDEST LT ISZERO PUSH2 0x5C0 JUMPI PUSH1 0x40 MLOAD PUSH32 0x8C379A000000000000000000000000000000000000000000000000000000000 DUP2 MSTORE PUSH1 0x4 ADD PUSH2 0x5B7 SWAP1 PUSH2 0xBD3 JUMP JUMPDEST PUSH1 0x40 MLOAD DUP1 SWAP2 SUB SWAP1 REVERT JUMPDEST PUSH0 CALLER SWAP1 DUP1 PUSH1 0x1 DUP2 SLOAD ADD DUP1 DUP3 SSTORE DUP1 SWAP2 POP POP PUSH1 0x1 SWAP1 SUB SWAP1 PUSH0 MSTORE PUSH1 0x20 PUSH0 KECCAK256 ADD PUSH0 SWAP1 SWAP2 SWAP1 SWAP2 SWAP1 SWAP2 PUSH2 0x100 EXP DUP2 SLOAD DUP2 PUSH20 0xFFFFFFFFFFFFFFFFFFFFFFFFFFFFFFFFFFFFFFFF MUL NOT AND SWAP1 DUP4 PUSH20 0xFFFFFFFFFFFFFFFFFFFFFFFFFFFFFFFFFFFFFFFF AND MUL OR SWAP1 SSTORE POP DUP1 PUSH1 0x1 PUSH0 CALLER PUSH20 0xFFFFFFFFFFFFFFFFFFFFFFFFFFFFFFFFFFFFFFFF AND PUSH20 0xFFFFFFFFFFFFFFFFFFFFFFFFFFFFFFFFFFFFFFFF AND DUP2 MSTORE PUSH1 0x20 ADD SWAP1 DUP2 MSTORE PUSH1 0x20 ADD PUSH0 KECCAK256 PUSH0 DUP3 DUP3 SLOAD PUSH2 0x66B SWAP2 SWAP1 PUSH2 0xC1E JUMP JUMPDEST SWAP3 POP POP DUP2 SWAP1 SSTORE POP POP JUMP JUMPDEST PUSH0 DUP2 DUP2 SLOAD DUP2 LT PUSH2 0x683 JUMPI PUSH0 DUP1 REVERT JUMPDEST SWAP1 PUSH0 MSTORE PUSH1 0x20 PUSH0 KECCAK256 ADD PUSH0 SWAP2 POP SLOAD SWAP1 PUSH2 0x100 EXP SWAP1 DIV PUSH20 0xFFFFFFFFFFFFFFFFFFFFFFFFFFFFFFFFFFFFFFFF AND DUP2 JUMP JUMPDEST DUP3 DUP1 SLOAD DUP3 DUP3 SSTORE SWAP1 PUSH0 MSTORE PUSH1 0x20 PUSH0 KECCAK256 SWAP1 DUP2 ADD SWAP3 DUP3 ISZERO PUSH2 0x725 JUMPI SWAP2 PUSH1 0x20 MUL DUP3 ADD JUMPDEST DUP3 DUP2 GT ISZERO PUSH2 0x724 JUMPI DUP3 MLOAD DUP3 PUSH0 PUSH2 0x100 EXP DUP2 SLOAD DUP2 PUSH20 0xFFFFFFFFFFFFFFFFFFFFFFFFFFFFFFFFFFFFFFFF MUL NOT AND SWAP1 DUP4 PUSH20 0xFFFFFFFFFFFFFFFFFFFFFFFFFFFFFFFFFFFFFFFF AND MUL OR SWAP1 SSTORE POP SWAP2 PUSH1 0x20 ADD SWAP2 SWAP1 PUSH1 0x1 ADD SWAP1 PUSH2 0x6CD JUMP JUMPDEST JUMPDEST POP SWAP1 POP PUSH2 0x732 SWAP2 SWAP1 PUSH2 0x736 JUMP JUMPDEST POP SWAP1 JUMP JUMPDEST JUMPDEST DUP1 DUP3 GT ISZERO PUSH2 0x74D JUMPI PUSH0 DUP2 PUSH0 SWAP1 SSTORE POP PUSH1 0x1 ADD PUSH2 0x737 JUMP JUMPDEST POP SWAP1 JUMP JUMPDEST PUSH0 DUP2 SWAP1 POP SWAP2 SWAP1 POP JUMP JUMPDEST PUSH2 0x763 DUP2 PUSH2 0x751 JUMP JUMPDEST DUP3 MSTORE POP POP JUMP JUMPDEST PUSH0 PUSH1 0x20 DUP3 ADD SWAP1 POP PUSH2 0x77C PUSH0 DUP4 ADD DUP5 PUSH2 0x75A JUMP JUMPDEST SWAP3 SWAP2 POP POP JUMP JUMPDEST PUSH0 PUSH20 0xFFFFFFFFFFFFFFFFFFFFFFFFFFFFFFFFFFFFFFFF DUP3 AND SWAP1 POP SWAP2 SWAP1 POP JUMP JUMPDEST PUSH0 DUP2 SWAP1 POP SWAP2 SWAP1 POP JUMP JUMPDEST PUSH0 PUSH2 0x7C4 PUSH2 0x7BF PUSH2 0x7BA DUP5 PUSH2 0x782 JUMP JUMPDEST PUSH2 0x7A1 JUMP JUMPDEST PUSH2 0x782 JUMP JUMPDEST SWAP1 POP SWAP2 SWAP1 POP JUMP JUMPDEST PUSH0 PUSH2 0x7D5 DUP3 PUSH2 0x7AA JUMP JUMPDEST SWAP1 POP SWAP2 SWAP1 POP JUMP JUMPDEST PUSH0 PUSH2 0x7E6 DUP3 PUSH2 0x7CB JUMP JUMPDEST SWAP1 POP SWAP2 SWAP1 POP JUMP JUMPDEST PUSH2 0x7F6 DUP2 PUSH2 0x7DC JUMP JUMPDEST DUP3 MSTORE POP POP JUMP JUMPDEST PUSH0 PUSH1 0x20 DUP3 ADD SWAP1 POP PUSH2 0x80F PUSH0 DUP4 ADD DUP5 PUSH2 0x7ED JUMP JUMPDEST SWAP3 SWAP2 POP POP JUMP JUMPDEST PUSH0 DUP1 REVERT JUMPDEST PUSH0 PUSH2 0x823 DUP3 PUSH2 0x782 JUMP JUMPDEST SWAP1 POP SWAP2 SWAP1 POP JUMP JUMPDEST PUSH2 0x833 DUP2 PUSH2 0x819 JUMP JUMPDEST DUP2 EQ PUSH2 0x83D JUMPI PUSH0 DUP1 REVERT JUMPDEST POP JUMP JUMPDEST PUSH0 DUP2 CALLDATALOAD SWAP1 POP PUSH2 0x84E DUP2 PUSH2 0x82A JUMP JUMPDEST SWAP3 SWAP2 POP POP JUMP JUMPDEST PUSH0 PUSH1 0x20 DUP3 DUP5 SUB SLT ISZERO PUSH2 0x869 JUMPI PUSH2 0x868 PUSH2 0x815 JUMP JUMPDEST JUMPDEST PUSH0 PUSH2 0x876 DUP5 DUP3 DUP6 ADD PUSH2 0x840 JUMP JUMPDEST SWAP2 POP POP SWAP3 SWAP2 POP POP JUMP JUMPDEST PUSH2 0x888 DUP2 PUSH2 0x819 JUMP JUMPDEST DUP3 MSTORE POP POP JUMP JUMPDEST PUSH0 PUSH1 0x20 DUP3 ADD SWAP1 POP PUSH2 0x8A1 PUSH0 DUP4 ADD DUP5 PUSH2 0x87F JUMP JUMPDEST SWAP3 SWAP2 POP POP JUMP JUMPDEST PUSH2 0x8B0 DUP2 PUSH2 0x751 JUMP JUMPDEST DUP2 EQ PUSH2 0x8BA JUMPI PUSH0 DUP1 REVERT JUMPDEST POP JUMP JUMPDEST PUSH0 DUP2 CALLDATALOAD SWAP1 POP PUSH2 0x8CB DUP2 PUSH2 0x8A7 JUMP JUMPDEST SWAP3 SWAP2 POP POP JUMP JUMPDEST PUSH0 PUSH1 0x20 DUP3 DUP5 SUB SLT ISZERO PUSH2 0x8E6 JUMPI PUSH2 0x8E5 PUSH2 0x815 JUMP JUMPDEST JUMPDEST PUSH0 PUSH2 0x8F3 DUP5 DUP3 DUP6 ADD PUSH2 0x8BD JUMP JUMPDEST SWAP2 POP POP SWAP3 SWAP2 POP POP JUMP JUMPDEST PUSH0 DUP3 DUP3 MSTORE PUSH1 0x20 DUP3 ADD SWAP1 POP SWAP3 SWAP2 POP POP JUMP JUMPDEST PUSH32 0x4F6E6C79206F776E65722063616E207769746864726177000000000000000000 PUSH0 DUP3 ADD MSTORE POP JUMP JUMPDEST PUSH0 PUSH2 0x940 PUSH1 0x17 DUP4 PUSH2 0x8FC JUMP JUMPDEST SWAP2 POP PUSH2 0x94B DUP3 PUSH2 0x90C JUMP JUMPDEST PUSH1 0x20 DUP3 ADD SWAP1 POP SWAP2 SWAP1 POP JUMP JUMPDEST PUSH0 PUSH1 0x20 DUP3 ADD SWAP1 POP DUP2 DUP2 SUB PUSH0 DUP4 ADD MSTORE PUSH2 0x96D DUP2 PUSH2 0x934 JUMP JUMPDEST SWAP1 POP SWAP2 SWAP1 POP JUMP JUMPDEST PUSH32 0x4E487B7100000000000000000000000000000000000000000000000000000000 PUSH0 MSTORE PUSH1 0x32 PUSH1 0x4 MSTORE PUSH1 0x24 PUSH0 REVERT JUMPDEST PUSH32 0x4E487B7100000000000000000000000000000000000000000000000000000000 PUSH0 MSTORE PUSH1 0x41 PUSH1 0x4 MSTORE PUSH1 0x24 PUSH0 REVERT JUMPDEST PUSH32 0x53656E64696E67204661696C6564000000000000000000000000000000000000 PUSH0 DUP3 ADD MSTORE POP JUMP JUMPDEST PUSH0 PUSH2 0xA02 PUSH1 0xE DUP4 PUSH2 0x8FC JUMP JUMPDEST SWAP2 POP PUSH2 0xA0D DUP3 PUSH2 0x9CE JUMP JUMPDEST PUSH1 0x20 DUP3 ADD SWAP1 POP SWAP2 SWAP1 POP JUMP JUMPDEST PUSH0 PUSH1 0x20 DUP3 ADD SWAP1 POP DUP2 DUP2 SUB PUSH0 DUP4 ADD MSTORE PUSH2 0xA2F DUP2 PUSH2 0x9F6 JUMP JUMPDEST SWAP1 POP SWAP2 SWAP1 POP JUMP JUMPDEST PUSH0 DUP2 SWAP1 POP SWAP3 SWAP2 POP POP JUMP JUMPDEST POP JUMP JUMPDEST PUSH0 PUSH2 0xA4E PUSH0 DUP4 PUSH2 0xA36 JUMP JUMPDEST SWAP2 POP PUSH2 0xA59 DUP3 PUSH2 0xA40 JUMP JUMPDEST PUSH0 DUP3 ADD SWAP1 POP SWAP2 SWAP1 POP JUMP JUMPDEST PUSH0 PUSH2 0xA6D DUP3 PUSH2 0xA43 JUMP JUMPDEST SWAP2 POP DUP2 SWAP1 POP SWAP2 SWAP1 POP JUMP JUMPDEST PUSH32 0x43616C6C204661696C6564000000000000000000000000000000000000000000 PUSH0 DUP3 ADD MSTORE POP JUMP JUMPDEST PUSH0 PUSH2 0xAAB PUSH1 0xB DUP4 PUSH2 0x8FC JUMP JUMPDEST SWAP2 POP PUSH2 0xAB6 DUP3 PUSH2 0xA77 JUMP JUMPDEST PUSH1 0x20 DUP3 ADD SWAP1 POP SWAP2 SWAP1 POP JUMP JUMPDEST PUSH0 PUSH1 0x20 DUP3 ADD SWAP1 POP DUP2 DUP2 SUB PUSH0 DUP4 ADD MSTORE PUSH2 0xAD8 DUP2 PUSH2 0xA9F JUMP JUMPDEST SWAP1 POP SWAP2 SWAP1 POP JUMP JUMPDEST PUSH2 0xAE8 DUP2 PUSH2 0x7DC JUMP JUMPDEST DUP3 MSTORE POP POP JUMP JUMPDEST PUSH2 0xAF7 DUP2 PUSH2 0x751 JUMP JUMPDEST DUP3 MSTORE POP POP JUMP JUMPDEST PUSH0 PUSH1 0x40 DUP3 ADD SWAP1 POP PUSH2 0xB10 PUSH0 DUP4 ADD DUP6 PUSH2 0xADF JUMP JUMPDEST PUSH2 0xB1D PUSH1 0x20 DUP4 ADD DUP5 PUSH2 0xAEE JUMP JUMPDEST SWAP4 SWAP3 POP POP POP JUMP JUMPDEST PUSH0 DUP2 MLOAD SWAP1 POP PUSH2 0xB32 DUP2 PUSH2 0x8A7 JUMP JUMPDEST SWAP3 SWAP2 POP POP JUMP JUMPDEST PUSH0 PUSH1 0x20 DUP3 DUP5 SUB SLT ISZERO PUSH2 0xB4D JUMPI PUSH2 0xB4C PUSH2 0x815 JUMP JUMPDEST JUMPDEST PUSH0 PUSH2 0xB5A DUP5 DUP3 DUP6 ADD PUSH2 0xB24 JUMP JUMPDEST SWAP2 POP POP SWAP3 SWAP2 POP POP JUMP JUMPDEST PUSH32 0x506C6561736520746F7020757020796F75722062616C616E636520746F206D61 PUSH0 DUP3 ADD MSTORE PUSH32 0x6B652074686973207472616E73616374696F6E00000000000000000000000000 PUSH1 0x20 DUP3 ADD MSTORE POP JUMP JUMPDEST PUSH0 PUSH2 0xBBD PUSH1 0x33 DUP4 PUSH2 0x8FC JUMP JUMPDEST SWAP2 POP PUSH2 0xBC8 DUP3 PUSH2 0xB63 JUMP JUMPDEST PUSH1 0x40 DUP3 ADD SWAP1 POP SWAP2 SWAP1 POP JUMP JUMPDEST PUSH0 PUSH1 0x20 DUP3 ADD SWAP1 POP DUP2 DUP2 SUB PUSH0 DUP4 ADD MSTORE PUSH2 0xBEA DUP2 PUSH2 0xBB1 JUMP JUMPDEST SWAP1 POP SWAP2 SWAP1 POP JUMP JUMPDEST PUSH32 0x4E487B7100000000000000000000000000000000000000000000000000000000 PUSH0 MSTORE PUSH1 0x11 PUSH1 0x4 MSTORE PUSH1 0x24 PUSH0 REVERT JUMPDEST PUSH0 PUSH2 0xC28 DUP3 PUSH2 0x751 JUMP JUMPDEST SWAP2 POP PUSH2 0xC33 DUP4 PUSH2 0x751 JUMP JUMPDEST SWAP3 POP DUP3 DUP3 ADD SWAP1 POP DUP1 DUP3 GT ISZERO PUSH2 0xC4B JUMPI PUSH2 0xC4A PUSH2 0xBF1 JUMP JUMPDEST JUMPDEST SWAP3 SWAP2 POP POP JUMP INVALID LOG2 PUSH5 0x6970667358 0x22 SLT KECCAK256 ISZERO 0xB3 0x4A 0xF7 EXTCODEHASH 0x26 0xE8 0x4B 0xAF 0xE 0xCB PUSH31 0x8DDA42A8D24712E233B03D1F5A2E423EE108E1B564736F6C63430008170033 "
				},
				"gasEstimates": {
					"creation": {
						"codeDepositCost": "641400",
						"executionCost": "infinite",
						"totalCost": "infinite"
					},
					"external": {
						"addressToAmountFunded(address)": "2802",
						"aggregator()": "infinite",
						"fund()": "infinite",
						"funders(uint256)": "5009",
						"minimumUsd()": "2426",
						"owner()": "2530",
						"withdraw()": "infinite"
					}
				},
				"methodIdentifiers": {
					"addressToAmountFunded(address)": "3e47d6f3",
					"aggregator()": "245a7bfc",
					"fund()": "b60d4288",
					"funders(uint256)": "dc0d3dff",
					"minimumUsd()": "098de820",
					"owner()": "8da5cb5b",
					"withdraw()": "3ccfd60b"
				}
			},
			"storageLayout": {
				"storage": [
					{
						"astId": 57,
						"contract": "FundMe.sol:FundMe",
						"label": "funders",
						"offset": 0,
						"slot": "0",
						"type": "t_array(t_address)dyn_storage"
					},
					{
						"astId": 61,
						"contract": "FundMe.sol:FundMe",
						"label": "addressToAmountFunded",
						"offset": 0,
						"slot": "1",
						"type": "t_mapping(t_address,t_uint256)"
					},
					{
						"astId": 63,
						"contract": "FundMe.sol:FundMe",
						"label": "owner",
						"offset": 0,
						"slot": "2",
						"type": "t_address"
					},
					{
						"astId": 66,
						"contract": "FundMe.sol:FundMe",
						"label": "aggregator",
						"offset": 0,
						"slot": "3",
						"type": "t_contract(AggregatorV3Interface)45"
					},
					{
						"astId": 85,
						"contract": "FundMe.sol:FundMe",
						"label": "minimumUsd",
						"offset": 0,
						"slot": "4",
						"type": "t_uint256"
					}
				],
				"types": {
					"t_address": {
						"encoding": "inplace",
						"label": "address",
						"numberOfBytes": "20"
					},
					"t_array(t_address)dyn_storage": {
						"base": "t_address",
						"encoding": "dynamic_array",
						"label": "address[]",
						"numberOfBytes": "32"
					},
					"t_contract(AggregatorV3Interface)45": {
						"encoding": "inplace",
						"label": "contract AggregatorV3Interface",
						"numberOfBytes": "20"
					},
					"t_mapping(t_address,t_uint256)": {
						"encoding": "mapping",
						"key": "t_address",
						"label": "mapping(address => uint256)",
						"numberOfBytes": "32",
						"value": "t_uint256"
					},
					"t_uint256": {
						"encoding": "inplace",
						"label": "uint256",
						"numberOfBytes": "32"
					}
				}
			},
			"userdoc": {
				"kind": "user",
				"methods": {},
				"version": 1
			}
		}
	}
}