{
	"AddFiveStorage.sol": {
		"AddFiveStorage": {
			"abi": [
				{
					"inputs": [
						{
							"internalType": "string",
							"name": "_name",
							"type": "string"
						},
						{
							"internalType": "uint256",
							"name": "_number",
							"type": "uint256"
						}
					],
					"name": "addPerson",
					"outputs": [],
					"stateMutability": "nonpayable",
					"type": "function"
				},
				{
					"inputs": [
						{
							"internalType": "uint256",
							"name": "",
							"type": "uint256"
						}
					],
					"name": "people",
					"outputs": [
						{
							"internalType": "string",
							"name": "name",
							"type": "string"
						},
						{
							"internalType": "uint256",
							"name": "number",
							"type": "uint256"
						}
					],
					"stateMutability": "view",
					"type": "function"
				},
				{
					"inputs": [
						{
							"internalType": "string",
							"name": "",
							"type": "string"
						}
					],
					"name": "personNumber",
					"outputs": [
						{
							"internalType": "uint256",
							"name": "",
							"type": "uint256"
						}
					],
					"stateMutability": "view",
					"type": "function"
				},
				{
					"inputs": [],
					"name": "publicNumber",
					"outputs": [
						{
							"internalType": "uint256",
							"name": "",
							"type": "uint256"
						}
					],
					"stateMutability": "view",
					"type": "function"
				},
				{
					"inputs": [],
					"name": "retrieve",
					"outputs": [
						{
							"internalType": "uint256",
							"name": "",
							"type": "uint256"
						}
					],
					"stateMutability": "view",
					"type": "function"
				},
				{
					"inputs": [
						{
							"internalType": "uint256",
							"name": "_newNumber",
							"type": "uint256"
						}
					],
					"name": "store",
					"outputs": [],
					"stateMutability": "nonpayable",
					"type": "function"
				}
			],
			"devdoc": {
				"kind": "dev",
				"methods": {},
				"version": 1
			},
			"evm": {
				"assembly": "    /* \"AddFiveStorage.sol\":250:400  contract AddFiveStorage is SimpleContract{... */\n  mstore(0x40, 0x80)\n  callvalue\n  dup1\n  iszero\n  tag_1\n  jumpi\n  0x00\n  dup1\n  revert\ntag_1:\n  pop\n  dataSize(sub_0)\n  dup1\n  dataOffset(sub_0)\n  0x00\n  codecopy\n  0x00\n  return\nstop\n\nsub_0: assembly {\n        /* \"AddFiveStorage.sol\":250:400  contract AddFiveStorage is SimpleContract{... */\n      mstore(0x40, 0x80)\n      callvalue\n      dup1\n      iszero\n      tag_1\n      jumpi\n      0x00\n      dup1\n      revert\n    tag_1:\n      pop\n      jumpi(tag_2, lt(calldatasize, 0x04))\n      shr(0xe0, calldataload(0x00))\n      dup1\n      0x2e64cec1\n      eq\n      tag_3\n      jumpi\n      dup1\n      0x5ded0c0d\n      eq\n      tag_4\n      jumpi\n      dup1\n      0x6057361d\n      eq\n      tag_5\n      jumpi\n      dup1\n      0x6f760f41\n      eq\n      tag_6\n      jumpi\n      dup1\n      0x9e7a13ad\n      eq\n      tag_7\n      jumpi\n      dup1\n      0xe566c67d\n      eq\n      tag_8\n      jumpi\n    tag_2:\n      0x00\n      dup1\n      revert\n        /* \"index.sol\":441:527  function retrieve() public view returns (uint256) {... */\n    tag_3:\n      tag_9\n      tag_10\n      jump\t// in\n    tag_9:\n      mload(0x40)\n      tag_11\n      swap2\n      swap1\n      tag_12\n      jump\t// in\n    tag_11:\n      mload(0x40)\n      dup1\n      swap2\n      sub\n      swap1\n      return\n        /* \"index.sol\":627:673  mapping(string => uint256) public personNumber */\n    tag_4:\n      tag_13\n      0x04\n      dup1\n      calldatasize\n      sub\n      dup2\n      add\n      swap1\n      tag_14\n      swap2\n      swap1\n      tag_15\n      jump\t// in\n    tag_14:\n      tag_16\n      jump\t// in\n    tag_13:\n      mload(0x40)\n      tag_17\n      swap2\n      swap1\n      tag_12\n      jump\t// in\n    tag_17:\n      mload(0x40)\n      dup1\n      swap2\n      sub\n      swap1\n      return\n        /* \"AddFiveStorage.sol\":298:397  function store(uint256 _newNumber) public override {... */\n    tag_5:\n      tag_18\n      0x04\n      dup1\n      calldatasize\n      sub\n      dup2\n      add\n      swap1\n      tag_19\n      swap2\n      swap1\n      tag_20\n      jump\t// in\n    tag_19:\n      tag_21\n      jump\t// in\n    tag_18:\n      stop\n        /* \"index.sol\":680:881  function addPerson(string memory _name, uint256 _number) public {... */\n    tag_6:\n      tag_22\n      0x04\n      dup1\n      calldatasize\n      sub\n      dup2\n      add\n      swap1\n      tag_23\n      swap2\n      swap1\n      tag_24\n      jump\t// in\n    tag_23:\n      tag_25\n      jump\t// in\n    tag_22:\n      stop\n        /* \"index.sol\":598:620  Person[] public people */\n    tag_7:\n      tag_26\n      0x04\n      dup1\n      calldatasize\n      sub\n      dup2\n      add\n      swap1\n      tag_27\n      swap2\n      swap1\n      tag_20\n      jump\t// in\n    tag_27:\n      tag_28\n      jump\t// in\n    tag_26:\n      mload(0x40)\n      tag_29\n      swap3\n      swap2\n      swap1\n      tag_30\n      jump\t// in\n    tag_29:\n      mload(0x40)\n      dup1\n      swap2\n      sub\n      swap1\n      return\n        /* \"index.sol\":231:258  uint256 public publicNumber */\n    tag_8:\n      tag_31\n      tag_32\n      jump\t// in\n    tag_31:\n      mload(0x40)\n      tag_33\n      swap2\n      swap1\n      tag_12\n      jump\t// in\n    tag_33:\n      mload(0x40)\n      dup1\n      swap2\n      sub\n      swap1\n      return\n        /* \"index.sol\":441:527  function retrieve() public view returns (uint256) {... */\n    tag_10:\n        /* \"index.sol\":482:489  uint256 */\n      0x00\n        /* \"index.sol\":508:520  publicNumber */\n      dup1\n      sload\n        /* \"index.sol\":501:520  return publicNumber */\n      swap1\n      pop\n        /* \"index.sol\":441:527  function retrieve() public view returns (uint256) {... */\n      swap1\n      jump\t// out\n        /* \"index.sol\":627:673  mapping(string => uint256) public personNumber */\n    tag_16:\n      0x02\n      dup2\n      dup1\n      mload\n      0x20\n      dup2\n      add\n      dup3\n      add\n      dup1\n      mload\n      dup5\n      dup3\n      mstore\n      0x20\n      dup4\n      add\n      0x20\n      dup6\n      add\n      keccak256\n      dup2\n      dup4\n      mstore\n      dup1\n      swap6\n      pop\n      pop\n      pop\n      pop\n      pop\n      pop\n      0x00\n      swap2\n      pop\n      swap1\n      pop\n      sload\n      dup2\n      jump\t// out\n        /* \"AddFiveStorage.sol\":298:397  function store(uint256 _newNumber) public override {... */\n    tag_21:\n        /* \"AddFiveStorage.sol\":388:389  5 */\n      0x05\n        /* \"AddFiveStorage.sol\":375:385  _newNumber */\n      dup2\n        /* \"AddFiveStorage.sol\":375:389  _newNumber + 5 */\n      tag_36\n      swap2\n      swap1\n      tag_37\n      jump\t// in\n    tag_36:\n        /* \"AddFiveStorage.sol\":360:372  publicNumber */\n      0x00\n        /* \"AddFiveStorage.sol\":360:389  publicNumber = _newNumber + 5 */\n      dup2\n      swap1\n      sstore\n      pop\n        /* \"AddFiveStorage.sol\":298:397  function store(uint256 _newNumber) public override {... */\n      pop\n      jump\t// out\n        /* \"index.sol\":680:881  function addPerson(string memory _name, uint256 _number) public {... */\n    tag_25:\n        /* \"index.sol\":754:777  Person memory newPerson */\n      0x00\n        /* \"index.sol\":780:802  Person(_name, _number) */\n      mload(0x40)\n      dup1\n      0x40\n      add\n      0x40\n      mstore\n      dup1\n        /* \"index.sol\":787:792  _name */\n      dup5\n        /* \"index.sol\":780:802  Person(_name, _number) */\n      dup2\n      mstore\n      0x20\n      add\n        /* \"index.sol\":794:801  _number */\n      dup4\n        /* \"index.sol\":780:802  Person(_name, _number) */\n      dup2\n      mstore\n      pop\n        /* \"index.sol\":754:802  Person memory newPerson = Person(_name, _number) */\n      swap1\n      pop\n        /* \"index.sol\":812:818  people */\n      0x01\n        /* \"index.sol\":824:833  newPerson */\n      dup2\n        /* \"index.sol\":812:834  people.push(newPerson) */\n      swap1\n      dup1\n      0x01\n      dup2\n      sload\n      add\n      dup1\n      dup3\n      sstore\n      dup1\n      swap2\n      pop\n      pop\n      0x01\n      swap1\n      sub\n      swap1\n      0x00\n      mstore\n      keccak256(0x00, 0x20)\n      swap1\n      0x02\n      mul\n      add\n      0x00\n      swap1\n      swap2\n      swap1\n      swap2\n      swap1\n      swap2\n      pop\n      0x00\n      dup3\n      add\n      mload\n      dup2\n      0x00\n      add\n      swap1\n      dup2\n      tag_40\n      swap2\n      swap1\n      tag_41\n      jump\t// in\n    tag_40:\n      pop\n      0x20\n      dup3\n      add\n      mload\n      dup2\n      0x01\n      add\n      sstore\n      pop\n      pop\n        /* \"index.sol\":866:873  _number */\n      dup2\n        /* \"index.sol\":844:856  personNumber */\n      0x02\n        /* \"index.sol\":857:862  _name */\n      dup5\n        /* \"index.sol\":844:863  personNumber[_name] */\n      mload(0x40)\n      tag_42\n      swap2\n      swap1\n      tag_43\n      jump\t// in\n    tag_42:\n      swap1\n      dup2\n      mstore\n      0x20\n      add\n      mload(0x40)\n      dup1\n      swap2\n      sub\n      swap1\n      keccak256\n        /* \"index.sol\":844:873  personNumber[_name] = _number */\n      dup2\n      swap1\n      sstore\n      pop\n        /* \"index.sol\":744:881  {... */\n      pop\n        /* \"index.sol\":680:881  function addPerson(string memory _name, uint256 _number) public {... */\n      pop\n      pop\n      jump\t// out\n        /* \"index.sol\":598:620  Person[] public people */\n    tag_28:\n      0x01\n      dup2\n      dup2\n      sload\n      dup2\n      lt\n      tag_44\n      jumpi\n      0x00\n      dup1\n      revert\n    tag_44:\n      swap1\n      0x00\n      mstore\n      keccak256(0x00, 0x20)\n      swap1\n      0x02\n      mul\n      add\n      0x00\n      swap2\n      pop\n      swap1\n      pop\n      dup1\n      0x00\n      add\n      dup1\n      sload\n      tag_46\n      swap1\n      tag_47\n      jump\t// in\n    tag_46:\n      dup1\n      0x1f\n      add\n      0x20\n      dup1\n      swap2\n      div\n      mul\n      0x20\n      add\n      mload(0x40)\n      swap1\n      dup2\n      add\n      0x40\n      mstore\n      dup1\n      swap3\n      swap2\n      swap1\n      dup2\n      dup2\n      mstore\n      0x20\n      add\n      dup3\n      dup1\n      sload\n      tag_48\n      swap1\n      tag_47\n      jump\t// in\n    tag_48:\n      dup1\n      iszero\n      tag_49\n      jumpi\n      dup1\n      0x1f\n      lt\n      tag_50\n      jumpi\n      0x0100\n      dup1\n      dup4\n      sload\n      div\n      mul\n      dup4\n      mstore\n      swap2\n      0x20\n      add\n      swap2\n      jump(tag_49)\n    tag_50:\n      dup3\n      add\n      swap2\n      swap1\n      0x00\n      mstore\n      keccak256(0x00, 0x20)\n      swap1\n    tag_51:\n      dup2\n      sload\n      dup2\n      mstore\n      swap1\n      0x01\n      add\n      swap1\n      0x20\n      add\n      dup1\n      dup4\n      gt\n      tag_51\n      jumpi\n      dup3\n      swap1\n      sub\n      0x1f\n      and\n      dup3\n      add\n      swap2\n    tag_49:\n      pop\n      pop\n      pop\n      pop\n      pop\n      swap1\n      dup1\n      0x01\n      add\n      sload\n      swap1\n      pop\n      dup3\n      jump\t// out\n        /* \"index.sol\":231:258  uint256 public publicNumber */\n    tag_32:\n      sload(0x00)\n      dup2\n      jump\t// out\n        /* \"#utility.yul\":7:84   */\n    tag_52:\n        /* \"#utility.yul\":44:51   */\n      0x00\n        /* \"#utility.yul\":73:78   */\n      dup2\n        /* \"#utility.yul\":62:78   */\n      swap1\n      pop\n        /* \"#utility.yul\":7:84   */\n      swap2\n      swap1\n      pop\n      jump\t// out\n        /* \"#utility.yul\":90:208   */\n    tag_53:\n        /* \"#utility.yul\":177:201   */\n      tag_95\n        /* \"#utility.yul\":195:200   */\n      dup2\n        /* \"#utility.yul\":177:201   */\n      tag_52\n      jump\t// in\n    tag_95:\n        /* \"#utility.yul\":172:175   */\n      dup3\n        /* \"#utility.yul\":165:202   */\n      mstore\n        /* \"#utility.yul\":90:208   */\n      pop\n      pop\n      jump\t// out\n        /* \"#utility.yul\":214:436   */\n    tag_12:\n        /* \"#utility.yul\":307:311   */\n      0x00\n        /* \"#utility.yul\":345:347   */\n      0x20\n        /* \"#utility.yul\":334:343   */\n      dup3\n        /* \"#utility.yul\":330:348   */\n      add\n        /* \"#utility.yul\":322:348   */\n      swap1\n      pop\n        /* \"#utility.yul\":358:429   */\n      tag_97\n        /* \"#utility.yul\":426:427   */\n      0x00\n        /* \"#utility.yul\":415:424   */\n      dup4\n        /* \"#utility.yul\":411:428   */\n      add\n        /* \"#utility.yul\":402:408   */\n      dup5\n        /* \"#utility.yul\":358:429   */\n      tag_53\n      jump\t// in\n    tag_97:\n        /* \"#utility.yul\":214:436   */\n      swap3\n      swap2\n      pop\n      pop\n      jump\t// out\n        /* \"#utility.yul\":442:517   */\n    tag_54:\n        /* \"#utility.yul\":475:481   */\n      0x00\n        /* \"#utility.yul\":508:510   */\n      0x40\n        /* \"#utility.yul\":502:511   */\n      mload\n        /* \"#utility.yul\":492:511   */\n      swap1\n      pop\n        /* \"#utility.yul\":442:517   */\n      swap1\n      jump\t// out\n        /* \"#utility.yul\":523:640   */\n    tag_55:\n        /* \"#utility.yul\":632:633   */\n      0x00\n        /* \"#utility.yul\":629:630   */\n      dup1\n        /* \"#utility.yul\":622:634   */\n      revert\n        /* \"#utility.yul\":646:763   */\n    tag_56:\n        /* \"#utility.yul\":755:756   */\n      0x00\n        /* \"#utility.yul\":752:753   */\n      dup1\n        /* \"#utility.yul\":745:757   */\n      revert\n        /* \"#utility.yul\":769:886   */\n    tag_57:\n        /* \"#utility.yul\":878:879   */\n      0x00\n        /* \"#utility.yul\":875:876   */\n      dup1\n        /* \"#utility.yul\":868:880   */\n      revert\n        /* \"#utility.yul\":892:1009   */\n    tag_58:\n        /* \"#utility.yul\":1001:1002   */\n      0x00\n        /* \"#utility.yul\":998:999   */\n      dup1\n        /* \"#utility.yul\":991:1003   */\n      revert\n        /* \"#utility.yul\":1015:1117   */\n    tag_59:\n        /* \"#utility.yul\":1056:1062   */\n      0x00\n        /* \"#utility.yul\":1107:1109   */\n      0x1f\n        /* \"#utility.yul\":1103:1110   */\n      not\n        /* \"#utility.yul\":1098:1100   */\n      0x1f\n        /* \"#utility.yul\":1091:1096   */\n      dup4\n        /* \"#utility.yul\":1087:1101   */\n      add\n        /* \"#utility.yul\":1083:1111   */\n      and\n        /* \"#utility.yul\":1073:1111   */\n      swap1\n      pop\n        /* \"#utility.yul\":1015:1117   */\n      swap2\n      swap1\n      pop\n      jump\t// out\n        /* \"#utility.yul\":1123:1303   */\n    tag_60:\n        /* \"#utility.yul\":1171:1248   */\n      0x4e487b7100000000000000000000000000000000000000000000000000000000\n        /* \"#utility.yul\":1168:1169   */\n      0x00\n        /* \"#utility.yul\":1161:1249   */\n      mstore\n        /* \"#utility.yul\":1268:1272   */\n      0x41\n        /* \"#utility.yul\":1265:1266   */\n      0x04\n        /* \"#utility.yul\":1258:1273   */\n      mstore\n        /* \"#utility.yul\":1292:1296   */\n      0x24\n        /* \"#utility.yul\":1289:1290   */\n      0x00\n        /* \"#utility.yul\":1282:1297   */\n      revert\n        /* \"#utility.yul\":1309:1590   */\n    tag_61:\n        /* \"#utility.yul\":1392:1419   */\n      tag_106\n        /* \"#utility.yul\":1414:1418   */\n      dup3\n        /* \"#utility.yul\":1392:1419   */\n      tag_59\n      jump\t// in\n    tag_106:\n        /* \"#utility.yul\":1384:1390   */\n      dup2\n        /* \"#utility.yul\":1380:1420   */\n      add\n        /* \"#utility.yul\":1522:1528   */\n      dup2\n        /* \"#utility.yul\":1510:1520   */\n      dup2\n        /* \"#utility.yul\":1507:1529   */\n      lt\n        /* \"#utility.yul\":1486:1504   */\n      0xffffffffffffffff\n        /* \"#utility.yul\":1474:1484   */\n      dup3\n        /* \"#utility.yul\":1471:1505   */\n      gt\n        /* \"#utility.yul\":1468:1530   */\n      or\n        /* \"#utility.yul\":1465:1553   */\n      iszero\n      tag_107\n      jumpi\n        /* \"#utility.yul\":1533:1551   */\n      tag_108\n      tag_60\n      jump\t// in\n    tag_108:\n        /* \"#utility.yul\":1465:1553   */\n    tag_107:\n        /* \"#utility.yul\":1573:1583   */\n      dup1\n        /* \"#utility.yul\":1569:1571   */\n      0x40\n        /* \"#utility.yul\":1562:1584   */\n      mstore\n        /* \"#utility.yul\":1352:1590   */\n      pop\n        /* \"#utility.yul\":1309:1590   */\n      pop\n      pop\n      jump\t// out\n        /* \"#utility.yul\":1596:1725   */\n    tag_62:\n        /* \"#utility.yul\":1630:1636   */\n      0x00\n        /* \"#utility.yul\":1657:1677   */\n      tag_110\n      tag_54\n      jump\t// in\n    tag_110:\n        /* \"#utility.yul\":1647:1677   */\n      swap1\n      pop\n        /* \"#utility.yul\":1686:1719   */\n      tag_111\n        /* \"#utility.yul\":1714:1718   */\n      dup3\n        /* \"#utility.yul\":1706:1712   */\n      dup3\n        /* \"#utility.yul\":1686:1719   */\n      tag_61\n      jump\t// in\n    tag_111:\n        /* \"#utility.yul\":1596:1725   */\n      swap2\n      swap1\n      pop\n      jump\t// out\n        /* \"#utility.yul\":1731:2039   */\n    tag_63:\n        /* \"#utility.yul\":1793:1797   */\n      0x00\n        /* \"#utility.yul\":1883:1901   */\n      0xffffffffffffffff\n        /* \"#utility.yul\":1875:1881   */\n      dup3\n        /* \"#utility.yul\":1872:1902   */\n      gt\n        /* \"#utility.yul\":1869:1925   */\n      iszero\n      tag_113\n      jumpi\n        /* \"#utility.yul\":1905:1923   */\n      tag_114\n      tag_60\n      jump\t// in\n    tag_114:\n        /* \"#utility.yul\":1869:1925   */\n    tag_113:\n        /* \"#utility.yul\":1943:1972   */\n      tag_115\n        /* \"#utility.yul\":1965:1971   */\n      dup3\n        /* \"#utility.yul\":1943:1972   */\n      tag_59\n      jump\t// in\n    tag_115:\n        /* \"#utility.yul\":1935:1972   */\n      swap1\n      pop\n        /* \"#utility.yul\":2027:2031   */\n      0x20\n        /* \"#utility.yul\":2021:2025   */\n      dup2\n        /* \"#utility.yul\":2017:2032   */\n      add\n        /* \"#utility.yul\":2009:2032   */\n      swap1\n      pop\n        /* \"#utility.yul\":1731:2039   */\n      swap2\n      swap1\n      pop\n      jump\t// out\n        /* \"#utility.yul\":2045:2191   */\n    tag_64:\n        /* \"#utility.yul\":2142:2148   */\n      dup3\n        /* \"#utility.yul\":2137:2140   */\n      dup2\n        /* \"#utility.yul\":2132:2135   */\n      dup4\n        /* \"#utility.yul\":2119:2149   */\n      calldatacopy\n        /* \"#utility.yul\":2183:2184   */\n      0x00\n        /* \"#utility.yul\":2174:2180   */\n      dup4\n        /* \"#utility.yul\":2169:2172   */\n      dup4\n        /* \"#utility.yul\":2165:2181   */\n      add\n        /* \"#utility.yul\":2158:2185   */\n      mstore\n        /* \"#utility.yul\":2045:2191   */\n      pop\n      pop\n      pop\n      jump\t// out\n        /* \"#utility.yul\":2197:2622   */\n    tag_65:\n        /* \"#utility.yul\":2275:2280   */\n      0x00\n        /* \"#utility.yul\":2300:2366   */\n      tag_118\n        /* \"#utility.yul\":2316:2365   */\n      tag_119\n        /* \"#utility.yul\":2358:2364   */\n      dup5\n        /* \"#utility.yul\":2316:2365   */\n      tag_63\n      jump\t// in\n    tag_119:\n        /* \"#utility.yul\":2300:2366   */\n      tag_62\n      jump\t// in\n    tag_118:\n        /* \"#utility.yul\":2291:2366   */\n      swap1\n      pop\n        /* \"#utility.yul\":2389:2395   */\n      dup3\n        /* \"#utility.yul\":2382:2387   */\n      dup2\n        /* \"#utility.yul\":2375:2396   */\n      mstore\n        /* \"#utility.yul\":2427:2431   */\n      0x20\n        /* \"#utility.yul\":2420:2425   */\n      dup2\n        /* \"#utility.yul\":2416:2432   */\n      add\n        /* \"#utility.yul\":2465:2468   */\n      dup5\n        /* \"#utility.yul\":2456:2462   */\n      dup5\n        /* \"#utility.yul\":2451:2454   */\n      dup5\n        /* \"#utility.yul\":2447:2463   */\n      add\n        /* \"#utility.yul\":2444:2469   */\n      gt\n        /* \"#utility.yul\":2441:2553   */\n      iszero\n      tag_120\n      jumpi\n        /* \"#utility.yul\":2472:2551   */\n      tag_121\n      tag_58\n      jump\t// in\n    tag_121:\n        /* \"#utility.yul\":2441:2553   */\n    tag_120:\n        /* \"#utility.yul\":2562:2616   */\n      tag_122\n        /* \"#utility.yul\":2609:2615   */\n      dup5\n        /* \"#utility.yul\":2604:2607   */\n      dup3\n        /* \"#utility.yul\":2599:2602   */\n      dup6\n        /* \"#utility.yul\":2562:2616   */\n      tag_64\n      jump\t// in\n    tag_122:\n        /* \"#utility.yul\":2281:2622   */\n      pop\n        /* \"#utility.yul\":2197:2622   */\n      swap4\n      swap3\n      pop\n      pop\n      pop\n      jump\t// out\n        /* \"#utility.yul\":2642:2982   */\n    tag_66:\n        /* \"#utility.yul\":2698:2703   */\n      0x00\n        /* \"#utility.yul\":2747:2750   */\n      dup3\n        /* \"#utility.yul\":2740:2744   */\n      0x1f\n        /* \"#utility.yul\":2732:2738   */\n      dup4\n        /* \"#utility.yul\":2728:2745   */\n      add\n        /* \"#utility.yul\":2724:2751   */\n      slt\n        /* \"#utility.yul\":2714:2836   */\n      tag_124\n      jumpi\n        /* \"#utility.yul\":2755:2834   */\n      tag_125\n      tag_57\n      jump\t// in\n    tag_125:\n        /* \"#utility.yul\":2714:2836   */\n    tag_124:\n        /* \"#utility.yul\":2872:2878   */\n      dup2\n        /* \"#utility.yul\":2859:2879   */\n      calldataload\n        /* \"#utility.yul\":2897:2976   */\n      tag_126\n        /* \"#utility.yul\":2972:2975   */\n      dup5\n        /* \"#utility.yul\":2964:2970   */\n      dup3\n        /* \"#utility.yul\":2957:2961   */\n      0x20\n        /* \"#utility.yul\":2949:2955   */\n      dup7\n        /* \"#utility.yul\":2945:2962   */\n      add\n        /* \"#utility.yul\":2897:2976   */\n      tag_65\n      jump\t// in\n    tag_126:\n        /* \"#utility.yul\":2888:2976   */\n      swap2\n      pop\n        /* \"#utility.yul\":2704:2982   */\n      pop\n        /* \"#utility.yul\":2642:2982   */\n      swap3\n      swap2\n      pop\n      pop\n      jump\t// out\n        /* \"#utility.yul\":2988:3497   */\n    tag_15:\n        /* \"#utility.yul\":3057:3063   */\n      0x00\n        /* \"#utility.yul\":3106:3108   */\n      0x20\n        /* \"#utility.yul\":3094:3103   */\n      dup3\n        /* \"#utility.yul\":3085:3092   */\n      dup5\n        /* \"#utility.yul\":3081:3104   */\n      sub\n        /* \"#utility.yul\":3077:3109   */\n      slt\n        /* \"#utility.yul\":3074:3193   */\n      iszero\n      tag_128\n      jumpi\n        /* \"#utility.yul\":3112:3191   */\n      tag_129\n      tag_55\n      jump\t// in\n    tag_129:\n        /* \"#utility.yul\":3074:3193   */\n    tag_128:\n        /* \"#utility.yul\":3260:3261   */\n      0x00\n        /* \"#utility.yul\":3249:3258   */\n      dup3\n        /* \"#utility.yul\":3245:3262   */\n      add\n        /* \"#utility.yul\":3232:3263   */\n      calldataload\n        /* \"#utility.yul\":3290:3308   */\n      0xffffffffffffffff\n        /* \"#utility.yul\":3282:3288   */\n      dup2\n        /* \"#utility.yul\":3279:3309   */\n      gt\n        /* \"#utility.yul\":3276:3393   */\n      iszero\n      tag_130\n      jumpi\n        /* \"#utility.yul\":3312:3391   */\n      tag_131\n      tag_56\n      jump\t// in\n    tag_131:\n        /* \"#utility.yul\":3276:3393   */\n    tag_130:\n        /* \"#utility.yul\":3417:3480   */\n      tag_132\n        /* \"#utility.yul\":3472:3479   */\n      dup5\n        /* \"#utility.yul\":3463:3469   */\n      dup3\n        /* \"#utility.yul\":3452:3461   */\n      dup6\n        /* \"#utility.yul\":3448:3470   */\n      add\n        /* \"#utility.yul\":3417:3480   */\n      tag_66\n      jump\t// in\n    tag_132:\n        /* \"#utility.yul\":3407:3480   */\n      swap2\n      pop\n        /* \"#utility.yul\":3203:3490   */\n      pop\n        /* \"#utility.yul\":2988:3497   */\n      swap3\n      swap2\n      pop\n      pop\n      jump\t// out\n        /* \"#utility.yul\":3503:3625   */\n    tag_67:\n        /* \"#utility.yul\":3576:3600   */\n      tag_134\n        /* \"#utility.yul\":3594:3599   */\n      dup2\n        /* \"#utility.yul\":3576:3600   */\n      tag_52\n      jump\t// in\n    tag_134:\n        /* \"#utility.yul\":3569:3574   */\n      dup2\n        /* \"#utility.yul\":3566:3601   */\n      eq\n        /* \"#utility.yul\":3556:3619   */\n      tag_135\n      jumpi\n        /* \"#utility.yul\":3615:3616   */\n      0x00\n        /* \"#utility.yul\":3612:3613   */\n      dup1\n        /* \"#utility.yul\":3605:3617   */\n      revert\n        /* \"#utility.yul\":3556:3619   */\n    tag_135:\n        /* \"#utility.yul\":3503:3625   */\n      pop\n      jump\t// out\n        /* \"#utility.yul\":3631:3770   */\n    tag_68:\n        /* \"#utility.yul\":3677:3682   */\n      0x00\n        /* \"#utility.yul\":3715:3721   */\n      dup2\n        /* \"#utility.yul\":3702:3722   */\n      calldataload\n        /* \"#utility.yul\":3693:3722   */\n      swap1\n      pop\n        /* \"#utility.yul\":3731:3764   */\n      tag_137\n        /* \"#utility.yul\":3758:3763   */\n      dup2\n        /* \"#utility.yul\":3731:3764   */\n      tag_67\n      jump\t// in\n    tag_137:\n        /* \"#utility.yul\":3631:3770   */\n      swap3\n      swap2\n      pop\n      pop\n      jump\t// out\n        /* \"#utility.yul\":3776:4105   */\n    tag_20:\n        /* \"#utility.yul\":3835:3841   */\n      0x00\n        /* \"#utility.yul\":3884:3886   */\n      0x20\n        /* \"#utility.yul\":3872:3881   */\n      dup3\n        /* \"#utility.yul\":3863:3870   */\n      dup5\n        /* \"#utility.yul\":3859:3882   */\n      sub\n        /* \"#utility.yul\":3855:3887   */\n      slt\n        /* \"#utility.yul\":3852:3971   */\n      iszero\n      tag_139\n      jumpi\n        /* \"#utility.yul\":3890:3969   */\n      tag_140\n      tag_55\n      jump\t// in\n    tag_140:\n        /* \"#utility.yul\":3852:3971   */\n    tag_139:\n        /* \"#utility.yul\":4010:4011   */\n      0x00\n        /* \"#utility.yul\":4035:4088   */\n      tag_141\n        /* \"#utility.yul\":4080:4087   */\n      dup5\n        /* \"#utility.yul\":4071:4077   */\n      dup3\n        /* \"#utility.yul\":4060:4069   */\n      dup6\n        /* \"#utility.yul\":4056:4078   */\n      add\n        /* \"#utility.yul\":4035:4088   */\n      tag_68\n      jump\t// in\n    tag_141:\n        /* \"#utility.yul\":4025:4088   */\n      swap2\n      pop\n        /* \"#utility.yul\":3981:4098   */\n      pop\n        /* \"#utility.yul\":3776:4105   */\n      swap3\n      swap2\n      pop\n      pop\n      jump\t// out\n        /* \"#utility.yul\":4111:4765   */\n    tag_24:\n        /* \"#utility.yul\":4189:4195   */\n      0x00\n        /* \"#utility.yul\":4197:4203   */\n      dup1\n        /* \"#utility.yul\":4246:4248   */\n      0x40\n        /* \"#utility.yul\":4234:4243   */\n      dup4\n        /* \"#utility.yul\":4225:4232   */\n      dup6\n        /* \"#utility.yul\":4221:4244   */\n      sub\n        /* \"#utility.yul\":4217:4249   */\n      slt\n        /* \"#utility.yul\":4214:4333   */\n      iszero\n      tag_143\n      jumpi\n        /* \"#utility.yul\":4252:4331   */\n      tag_144\n      tag_55\n      jump\t// in\n    tag_144:\n        /* \"#utility.yul\":4214:4333   */\n    tag_143:\n        /* \"#utility.yul\":4400:4401   */\n      0x00\n        /* \"#utility.yul\":4389:4398   */\n      dup4\n        /* \"#utility.yul\":4385:4402   */\n      add\n        /* \"#utility.yul\":4372:4403   */\n      calldataload\n        /* \"#utility.yul\":4430:4448   */\n      0xffffffffffffffff\n        /* \"#utility.yul\":4422:4428   */\n      dup2\n        /* \"#utility.yul\":4419:4449   */\n      gt\n        /* \"#utility.yul\":4416:4533   */\n      iszero\n      tag_145\n      jumpi\n        /* \"#utility.yul\":4452:4531   */\n      tag_146\n      tag_56\n      jump\t// in\n    tag_146:\n        /* \"#utility.yul\":4416:4533   */\n    tag_145:\n        /* \"#utility.yul\":4557:4620   */\n      tag_147\n        /* \"#utility.yul\":4612:4619   */\n      dup6\n        /* \"#utility.yul\":4603:4609   */\n      dup3\n        /* \"#utility.yul\":4592:4601   */\n      dup7\n        /* \"#utility.yul\":4588:4610   */\n      add\n        /* \"#utility.yul\":4557:4620   */\n      tag_66\n      jump\t// in\n    tag_147:\n        /* \"#utility.yul\":4547:4620   */\n      swap3\n      pop\n        /* \"#utility.yul\":4343:4630   */\n      pop\n        /* \"#utility.yul\":4669:4671   */\n      0x20\n        /* \"#utility.yul\":4695:4748   */\n      tag_148\n        /* \"#utility.yul\":4740:4747   */\n      dup6\n        /* \"#utility.yul\":4731:4737   */\n      dup3\n        /* \"#utility.yul\":4720:4729   */\n      dup7\n        /* \"#utility.yul\":4716:4738   */\n      add\n        /* \"#utility.yul\":4695:4748   */\n      tag_68\n      jump\t// in\n    tag_148:\n        /* \"#utility.yul\":4685:4748   */\n      swap2\n      pop\n        /* \"#utility.yul\":4640:4758   */\n      pop\n        /* \"#utility.yul\":4111:4765   */\n      swap3\n      pop\n      swap3\n      swap1\n      pop\n      jump\t// out\n        /* \"#utility.yul\":4771:4870   */\n    tag_69:\n        /* \"#utility.yul\":4823:4829   */\n      0x00\n        /* \"#utility.yul\":4857:4862   */\n      dup2\n        /* \"#utility.yul\":4851:4863   */\n      mload\n        /* \"#utility.yul\":4841:4863   */\n      swap1\n      pop\n        /* \"#utility.yul\":4771:4870   */\n      swap2\n      swap1\n      pop\n      jump\t// out\n        /* \"#utility.yul\":4876:5045   */\n    tag_70:\n        /* \"#utility.yul\":4960:4971   */\n      0x00\n        /* \"#utility.yul\":4994:5000   */\n      dup3\n        /* \"#utility.yul\":4989:4992   */\n      dup3\n        /* \"#utility.yul\":4982:5001   */\n      mstore\n        /* \"#utility.yul\":5034:5038   */\n      0x20\n        /* \"#utility.yul\":5029:5032   */\n      dup3\n        /* \"#utility.yul\":5025:5039   */\n      add\n        /* \"#utility.yul\":5010:5039   */\n      swap1\n      pop\n        /* \"#utility.yul\":4876:5045   */\n      swap3\n      swap2\n      pop\n      pop\n      jump\t// out\n        /* \"#utility.yul\":5051:5297   */\n    tag_71:\n        /* \"#utility.yul\":5132:5133   */\n      0x00\n        /* \"#utility.yul\":5142:5255   */\n    tag_152:\n        /* \"#utility.yul\":5156:5162   */\n      dup4\n        /* \"#utility.yul\":5153:5154   */\n      dup2\n        /* \"#utility.yul\":5150:5163   */\n      lt\n        /* \"#utility.yul\":5142:5255   */\n      iszero\n      tag_154\n      jumpi\n        /* \"#utility.yul\":5241:5242   */\n      dup1\n        /* \"#utility.yul\":5236:5239   */\n      dup3\n        /* \"#utility.yul\":5232:5243   */\n      add\n        /* \"#utility.yul\":5226:5244   */\n      mload\n        /* \"#utility.yul\":5222:5223   */\n      dup2\n        /* \"#utility.yul\":5217:5220   */\n      dup5\n        /* \"#utility.yul\":5213:5224   */\n      add\n        /* \"#utility.yul\":5206:5245   */\n      mstore\n        /* \"#utility.yul\":5178:5180   */\n      0x20\n        /* \"#utility.yul\":5175:5176   */\n      dup2\n        /* \"#utility.yul\":5171:5181   */\n      add\n        /* \"#utility.yul\":5166:5181   */\n      swap1\n      pop\n        /* \"#utility.yul\":5142:5255   */\n      jump(tag_152)\n    tag_154:\n        /* \"#utility.yul\":5289:5290   */\n      0x00\n        /* \"#utility.yul\":5280:5286   */\n      dup5\n        /* \"#utility.yul\":5275:5278   */\n      dup5\n        /* \"#utility.yul\":5271:5287   */\n      add\n        /* \"#utility.yul\":5264:5291   */\n      mstore\n        /* \"#utility.yul\":5113:5297   */\n      pop\n        /* \"#utility.yul\":5051:5297   */\n      pop\n      pop\n      pop\n      jump\t// out\n        /* \"#utility.yul\":5303:5680   */\n    tag_72:\n        /* \"#utility.yul\":5391:5394   */\n      0x00\n        /* \"#utility.yul\":5419:5458   */\n      tag_156\n        /* \"#utility.yul\":5452:5457   */\n      dup3\n        /* \"#utility.yul\":5419:5458   */\n      tag_69\n      jump\t// in\n    tag_156:\n        /* \"#utility.yul\":5474:5545   */\n      tag_157\n        /* \"#utility.yul\":5538:5544   */\n      dup2\n        /* \"#utility.yul\":5533:5536   */\n      dup6\n        /* \"#utility.yul\":5474:5545   */\n      tag_70\n      jump\t// in\n    tag_157:\n        /* \"#utility.yul\":5467:5545   */\n      swap4\n      pop\n        /* \"#utility.yul\":5554:5619   */\n      tag_158\n        /* \"#utility.yul\":5612:5618   */\n      dup2\n        /* \"#utility.yul\":5607:5610   */\n      dup6\n        /* \"#utility.yul\":5600:5604   */\n      0x20\n        /* \"#utility.yul\":5593:5598   */\n      dup7\n        /* \"#utility.yul\":5589:5605   */\n      add\n        /* \"#utility.yul\":5554:5619   */\n      tag_71\n      jump\t// in\n    tag_158:\n        /* \"#utility.yul\":5644:5673   */\n      tag_159\n        /* \"#utility.yul\":5666:5672   */\n      dup2\n        /* \"#utility.yul\":5644:5673   */\n      tag_59\n      jump\t// in\n    tag_159:\n        /* \"#utility.yul\":5639:5642   */\n      dup5\n        /* \"#utility.yul\":5635:5674   */\n      add\n        /* \"#utility.yul\":5628:5674   */\n      swap2\n      pop\n        /* \"#utility.yul\":5395:5680   */\n      pop\n        /* \"#utility.yul\":5303:5680   */\n      swap3\n      swap2\n      pop\n      pop\n      jump\t// out\n        /* \"#utility.yul\":5686:6109   */\n    tag_30:\n        /* \"#utility.yul\":5827:5831   */\n      0x00\n        /* \"#utility.yul\":5865:5867   */\n      0x40\n        /* \"#utility.yul\":5854:5863   */\n      dup3\n        /* \"#utility.yul\":5850:5868   */\n      add\n        /* \"#utility.yul\":5842:5868   */\n      swap1\n      pop\n        /* \"#utility.yul\":5914:5923   */\n      dup2\n        /* \"#utility.yul\":5908:5912   */\n      dup2\n        /* \"#utility.yul\":5904:5924   */\n      sub\n        /* \"#utility.yul\":5900:5901   */\n      0x00\n        /* \"#utility.yul\":5889:5898   */\n      dup4\n        /* \"#utility.yul\":5885:5902   */\n      add\n        /* \"#utility.yul\":5878:5925   */\n      mstore\n        /* \"#utility.yul\":5942:6020   */\n      tag_161\n        /* \"#utility.yul\":6015:6019   */\n      dup2\n        /* \"#utility.yul\":6006:6012   */\n      dup6\n        /* \"#utility.yul\":5942:6020   */\n      tag_72\n      jump\t// in\n    tag_161:\n        /* \"#utility.yul\":5934:6020   */\n      swap1\n      pop\n        /* \"#utility.yul\":6030:6102   */\n      tag_162\n        /* \"#utility.yul\":6098:6100   */\n      0x20\n        /* \"#utility.yul\":6087:6096   */\n      dup4\n        /* \"#utility.yul\":6083:6101   */\n      add\n        /* \"#utility.yul\":6074:6080   */\n      dup5\n        /* \"#utility.yul\":6030:6102   */\n      tag_53\n      jump\t// in\n    tag_162:\n        /* \"#utility.yul\":5686:6109   */\n      swap4\n      swap3\n      pop\n      pop\n      pop\n      jump\t// out\n        /* \"#utility.yul\":6115:6295   */\n    tag_73:\n        /* \"#utility.yul\":6163:6240   */\n      0x4e487b7100000000000000000000000000000000000000000000000000000000\n        /* \"#utility.yul\":6160:6161   */\n      0x00\n        /* \"#utility.yul\":6153:6241   */\n      mstore\n        /* \"#utility.yul\":6260:6264   */\n      0x11\n        /* \"#utility.yul\":6257:6258   */\n      0x04\n        /* \"#utility.yul\":6250:6265   */\n      mstore\n        /* \"#utility.yul\":6284:6288   */\n      0x24\n        /* \"#utility.yul\":6281:6282   */\n      0x00\n        /* \"#utility.yul\":6274:6289   */\n      revert\n        /* \"#utility.yul\":6301:6492   */\n    tag_37:\n        /* \"#utility.yul\":6341:6344   */\n      0x00\n        /* \"#utility.yul\":6360:6380   */\n      tag_165\n        /* \"#utility.yul\":6378:6379   */\n      dup3\n        /* \"#utility.yul\":6360:6380   */\n      tag_52\n      jump\t// in\n    tag_165:\n        /* \"#utility.yul\":6355:6380   */\n      swap2\n      pop\n        /* \"#utility.yul\":6394:6414   */\n      tag_166\n        /* \"#utility.yul\":6412:6413   */\n      dup4\n        /* \"#utility.yul\":6394:6414   */\n      tag_52\n      jump\t// in\n    tag_166:\n        /* \"#utility.yul\":6389:6414   */\n      swap3\n      pop\n        /* \"#utility.yul\":6437:6438   */\n      dup3\n        /* \"#utility.yul\":6434:6435   */\n      dup3\n        /* \"#utility.yul\":6430:6439   */\n      add\n        /* \"#utility.yul\":6423:6439   */\n      swap1\n      pop\n        /* \"#utility.yul\":6458:6461   */\n      dup1\n        /* \"#utility.yul\":6455:6456   */\n      dup3\n        /* \"#utility.yul\":6452:6462   */\n      gt\n        /* \"#utility.yul\":6449:6485   */\n      iszero\n      tag_167\n      jumpi\n        /* \"#utility.yul\":6465:6483   */\n      tag_168\n      tag_73\n      jump\t// in\n    tag_168:\n        /* \"#utility.yul\":6449:6485   */\n    tag_167:\n        /* \"#utility.yul\":6301:6492   */\n      swap3\n      swap2\n      pop\n      pop\n      jump\t// out\n        /* \"#utility.yul\":6498:6678   */\n    tag_74:\n        /* \"#utility.yul\":6546:6623   */\n      0x4e487b7100000000000000000000000000000000000000000000000000000000\n        /* \"#utility.yul\":6543:6544   */\n      0x00\n        /* \"#utility.yul\":6536:6624   */\n      mstore\n        /* \"#utility.yul\":6643:6647   */\n      0x22\n        /* \"#utility.yul\":6640:6641   */\n      0x04\n        /* \"#utility.yul\":6633:6648   */\n      mstore\n        /* \"#utility.yul\":6667:6671   */\n      0x24\n        /* \"#utility.yul\":6664:6665   */\n      0x00\n        /* \"#utility.yul\":6657:6672   */\n      revert\n        /* \"#utility.yul\":6684:7004   */\n    tag_47:\n        /* \"#utility.yul\":6728:6734   */\n      0x00\n        /* \"#utility.yul\":6765:6766   */\n      0x02\n        /* \"#utility.yul\":6759:6763   */\n      dup3\n        /* \"#utility.yul\":6755:6767   */\n      div\n        /* \"#utility.yul\":6745:6767   */\n      swap1\n      pop\n        /* \"#utility.yul\":6812:6813   */\n      0x01\n        /* \"#utility.yul\":6806:6810   */\n      dup3\n        /* \"#utility.yul\":6802:6814   */\n      and\n        /* \"#utility.yul\":6833:6851   */\n      dup1\n        /* \"#utility.yul\":6823:6904   */\n      tag_171\n      jumpi\n        /* \"#utility.yul\":6889:6893   */\n      0x7f\n        /* \"#utility.yul\":6881:6887   */\n      dup3\n        /* \"#utility.yul\":6877:6894   */\n      and\n        /* \"#utility.yul\":6867:6894   */\n      swap2\n      pop\n        /* \"#utility.yul\":6823:6904   */\n    tag_171:\n        /* \"#utility.yul\":6951:6953   */\n      0x20\n        /* \"#utility.yul\":6943:6949   */\n      dup3\n        /* \"#utility.yul\":6940:6954   */\n      lt\n        /* \"#utility.yul\":6920:6938   */\n      dup2\n        /* \"#utility.yul\":6917:6955   */\n      sub\n        /* \"#utility.yul\":6914:6998   */\n      tag_172\n      jumpi\n        /* \"#utility.yul\":6970:6988   */\n      tag_173\n      tag_74\n      jump\t// in\n    tag_173:\n        /* \"#utility.yul\":6914:6998   */\n    tag_172:\n        /* \"#utility.yul\":6735:7004   */\n      pop\n        /* \"#utility.yul\":6684:7004   */\n      swap2\n      swap1\n      pop\n      jump\t// out\n        /* \"#utility.yul\":7010:7151   */\n    tag_75:\n        /* \"#utility.yul\":7059:7063   */\n      0x00\n        /* \"#utility.yul\":7082:7085   */\n      dup2\n        /* \"#utility.yul\":7074:7085   */\n      swap1\n      pop\n        /* \"#utility.yul\":7105:7108   */\n      dup2\n        /* \"#utility.yul\":7102:7103   */\n      0x00\n        /* \"#utility.yul\":7095:7109   */\n      mstore\n        /* \"#utility.yul\":7139:7143   */\n      0x20\n        /* \"#utility.yul\":7136:7137   */\n      0x00\n        /* \"#utility.yul\":7126:7144   */\n      keccak256\n        /* \"#utility.yul\":7118:7144   */\n      swap1\n      pop\n        /* \"#utility.yul\":7010:7151   */\n      swap2\n      swap1\n      pop\n      jump\t// out\n        /* \"#utility.yul\":7157:7250   */\n    tag_76:\n        /* \"#utility.yul\":7194:7200   */\n      0x00\n        /* \"#utility.yul\":7241:7243   */\n      0x20\n        /* \"#utility.yul\":7236:7238   */\n      0x1f\n        /* \"#utility.yul\":7229:7234   */\n      dup4\n        /* \"#utility.yul\":7225:7239   */\n      add\n        /* \"#utility.yul\":7221:7244   */\n      div\n        /* \"#utility.yul\":7211:7244   */\n      swap1\n      pop\n        /* \"#utility.yul\":7157:7250   */\n      swap2\n      swap1\n      pop\n      jump\t// out\n        /* \"#utility.yul\":7256:7363   */\n    tag_77:\n        /* \"#utility.yul\":7300:7308   */\n      0x00\n        /* \"#utility.yul\":7350:7355   */\n      dup3\n        /* \"#utility.yul\":7344:7348   */\n      dup3\n        /* \"#utility.yul\":7340:7356   */\n      shl\n        /* \"#utility.yul\":7319:7356   */\n      swap1\n      pop\n        /* \"#utility.yul\":7256:7363   */\n      swap3\n      swap2\n      pop\n      pop\n      jump\t// out\n        /* \"#utility.yul\":7369:7762   */\n    tag_78:\n        /* \"#utility.yul\":7438:7444   */\n      0x00\n        /* \"#utility.yul\":7488:7489   */\n      0x08\n        /* \"#utility.yul\":7476:7486   */\n      dup4\n        /* \"#utility.yul\":7472:7490   */\n      mul\n        /* \"#utility.yul\":7511:7608   */\n      tag_178\n        /* \"#utility.yul\":7541:7607   */\n      0xffffffffffffffffffffffffffffffffffffffffffffffffffffffffffffffff\n        /* \"#utility.yul\":7530:7539   */\n      dup3\n        /* \"#utility.yul\":7511:7608   */\n      tag_77\n      jump\t// in\n    tag_178:\n        /* \"#utility.yul\":7629:7668   */\n      tag_179\n        /* \"#utility.yul\":7659:7667   */\n      dup7\n        /* \"#utility.yul\":7648:7657   */\n      dup4\n        /* \"#utility.yul\":7629:7668   */\n      tag_77\n      jump\t// in\n    tag_179:\n        /* \"#utility.yul\":7617:7668   */\n      swap6\n      pop\n        /* \"#utility.yul\":7701:7705   */\n      dup1\n        /* \"#utility.yul\":7697:7706   */\n      not\n        /* \"#utility.yul\":7690:7695   */\n      dup5\n        /* \"#utility.yul\":7686:7707   */\n      and\n        /* \"#utility.yul\":7677:7707   */\n      swap4\n      pop\n        /* \"#utility.yul\":7750:7754   */\n      dup1\n        /* \"#utility.yul\":7740:7748   */\n      dup7\n        /* \"#utility.yul\":7736:7755   */\n      and\n        /* \"#utility.yul\":7729:7734   */\n      dup5\n        /* \"#utility.yul\":7726:7756   */\n      or\n        /* \"#utility.yul\":7716:7756   */\n      swap3\n      pop\n        /* \"#utility.yul\":7445:7762   */\n      pop\n      pop\n        /* \"#utility.yul\":7369:7762   */\n      swap4\n      swap3\n      pop\n      pop\n      pop\n      jump\t// out\n        /* \"#utility.yul\":7768:7828   */\n    tag_79:\n        /* \"#utility.yul\":7796:7799   */\n      0x00\n        /* \"#utility.yul\":7817:7822   */\n      dup2\n        /* \"#utility.yul\":7810:7822   */\n      swap1\n      pop\n        /* \"#utility.yul\":7768:7828   */\n      swap2\n      swap1\n      pop\n      jump\t// out\n        /* \"#utility.yul\":7834:7976   */\n    tag_80:\n        /* \"#utility.yul\":7884:7893   */\n      0x00\n        /* \"#utility.yul\":7917:7970   */\n      tag_182\n        /* \"#utility.yul\":7935:7969   */\n      tag_183\n        /* \"#utility.yul\":7944:7968   */\n      tag_184\n        /* \"#utility.yul\":7962:7967   */\n      dup5\n        /* \"#utility.yul\":7944:7968   */\n      tag_52\n      jump\t// in\n    tag_184:\n        /* \"#utility.yul\":7935:7969   */\n      tag_79\n      jump\t// in\n    tag_183:\n        /* \"#utility.yul\":7917:7970   */\n      tag_52\n      jump\t// in\n    tag_182:\n        /* \"#utility.yul\":7904:7970   */\n      swap1\n      pop\n        /* \"#utility.yul\":7834:7976   */\n      swap2\n      swap1\n      pop\n      jump\t// out\n        /* \"#utility.yul\":7982:8057   */\n    tag_81:\n        /* \"#utility.yul\":8025:8028   */\n      0x00\n        /* \"#utility.yul\":8046:8051   */\n      dup2\n        /* \"#utility.yul\":8039:8051   */\n      swap1\n      pop\n        /* \"#utility.yul\":7982:8057   */\n      swap2\n      swap1\n      pop\n      jump\t// out\n        /* \"#utility.yul\":8063:8332   */\n    tag_82:\n        /* \"#utility.yul\":8173:8212   */\n      tag_187\n        /* \"#utility.yul\":8204:8211   */\n      dup4\n        /* \"#utility.yul\":8173:8212   */\n      tag_80\n      jump\t// in\n    tag_187:\n        /* \"#utility.yul\":8234:8325   */\n      tag_188\n        /* \"#utility.yul\":8283:8324   */\n      tag_189\n        /* \"#utility.yul\":8307:8323   */\n      dup3\n        /* \"#utility.yul\":8283:8324   */\n      tag_81\n      jump\t// in\n    tag_189:\n        /* \"#utility.yul\":8275:8281   */\n      dup5\n        /* \"#utility.yul\":8268:8272   */\n      dup5\n        /* \"#utility.yul\":8262:8273   */\n      sload\n        /* \"#utility.yul\":8234:8325   */\n      tag_78\n      jump\t// in\n    tag_188:\n        /* \"#utility.yul\":8228:8232   */\n      dup3\n        /* \"#utility.yul\":8221:8326   */\n      sstore\n        /* \"#utility.yul\":8139:8332   */\n      pop\n        /* \"#utility.yul\":8063:8332   */\n      pop\n      pop\n      pop\n      jump\t// out\n        /* \"#utility.yul\":8338:8411   */\n    tag_83:\n        /* \"#utility.yul\":8383:8386   */\n      0x00\n        /* \"#utility.yul\":8338:8411   */\n      swap1\n      jump\t// out\n        /* \"#utility.yul\":8417:8606   */\n    tag_84:\n        /* \"#utility.yul\":8494:8526   */\n      tag_192\n      tag_83\n      jump\t// in\n    tag_192:\n        /* \"#utility.yul\":8535:8600   */\n      tag_193\n        /* \"#utility.yul\":8593:8599   */\n      dup2\n        /* \"#utility.yul\":8585:8591   */\n      dup5\n        /* \"#utility.yul\":8579:8583   */\n      dup5\n        /* \"#utility.yul\":8535:8600   */\n      tag_82\n      jump\t// in\n    tag_193:\n        /* \"#utility.yul\":8470:8606   */\n      pop\n        /* \"#utility.yul\":8417:8606   */\n      pop\n      pop\n      jump\t// out\n        /* \"#utility.yul\":8612:8798   */\n    tag_85:\n        /* \"#utility.yul\":8672:8792   */\n    tag_195:\n        /* \"#utility.yul\":8689:8692   */\n      dup2\n        /* \"#utility.yul\":8682:8687   */\n      dup2\n        /* \"#utility.yul\":8679:8693   */\n      lt\n        /* \"#utility.yul\":8672:8792   */\n      iszero\n      tag_197\n      jumpi\n        /* \"#utility.yul\":8743:8782   */\n      tag_198\n        /* \"#utility.yul\":8780:8781   */\n      0x00\n        /* \"#utility.yul\":8773:8778   */\n      dup3\n        /* \"#utility.yul\":8743:8782   */\n      tag_84\n      jump\t// in\n    tag_198:\n        /* \"#utility.yul\":8716:8717   */\n      0x01\n        /* \"#utility.yul\":8709:8714   */\n      dup2\n        /* \"#utility.yul\":8705:8718   */\n      add\n        /* \"#utility.yul\":8696:8718   */\n      swap1\n      pop\n        /* \"#utility.yul\":8672:8792   */\n      jump(tag_195)\n    tag_197:\n        /* \"#utility.yul\":8612:8798   */\n      pop\n      pop\n      jump\t// out\n        /* \"#utility.yul\":8804:9347   */\n    tag_86:\n        /* \"#utility.yul\":8905:8907   */\n      0x1f\n        /* \"#utility.yul\":8900:8903   */\n      dup3\n        /* \"#utility.yul\":8897:8908   */\n      gt\n        /* \"#utility.yul\":8894:9340   */\n      iszero\n      tag_200\n      jumpi\n        /* \"#utility.yul\":8939:8977   */\n      tag_201\n        /* \"#utility.yul\":8971:8976   */\n      dup2\n        /* \"#utility.yul\":8939:8977   */\n      tag_75\n      jump\t// in\n    tag_201:\n        /* \"#utility.yul\":9023:9052   */\n      tag_202\n        /* \"#utility.yul\":9041:9051   */\n      dup5\n        /* \"#utility.yul\":9023:9052   */\n      tag_76\n      jump\t// in\n    tag_202:\n        /* \"#utility.yul\":9013:9021   */\n      dup2\n        /* \"#utility.yul\":9009:9053   */\n      add\n        /* \"#utility.yul\":9206:9208   */\n      0x20\n        /* \"#utility.yul\":9194:9204   */\n      dup6\n        /* \"#utility.yul\":9191:9209   */\n      lt\n        /* \"#utility.yul\":9188:9237   */\n      iszero\n      tag_203\n      jumpi\n        /* \"#utility.yul\":9227:9235   */\n      dup2\n        /* \"#utility.yul\":9212:9235   */\n      swap1\n      pop\n        /* \"#utility.yul\":9188:9237   */\n    tag_203:\n        /* \"#utility.yul\":9250:9330   */\n      tag_204\n        /* \"#utility.yul\":9306:9328   */\n      tag_205\n        /* \"#utility.yul\":9324:9327   */\n      dup6\n        /* \"#utility.yul\":9306:9328   */\n      tag_76\n      jump\t// in\n    tag_205:\n        /* \"#utility.yul\":9296:9304   */\n      dup4\n        /* \"#utility.yul\":9292:9329   */\n      add\n        /* \"#utility.yul\":9279:9290   */\n      dup3\n        /* \"#utility.yul\":9250:9330   */\n      tag_85\n      jump\t// in\n    tag_204:\n        /* \"#utility.yul\":8909:9340   */\n      pop\n      pop\n        /* \"#utility.yul\":8894:9340   */\n    tag_200:\n        /* \"#utility.yul\":8804:9347   */\n      pop\n      pop\n      pop\n      jump\t// out\n        /* \"#utility.yul\":9353:9470   */\n    tag_87:\n        /* \"#utility.yul\":9407:9415   */\n      0x00\n        /* \"#utility.yul\":9457:9462   */\n      dup3\n        /* \"#utility.yul\":9451:9455   */\n      dup3\n        /* \"#utility.yul\":9447:9463   */\n      shr\n        /* \"#utility.yul\":9426:9463   */\n      swap1\n      pop\n        /* \"#utility.yul\":9353:9470   */\n      swap3\n      swap2\n      pop\n      pop\n      jump\t// out\n        /* \"#utility.yul\":9476:9645   */\n    tag_88:\n        /* \"#utility.yul\":9520:9526   */\n      0x00\n        /* \"#utility.yul\":9553:9604   */\n      tag_208\n        /* \"#utility.yul\":9601:9602   */\n      0x00\n        /* \"#utility.yul\":9597:9603   */\n      not\n        /* \"#utility.yul\":9589:9594   */\n      dup5\n        /* \"#utility.yul\":9586:9587   */\n      0x08\n        /* \"#utility.yul\":9582:9595   */\n      mul\n        /* \"#utility.yul\":9553:9604   */\n      tag_87\n      jump\t// in\n    tag_208:\n        /* \"#utility.yul\":9549:9605   */\n      not\n        /* \"#utility.yul\":9634:9638   */\n      dup1\n        /* \"#utility.yul\":9628:9632   */\n      dup4\n        /* \"#utility.yul\":9624:9639   */\n      and\n        /* \"#utility.yul\":9614:9639   */\n      swap2\n      pop\n        /* \"#utility.yul\":9527:9645   */\n      pop\n        /* \"#utility.yul\":9476:9645   */\n      swap3\n      swap2\n      pop\n      pop\n      jump\t// out\n        /* \"#utility.yul\":9650:9945   */\n    tag_89:\n        /* \"#utility.yul\":9726:9730   */\n      0x00\n        /* \"#utility.yul\":9872:9901   */\n      tag_210\n        /* \"#utility.yul\":9897:9900   */\n      dup4\n        /* \"#utility.yul\":9891:9895   */\n      dup4\n        /* \"#utility.yul\":9872:9901   */\n      tag_88\n      jump\t// in\n    tag_210:\n        /* \"#utility.yul\":9864:9901   */\n      swap2\n      pop\n        /* \"#utility.yul\":9934:9937   */\n      dup3\n        /* \"#utility.yul\":9931:9932   */\n      0x02\n        /* \"#utility.yul\":9927:9938   */\n      mul\n        /* \"#utility.yul\":9921:9925   */\n      dup3\n        /* \"#utility.yul\":9918:9939   */\n      or\n        /* \"#utility.yul\":9910:9939   */\n      swap1\n      pop\n        /* \"#utility.yul\":9650:9945   */\n      swap3\n      swap2\n      pop\n      pop\n      jump\t// out\n        /* \"#utility.yul\":9950:11345   */\n    tag_41:\n        /* \"#utility.yul\":10067:10104   */\n      tag_212\n        /* \"#utility.yul\":10100:10103   */\n      dup3\n        /* \"#utility.yul\":10067:10104   */\n      tag_69\n      jump\t// in\n    tag_212:\n        /* \"#utility.yul\":10169:10187   */\n      0xffffffffffffffff\n        /* \"#utility.yul\":10161:10167   */\n      dup2\n        /* \"#utility.yul\":10158:10188   */\n      gt\n        /* \"#utility.yul\":10155:10211   */\n      iszero\n      tag_213\n      jumpi\n        /* \"#utility.yul\":10191:10209   */\n      tag_214\n      tag_60\n      jump\t// in\n    tag_214:\n        /* \"#utility.yul\":10155:10211   */\n    tag_213:\n        /* \"#utility.yul\":10235:10273   */\n      tag_215\n        /* \"#utility.yul\":10267:10271   */\n      dup3\n        /* \"#utility.yul\":10261:10272   */\n      sload\n        /* \"#utility.yul\":10235:10273   */\n      tag_47\n      jump\t// in\n    tag_215:\n        /* \"#utility.yul\":10320:10387   */\n      tag_216\n        /* \"#utility.yul\":10380:10386   */\n      dup3\n        /* \"#utility.yul\":10372:10378   */\n      dup3\n        /* \"#utility.yul\":10366:10370   */\n      dup6\n        /* \"#utility.yul\":10320:10387   */\n      tag_86\n      jump\t// in\n    tag_216:\n        /* \"#utility.yul\":10414:10415   */\n      0x00\n        /* \"#utility.yul\":10438:10442   */\n      0x20\n        /* \"#utility.yul\":10425:10442   */\n      swap1\n      pop\n        /* \"#utility.yul\":10470:10472   */\n      0x1f\n        /* \"#utility.yul\":10462:10468   */\n      dup4\n        /* \"#utility.yul\":10459:10473   */\n      gt\n        /* \"#utility.yul\":10487:10488   */\n      0x01\n        /* \"#utility.yul\":10482:11100   */\n      dup2\n      eq\n      tag_218\n      jumpi\n        /* \"#utility.yul\":11144:11145   */\n      0x00\n        /* \"#utility.yul\":11161:11167   */\n      dup5\n        /* \"#utility.yul\":11158:11235   */\n      iszero\n      tag_219\n      jumpi\n        /* \"#utility.yul\":11210:11219   */\n      dup3\n        /* \"#utility.yul\":11205:11208   */\n      dup8\n        /* \"#utility.yul\":11201:11220   */\n      add\n        /* \"#utility.yul\":11195:11221   */\n      mload\n        /* \"#utility.yul\":11186:11221   */\n      swap1\n      pop\n        /* \"#utility.yul\":11158:11235   */\n    tag_219:\n        /* \"#utility.yul\":11261:11328   */\n      tag_220\n        /* \"#utility.yul\":11321:11327   */\n      dup6\n        /* \"#utility.yul\":11314:11319   */\n      dup3\n        /* \"#utility.yul\":11261:11328   */\n      tag_89\n      jump\t// in\n    tag_220:\n        /* \"#utility.yul\":11255:11259   */\n      dup7\n        /* \"#utility.yul\":11248:11329   */\n      sstore\n        /* \"#utility.yul\":11117:11339   */\n      pop\n        /* \"#utility.yul\":10452:11339   */\n      jump(tag_217)\n        /* \"#utility.yul\":10482:11100   */\n    tag_218:\n        /* \"#utility.yul\":10534:10538   */\n      0x1f\n        /* \"#utility.yul\":10530:10539   */\n      not\n        /* \"#utility.yul\":10522:10528   */\n      dup5\n        /* \"#utility.yul\":10518:10540   */\n      and\n        /* \"#utility.yul\":10568:10605   */\n      tag_221\n        /* \"#utility.yul\":10600:10604   */\n      dup7\n        /* \"#utility.yul\":10568:10605   */\n      tag_75\n      jump\t// in\n    tag_221:\n        /* \"#utility.yul\":10627:10628   */\n      0x00\n        /* \"#utility.yul\":10641:10849   */\n    tag_222:\n        /* \"#utility.yul\":10655:10662   */\n      dup3\n        /* \"#utility.yul\":10652:10653   */\n      dup2\n        /* \"#utility.yul\":10649:10663   */\n      lt\n        /* \"#utility.yul\":10641:10849   */\n      iszero\n      tag_224\n      jumpi\n        /* \"#utility.yul\":10734:10743   */\n      dup5\n        /* \"#utility.yul\":10729:10732   */\n      dup10\n        /* \"#utility.yul\":10725:10744   */\n      add\n        /* \"#utility.yul\":10719:10745   */\n      mload\n        /* \"#utility.yul\":10711:10717   */\n      dup3\n        /* \"#utility.yul\":10704:10746   */\n      sstore\n        /* \"#utility.yul\":10785:10786   */\n      0x01\n        /* \"#utility.yul\":10777:10783   */\n      dup3\n        /* \"#utility.yul\":10773:10787   */\n      add\n        /* \"#utility.yul\":10763:10787   */\n      swap2\n      pop\n        /* \"#utility.yul\":10832:10834   */\n      0x20\n        /* \"#utility.yul\":10821:10830   */\n      dup6\n        /* \"#utility.yul\":10817:10835   */\n      add\n        /* \"#utility.yul\":10804:10835   */\n      swap5\n      pop\n        /* \"#utility.yul\":10678:10682   */\n      0x20\n        /* \"#utility.yul\":10675:10676   */\n      dup2\n        /* \"#utility.yul\":10671:10683   */\n      add\n        /* \"#utility.yul\":10666:10683   */\n      swap1\n      pop\n        /* \"#utility.yul\":10641:10849   */\n      jump(tag_222)\n    tag_224:\n        /* \"#utility.yul\":10877:10883   */\n      dup7\n        /* \"#utility.yul\":10868:10875   */\n      dup4\n        /* \"#utility.yul\":10865:10884   */\n      lt\n        /* \"#utility.yul\":10862:11041   */\n      iszero\n      tag_225\n      jumpi\n        /* \"#utility.yul\":10935:10944   */\n      dup5\n        /* \"#utility.yul\":10930:10933   */\n      dup10\n        /* \"#utility.yul\":10926:10945   */\n      add\n        /* \"#utility.yul\":10920:10946   */\n      mload\n        /* \"#utility.yul\":10978:11026   */\n      tag_226\n        /* \"#utility.yul\":11020:11024   */\n      0x1f\n        /* \"#utility.yul\":11012:11018   */\n      dup10\n        /* \"#utility.yul\":11008:11025   */\n      and\n        /* \"#utility.yul\":10997:11006   */\n      dup3\n        /* \"#utility.yul\":10978:11026   */\n      tag_88\n      jump\t// in\n    tag_226:\n        /* \"#utility.yul\":10970:10976   */\n      dup4\n        /* \"#utility.yul\":10963:11027   */\n      sstore\n        /* \"#utility.yul\":10885:11041   */\n      pop\n        /* \"#utility.yul\":10862:11041   */\n    tag_225:\n        /* \"#utility.yul\":11087:11088   */\n      0x01\n        /* \"#utility.yul\":11083:11084   */\n      0x02\n        /* \"#utility.yul\":11075:11081   */\n      dup9\n        /* \"#utility.yul\":11071:11085   */\n      mul\n        /* \"#utility.yul\":11067:11089   */\n      add\n        /* \"#utility.yul\":11061:11065   */\n      dup9\n        /* \"#utility.yul\":11054:11090   */\n      sstore\n        /* \"#utility.yul\":10489:11100   */\n      pop\n      pop\n      pop\n        /* \"#utility.yul\":10452:11339   */\n    tag_217:\n      pop\n        /* \"#utility.yul\":10042:11345   */\n      pop\n      pop\n      pop\n        /* \"#utility.yul\":9950:11345   */\n      pop\n      pop\n      jump\t// out\n        /* \"#utility.yul\":11351:11499   */\n    tag_90:\n        /* \"#utility.yul\":11453:11464   */\n      0x00\n        /* \"#utility.yul\":11490:11493   */\n      dup2\n        /* \"#utility.yul\":11475:11493   */\n      swap1\n      pop\n        /* \"#utility.yul\":11351:11499   */\n      swap3\n      swap2\n      pop\n      pop\n      jump\t// out\n        /* \"#utility.yul\":11505:11895   */\n    tag_91:\n        /* \"#utility.yul\":11611:11614   */\n      0x00\n        /* \"#utility.yul\":11639:11678   */\n      tag_229\n        /* \"#utility.yul\":11672:11677   */\n      dup3\n        /* \"#utility.yul\":11639:11678   */\n      tag_69\n      jump\t// in\n    tag_229:\n        /* \"#utility.yul\":11694:11783   */\n      tag_230\n        /* \"#utility.yul\":11776:11782   */\n      dup2\n        /* \"#utility.yul\":11771:11774   */\n      dup6\n        /* \"#utility.yul\":11694:11783   */\n      tag_90\n      jump\t// in\n    tag_230:\n        /* \"#utility.yul\":11687:11783   */\n      swap4\n      pop\n        /* \"#utility.yul\":11792:11857   */\n      tag_231\n        /* \"#utility.yul\":11850:11856   */\n      dup2\n        /* \"#utility.yul\":11845:11848   */\n      dup6\n        /* \"#utility.yul\":11838:11842   */\n      0x20\n        /* \"#utility.yul\":11831:11836   */\n      dup7\n        /* \"#utility.yul\":11827:11843   */\n      add\n        /* \"#utility.yul\":11792:11857   */\n      tag_71\n      jump\t// in\n    tag_231:\n        /* \"#utility.yul\":11882:11888   */\n      dup1\n        /* \"#utility.yul\":11877:11880   */\n      dup5\n        /* \"#utility.yul\":11873:11889   */\n      add\n        /* \"#utility.yul\":11866:11889   */\n      swap2\n      pop\n        /* \"#utility.yul\":11615:11895   */\n      pop\n        /* \"#utility.yul\":11505:11895   */\n      swap3\n      swap2\n      pop\n      pop\n      jump\t// out\n        /* \"#utility.yul\":11901:12176   */\n    tag_43:\n        /* \"#utility.yul\":12033:12036   */\n      0x00\n        /* \"#utility.yul\":12055:12150   */\n      tag_233\n        /* \"#utility.yul\":12146:12149   */\n      dup3\n        /* \"#utility.yul\":12137:12143   */\n      dup5\n        /* \"#utility.yul\":12055:12150   */\n      tag_91\n      jump\t// in\n    tag_233:\n        /* \"#utility.yul\":12048:12150   */\n      swap2\n      pop\n        /* \"#utility.yul\":12167:12170   */\n      dup2\n        /* \"#utility.yul\":12160:12170   */\n      swap1\n      pop\n        /* \"#utility.yul\":11901:12176   */\n      swap3\n      swap2\n      pop\n      pop\n      jump\t// out\n\n    auxdata: 0xa2646970667358221220ca5b6922607d6707e8fc789c4505e4ad77609e40bf07c8a5b5c38d7daa1d8ebe64736f6c63430008160033\n}\n",
				"bytecode": {
					"linkReferences": {},
					"object": "608060405234801561000f575f80fd5b506109918061001d5f395ff3fe608060405234801561000f575f80fd5b5060043610610060575f3560e01c80632e64cec1146100645780635ded0c0d146100825780636057361d146100b25780636f760f41146100ce5780639e7a13ad146100ea578063e566c67d1461011b575b5f80fd5b61006c610139565b60405161007991906102de565b60405180910390f35b61009c60048036038101906100979190610444565b610141565b6040516100a991906102de565b60405180910390f35b6100cc60048036038101906100c791906104b5565b61016e565b005b6100e860048036038101906100e391906104e0565b610183565b005b61010460048036038101906100ff91906104b5565b61020c565b6040516101129291906105b4565b60405180910390f35b6101236102c1565b60405161013091906102de565b60405180910390f35b5f8054905090565b6002818051602081018201805184825260208301602085012081835280955050505050505f915090505481565b60058161017b919061060f565b5f8190555050565b5f6040518060400160405280848152602001838152509050600181908060018154018082558091505060019003905f5260205f2090600202015f909190919091505f820151815f0190816101d7919061083c565b50602082015181600101555050816002846040516101f59190610945565b908152602001604051809103902081905550505050565b6001818154811061021b575f80fd5b905f5260205f2090600202015f91509050805f01805461023a9061066f565b80601f01602080910402602001604051908101604052809291908181526020018280546102669061066f565b80156102b15780601f10610288576101008083540402835291602001916102b1565b820191905f5260205f20905b81548152906001019060200180831161029457829003601f168201915b5050505050908060010154905082565b5f5481565b5f819050919050565b6102d8816102c6565b82525050565b5f6020820190506102f15f8301846102cf565b92915050565b5f604051905090565b5f80fd5b5f80fd5b5f80fd5b5f80fd5b5f601f19601f8301169050919050565b7f4e487b71000000000000000000000000000000000000000000000000000000005f52604160045260245ffd5b61035682610310565b810181811067ffffffffffffffff8211171561037557610374610320565b5b80604052505050565b5f6103876102f7565b9050610393828261034d565b919050565b5f67ffffffffffffffff8211156103b2576103b1610320565b5b6103bb82610310565b9050602081019050919050565b828183375f83830152505050565b5f6103e86103e384610398565b61037e565b9050828152602081018484840111156104045761040361030c565b5b61040f8482856103c8565b509392505050565b5f82601f83011261042b5761042a610308565b5b813561043b8482602086016103d6565b91505092915050565b5f6020828403121561045957610458610300565b5b5f82013567ffffffffffffffff81111561047657610475610304565b5b61048284828501610417565b91505092915050565b610494816102c6565b811461049e575f80fd5b50565b5f813590506104af8161048b565b92915050565b5f602082840312156104ca576104c9610300565b5b5f6104d7848285016104a1565b91505092915050565b5f80604083850312156104f6576104f5610300565b5b5f83013567ffffffffffffffff81111561051357610512610304565b5b61051f85828601610417565b9250506020610530858286016104a1565b9150509250929050565b5f81519050919050565b5f82825260208201905092915050565b5f5b83811015610571578082015181840152602081019050610556565b5f8484015250505050565b5f6105868261053a565b6105908185610544565b93506105a0818560208601610554565b6105a981610310565b840191505092915050565b5f6040820190508181035f8301526105cc818561057c565b90506105db60208301846102cf565b9392505050565b7f4e487b71000000000000000000000000000000000000000000000000000000005f52601160045260245ffd5b5f610619826102c6565b9150610624836102c6565b925082820190508082111561063c5761063b6105e2565b5b92915050565b7f4e487b71000000000000000000000000000000000000000000000000000000005f52602260045260245ffd5b5f600282049050600182168061068657607f821691505b60208210810361069957610698610642565b5b50919050565b5f819050815f5260205f209050919050565b5f6020601f8301049050919050565b5f82821b905092915050565b5f600883026106fb7fffffffffffffffffffffffffffffffffffffffffffffffffffffffffffffffff826106c0565b61070586836106c0565b95508019841693508086168417925050509392505050565b5f819050919050565b5f61074061073b610736846102c6565b61071d565b6102c6565b9050919050565b5f819050919050565b61075983610726565b61076d61076582610747565b8484546106cc565b825550505050565b5f90565b610781610775565b61078c818484610750565b505050565b5b818110156107af576107a45f82610779565b600181019050610792565b5050565b601f8211156107f4576107c58161069f565b6107ce846106b1565b810160208510156107dd578190505b6107f16107e9856106b1565b830182610791565b50505b505050565b5f82821c905092915050565b5f6108145f19846008026107f9565b1980831691505092915050565b5f61082c8383610805565b9150826002028217905092915050565b6108458261053a565b67ffffffffffffffff81111561085e5761085d610320565b5b610868825461066f565b6108738282856107b3565b5f60209050601f8311600181146108a4575f8415610892578287015190505b61089c8582610821565b865550610903565b601f1984166108b28661069f565b5f5b828110156108d9578489015182556001820191506020850194506020810190506108b4565b868310156108f657848901516108f2601f891682610805565b8355505b6001600288020188555050505b505050505050565b5f81905092915050565b5f61091f8261053a565b610929818561090b565b9350610939818560208601610554565b80840191505092915050565b5f6109508284610915565b91508190509291505056fea2646970667358221220ca5b6922607d6707e8fc789c4505e4ad77609e40bf07c8a5b5c38d7daa1d8ebe64736f6c63430008160033",
					"opcodes": "PUSH1 0x80 PUSH1 0x40 MSTORE CALLVALUE DUP1 ISZERO PUSH2 0xF JUMPI PUSH0 DUP1 REVERT JUMPDEST POP PUSH2 0x991 DUP1 PUSH2 0x1D PUSH0 CODECOPY PUSH0 RETURN INVALID PUSH1 0x80 PUSH1 0x40 MSTORE CALLVALUE DUP1 ISZERO PUSH2 0xF JUMPI PUSH0 DUP1 REVERT JUMPDEST POP PUSH1 0x4 CALLDATASIZE LT PUSH2 0x60 JUMPI PUSH0 CALLDATALOAD PUSH1 0xE0 SHR DUP1 PUSH4 0x2E64CEC1 EQ PUSH2 0x64 JUMPI DUP1 PUSH4 0x5DED0C0D EQ PUSH2 0x82 JUMPI DUP1 PUSH4 0x6057361D EQ PUSH2 0xB2 JUMPI DUP1 PUSH4 0x6F760F41 EQ PUSH2 0xCE JUMPI DUP1 PUSH4 0x9E7A13AD EQ PUSH2 0xEA JUMPI DUP1 PUSH4 0xE566C67D EQ PUSH2 0x11B JUMPI JUMPDEST PUSH0 DUP1 REVERT JUMPDEST PUSH2 0x6C PUSH2 0x139 JUMP JUMPDEST PUSH1 0x40 MLOAD PUSH2 0x79 SWAP2 SWAP1 PUSH2 0x2DE JUMP JUMPDEST PUSH1 0x40 MLOAD DUP1 SWAP2 SUB SWAP1 RETURN JUMPDEST PUSH2 0x9C PUSH1 0x4 DUP1 CALLDATASIZE SUB DUP2 ADD SWAP1 PUSH2 0x97 SWAP2 SWAP1 PUSH2 0x444 JUMP JUMPDEST PUSH2 0x141 JUMP JUMPDEST PUSH1 0x40 MLOAD PUSH2 0xA9 SWAP2 SWAP1 PUSH2 0x2DE JUMP JUMPDEST PUSH1 0x40 MLOAD DUP1 SWAP2 SUB SWAP1 RETURN JUMPDEST PUSH2 0xCC PUSH1 0x4 DUP1 CALLDATASIZE SUB DUP2 ADD SWAP1 PUSH2 0xC7 SWAP2 SWAP1 PUSH2 0x4B5 JUMP JUMPDEST PUSH2 0x16E JUMP JUMPDEST STOP JUMPDEST PUSH2 0xE8 PUSH1 0x4 DUP1 CALLDATASIZE SUB DUP2 ADD SWAP1 PUSH2 0xE3 SWAP2 SWAP1 PUSH2 0x4E0 JUMP JUMPDEST PUSH2 0x183 JUMP JUMPDEST STOP JUMPDEST PUSH2 0x104 PUSH1 0x4 DUP1 CALLDATASIZE SUB DUP2 ADD SWAP1 PUSH2 0xFF SWAP2 SWAP1 PUSH2 0x4B5 JUMP JUMPDEST PUSH2 0x20C JUMP JUMPDEST PUSH1 0x40 MLOAD PUSH2 0x112 SWAP3 SWAP2 SWAP1 PUSH2 0x5B4 JUMP JUMPDEST PUSH1 0x40 MLOAD DUP1 SWAP2 SUB SWAP1 RETURN JUMPDEST PUSH2 0x123 PUSH2 0x2C1 JUMP JUMPDEST PUSH1 0x40 MLOAD PUSH2 0x130 SWAP2 SWAP1 PUSH2 0x2DE JUMP JUMPDEST PUSH1 0x40 MLOAD DUP1 SWAP2 SUB SWAP1 RETURN JUMPDEST PUSH0 DUP1 SLOAD SWAP1 POP SWAP1 JUMP JUMPDEST PUSH1 0x2 DUP2 DUP1 MLOAD PUSH1 0x20 DUP2 ADD DUP3 ADD DUP1 MLOAD DUP5 DUP3 MSTORE PUSH1 0x20 DUP4 ADD PUSH1 0x20 DUP6 ADD KECCAK256 DUP2 DUP4 MSTORE DUP1 SWAP6 POP POP POP POP POP POP PUSH0 SWAP2 POP SWAP1 POP SLOAD DUP2 JUMP JUMPDEST PUSH1 0x5 DUP2 PUSH2 0x17B SWAP2 SWAP1 PUSH2 0x60F JUMP JUMPDEST PUSH0 DUP2 SWAP1 SSTORE POP POP JUMP JUMPDEST PUSH0 PUSH1 0x40 MLOAD DUP1 PUSH1 0x40 ADD PUSH1 0x40 MSTORE DUP1 DUP5 DUP2 MSTORE PUSH1 0x20 ADD DUP4 DUP2 MSTORE POP SWAP1 POP PUSH1 0x1 DUP2 SWAP1 DUP1 PUSH1 0x1 DUP2 SLOAD ADD DUP1 DUP3 SSTORE DUP1 SWAP2 POP POP PUSH1 0x1 SWAP1 SUB SWAP1 PUSH0 MSTORE PUSH1 0x20 PUSH0 KECCAK256 SWAP1 PUSH1 0x2 MUL ADD PUSH0 SWAP1 SWAP2 SWAP1 SWAP2 SWAP1 SWAP2 POP PUSH0 DUP3 ADD MLOAD DUP2 PUSH0 ADD SWAP1 DUP2 PUSH2 0x1D7 SWAP2 SWAP1 PUSH2 0x83C JUMP JUMPDEST POP PUSH1 0x20 DUP3 ADD MLOAD DUP2 PUSH1 0x1 ADD SSTORE POP POP DUP2 PUSH1 0x2 DUP5 PUSH1 0x40 MLOAD PUSH2 0x1F5 SWAP2 SWAP1 PUSH2 0x945 JUMP JUMPDEST SWAP1 DUP2 MSTORE PUSH1 0x20 ADD PUSH1 0x40 MLOAD DUP1 SWAP2 SUB SWAP1 KECCAK256 DUP2 SWAP1 SSTORE POP POP POP POP JUMP JUMPDEST PUSH1 0x1 DUP2 DUP2 SLOAD DUP2 LT PUSH2 0x21B JUMPI PUSH0 DUP1 REVERT JUMPDEST SWAP1 PUSH0 MSTORE PUSH1 0x20 PUSH0 KECCAK256 SWAP1 PUSH1 0x2 MUL ADD PUSH0 SWAP2 POP SWAP1 POP DUP1 PUSH0 ADD DUP1 SLOAD PUSH2 0x23A SWAP1 PUSH2 0x66F JUMP JUMPDEST DUP1 PUSH1 0x1F ADD PUSH1 0x20 DUP1 SWAP2 DIV MUL PUSH1 0x20 ADD PUSH1 0x40 MLOAD SWAP1 DUP2 ADD PUSH1 0x40 MSTORE DUP1 SWAP3 SWAP2 SWAP1 DUP2 DUP2 MSTORE PUSH1 0x20 ADD DUP3 DUP1 SLOAD PUSH2 0x266 SWAP1 PUSH2 0x66F JUMP JUMPDEST DUP1 ISZERO PUSH2 0x2B1 JUMPI DUP1 PUSH1 0x1F LT PUSH2 0x288 JUMPI PUSH2 0x100 DUP1 DUP4 SLOAD DIV MUL DUP4 MSTORE SWAP2 PUSH1 0x20 ADD SWAP2 PUSH2 0x2B1 JUMP JUMPDEST DUP3 ADD SWAP2 SWAP1 PUSH0 MSTORE PUSH1 0x20 PUSH0 KECCAK256 SWAP1 JUMPDEST DUP2 SLOAD DUP2 MSTORE SWAP1 PUSH1 0x1 ADD SWAP1 PUSH1 0x20 ADD DUP1 DUP4 GT PUSH2 0x294 JUMPI DUP3 SWAP1 SUB PUSH1 0x1F AND DUP3 ADD SWAP2 JUMPDEST POP POP POP POP POP SWAP1 DUP1 PUSH1 0x1 ADD SLOAD SWAP1 POP DUP3 JUMP JUMPDEST PUSH0 SLOAD DUP2 JUMP JUMPDEST PUSH0 DUP2 SWAP1 POP SWAP2 SWAP1 POP JUMP JUMPDEST PUSH2 0x2D8 DUP2 PUSH2 0x2C6 JUMP JUMPDEST DUP3 MSTORE POP POP JUMP JUMPDEST PUSH0 PUSH1 0x20 DUP3 ADD SWAP1 POP PUSH2 0x2F1 PUSH0 DUP4 ADD DUP5 PUSH2 0x2CF JUMP JUMPDEST SWAP3 SWAP2 POP POP JUMP JUMPDEST PUSH0 PUSH1 0x40 MLOAD SWAP1 POP SWAP1 JUMP JUMPDEST PUSH0 DUP1 REVERT JUMPDEST PUSH0 DUP1 REVERT JUMPDEST PUSH0 DUP1 REVERT JUMPDEST PUSH0 DUP1 REVERT JUMPDEST PUSH0 PUSH1 0x1F NOT PUSH1 0x1F DUP4 ADD AND SWAP1 POP SWAP2 SWAP1 POP JUMP JUMPDEST PUSH32 0x4E487B7100000000000000000000000000000000000000000000000000000000 PUSH0 MSTORE PUSH1 0x41 PUSH1 0x4 MSTORE PUSH1 0x24 PUSH0 REVERT JUMPDEST PUSH2 0x356 DUP3 PUSH2 0x310 JUMP JUMPDEST DUP2 ADD DUP2 DUP2 LT PUSH8 0xFFFFFFFFFFFFFFFF DUP3 GT OR ISZERO PUSH2 0x375 JUMPI PUSH2 0x374 PUSH2 0x320 JUMP JUMPDEST JUMPDEST DUP1 PUSH1 0x40 MSTORE POP POP POP JUMP JUMPDEST PUSH0 PUSH2 0x387 PUSH2 0x2F7 JUMP JUMPDEST SWAP1 POP PUSH2 0x393 DUP3 DUP3 PUSH2 0x34D JUMP JUMPDEST SWAP2 SWAP1 POP JUMP JUMPDEST PUSH0 PUSH8 0xFFFFFFFFFFFFFFFF DUP3 GT ISZERO PUSH2 0x3B2 JUMPI PUSH2 0x3B1 PUSH2 0x320 JUMP JUMPDEST JUMPDEST PUSH2 0x3BB DUP3 PUSH2 0x310 JUMP JUMPDEST SWAP1 POP PUSH1 0x20 DUP2 ADD SWAP1 POP SWAP2 SWAP1 POP JUMP JUMPDEST DUP3 DUP2 DUP4 CALLDATACOPY PUSH0 DUP4 DUP4 ADD MSTORE POP POP POP JUMP JUMPDEST PUSH0 PUSH2 0x3E8 PUSH2 0x3E3 DUP5 PUSH2 0x398 JUMP JUMPDEST PUSH2 0x37E JUMP JUMPDEST SWAP1 POP DUP3 DUP2 MSTORE PUSH1 0x20 DUP2 ADD DUP5 DUP5 DUP5 ADD GT ISZERO PUSH2 0x404 JUMPI PUSH2 0x403 PUSH2 0x30C JUMP JUMPDEST JUMPDEST PUSH2 0x40F DUP5 DUP3 DUP6 PUSH2 0x3C8 JUMP JUMPDEST POP SWAP4 SWAP3 POP POP POP JUMP JUMPDEST PUSH0 DUP3 PUSH1 0x1F DUP4 ADD SLT PUSH2 0x42B JUMPI PUSH2 0x42A PUSH2 0x308 JUMP JUMPDEST JUMPDEST DUP2 CALLDATALOAD PUSH2 0x43B DUP5 DUP3 PUSH1 0x20 DUP7 ADD PUSH2 0x3D6 JUMP JUMPDEST SWAP2 POP POP SWAP3 SWAP2 POP POP JUMP JUMPDEST PUSH0 PUSH1 0x20 DUP3 DUP5 SUB SLT ISZERO PUSH2 0x459 JUMPI PUSH2 0x458 PUSH2 0x300 JUMP JUMPDEST JUMPDEST PUSH0 DUP3 ADD CALLDATALOAD PUSH8 0xFFFFFFFFFFFFFFFF DUP2 GT ISZERO PUSH2 0x476 JUMPI PUSH2 0x475 PUSH2 0x304 JUMP JUMPDEST JUMPDEST PUSH2 0x482 DUP5 DUP3 DUP6 ADD PUSH2 0x417 JUMP JUMPDEST SWAP2 POP POP SWAP3 SWAP2 POP POP JUMP JUMPDEST PUSH2 0x494 DUP2 PUSH2 0x2C6 JUMP JUMPDEST DUP2 EQ PUSH2 0x49E JUMPI PUSH0 DUP1 REVERT JUMPDEST POP JUMP JUMPDEST PUSH0 DUP2 CALLDATALOAD SWAP1 POP PUSH2 0x4AF DUP2 PUSH2 0x48B JUMP JUMPDEST SWAP3 SWAP2 POP POP JUMP JUMPDEST PUSH0 PUSH1 0x20 DUP3 DUP5 SUB SLT ISZERO PUSH2 0x4CA JUMPI PUSH2 0x4C9 PUSH2 0x300 JUMP JUMPDEST JUMPDEST PUSH0 PUSH2 0x4D7 DUP5 DUP3 DUP6 ADD PUSH2 0x4A1 JUMP JUMPDEST SWAP2 POP POP SWAP3 SWAP2 POP POP JUMP JUMPDEST PUSH0 DUP1 PUSH1 0x40 DUP4 DUP6 SUB SLT ISZERO PUSH2 0x4F6 JUMPI PUSH2 0x4F5 PUSH2 0x300 JUMP JUMPDEST JUMPDEST PUSH0 DUP4 ADD CALLDATALOAD PUSH8 0xFFFFFFFFFFFFFFFF DUP2 GT ISZERO PUSH2 0x513 JUMPI PUSH2 0x512 PUSH2 0x304 JUMP JUMPDEST JUMPDEST PUSH2 0x51F DUP6 DUP3 DUP7 ADD PUSH2 0x417 JUMP JUMPDEST SWAP3 POP POP PUSH1 0x20 PUSH2 0x530 DUP6 DUP3 DUP7 ADD PUSH2 0x4A1 JUMP JUMPDEST SWAP2 POP POP SWAP3 POP SWAP3 SWAP1 POP JUMP JUMPDEST PUSH0 DUP2 MLOAD SWAP1 POP SWAP2 SWAP1 POP JUMP JUMPDEST PUSH0 DUP3 DUP3 MSTORE PUSH1 0x20 DUP3 ADD SWAP1 POP SWAP3 SWAP2 POP POP JUMP JUMPDEST PUSH0 JUMPDEST DUP4 DUP2 LT ISZERO PUSH2 0x571 JUMPI DUP1 DUP3 ADD MLOAD DUP2 DUP5 ADD MSTORE PUSH1 0x20 DUP2 ADD SWAP1 POP PUSH2 0x556 JUMP JUMPDEST PUSH0 DUP5 DUP5 ADD MSTORE POP POP POP POP JUMP JUMPDEST PUSH0 PUSH2 0x586 DUP3 PUSH2 0x53A JUMP JUMPDEST PUSH2 0x590 DUP2 DUP6 PUSH2 0x544 JUMP JUMPDEST SWAP4 POP PUSH2 0x5A0 DUP2 DUP6 PUSH1 0x20 DUP7 ADD PUSH2 0x554 JUMP JUMPDEST PUSH2 0x5A9 DUP2 PUSH2 0x310 JUMP JUMPDEST DUP5 ADD SWAP2 POP POP SWAP3 SWAP2 POP POP JUMP JUMPDEST PUSH0 PUSH1 0x40 DUP3 ADD SWAP1 POP DUP2 DUP2 SUB PUSH0 DUP4 ADD MSTORE PUSH2 0x5CC DUP2 DUP6 PUSH2 0x57C JUMP JUMPDEST SWAP1 POP PUSH2 0x5DB PUSH1 0x20 DUP4 ADD DUP5 PUSH2 0x2CF JUMP JUMPDEST SWAP4 SWAP3 POP POP POP JUMP JUMPDEST PUSH32 0x4E487B7100000000000000000000000000000000000000000000000000000000 PUSH0 MSTORE PUSH1 0x11 PUSH1 0x4 MSTORE PUSH1 0x24 PUSH0 REVERT JUMPDEST PUSH0 PUSH2 0x619 DUP3 PUSH2 0x2C6 JUMP JUMPDEST SWAP2 POP PUSH2 0x624 DUP4 PUSH2 0x2C6 JUMP JUMPDEST SWAP3 POP DUP3 DUP3 ADD SWAP1 POP DUP1 DUP3 GT ISZERO PUSH2 0x63C JUMPI PUSH2 0x63B PUSH2 0x5E2 JUMP JUMPDEST JUMPDEST SWAP3 SWAP2 POP POP JUMP JUMPDEST PUSH32 0x4E487B7100000000000000000000000000000000000000000000000000000000 PUSH0 MSTORE PUSH1 0x22 PUSH1 0x4 MSTORE PUSH1 0x24 PUSH0 REVERT JUMPDEST PUSH0 PUSH1 0x2 DUP3 DIV SWAP1 POP PUSH1 0x1 DUP3 AND DUP1 PUSH2 0x686 JUMPI PUSH1 0x7F DUP3 AND SWAP2 POP JUMPDEST PUSH1 0x20 DUP3 LT DUP2 SUB PUSH2 0x699 JUMPI PUSH2 0x698 PUSH2 0x642 JUMP JUMPDEST JUMPDEST POP SWAP2 SWAP1 POP JUMP JUMPDEST PUSH0 DUP2 SWAP1 POP DUP2 PUSH0 MSTORE PUSH1 0x20 PUSH0 KECCAK256 SWAP1 POP SWAP2 SWAP1 POP JUMP JUMPDEST PUSH0 PUSH1 0x20 PUSH1 0x1F DUP4 ADD DIV SWAP1 POP SWAP2 SWAP1 POP JUMP JUMPDEST PUSH0 DUP3 DUP3 SHL SWAP1 POP SWAP3 SWAP2 POP POP JUMP JUMPDEST PUSH0 PUSH1 0x8 DUP4 MUL PUSH2 0x6FB PUSH32 0xFFFFFFFFFFFFFFFFFFFFFFFFFFFFFFFFFFFFFFFFFFFFFFFFFFFFFFFFFFFFFFFF DUP3 PUSH2 0x6C0 JUMP JUMPDEST PUSH2 0x705 DUP7 DUP4 PUSH2 0x6C0 JUMP JUMPDEST SWAP6 POP DUP1 NOT DUP5 AND SWAP4 POP DUP1 DUP7 AND DUP5 OR SWAP3 POP POP POP SWAP4 SWAP3 POP POP POP JUMP JUMPDEST PUSH0 DUP2 SWAP1 POP SWAP2 SWAP1 POP JUMP JUMPDEST PUSH0 PUSH2 0x740 PUSH2 0x73B PUSH2 0x736 DUP5 PUSH2 0x2C6 JUMP JUMPDEST PUSH2 0x71D JUMP JUMPDEST PUSH2 0x2C6 JUMP JUMPDEST SWAP1 POP SWAP2 SWAP1 POP JUMP JUMPDEST PUSH0 DUP2 SWAP1 POP SWAP2 SWAP1 POP JUMP JUMPDEST PUSH2 0x759 DUP4 PUSH2 0x726 JUMP JUMPDEST PUSH2 0x76D PUSH2 0x765 DUP3 PUSH2 0x747 JUMP JUMPDEST DUP5 DUP5 SLOAD PUSH2 0x6CC JUMP JUMPDEST DUP3 SSTORE POP POP POP POP JUMP JUMPDEST PUSH0 SWAP1 JUMP JUMPDEST PUSH2 0x781 PUSH2 0x775 JUMP JUMPDEST PUSH2 0x78C DUP2 DUP5 DUP5 PUSH2 0x750 JUMP JUMPDEST POP POP POP JUMP JUMPDEST JUMPDEST DUP2 DUP2 LT ISZERO PUSH2 0x7AF JUMPI PUSH2 0x7A4 PUSH0 DUP3 PUSH2 0x779 JUMP JUMPDEST PUSH1 0x1 DUP2 ADD SWAP1 POP PUSH2 0x792 JUMP JUMPDEST POP POP JUMP JUMPDEST PUSH1 0x1F DUP3 GT ISZERO PUSH2 0x7F4 JUMPI PUSH2 0x7C5 DUP2 PUSH2 0x69F JUMP JUMPDEST PUSH2 0x7CE DUP5 PUSH2 0x6B1 JUMP JUMPDEST DUP2 ADD PUSH1 0x20 DUP6 LT ISZERO PUSH2 0x7DD JUMPI DUP2 SWAP1 POP JUMPDEST PUSH2 0x7F1 PUSH2 0x7E9 DUP6 PUSH2 0x6B1 JUMP JUMPDEST DUP4 ADD DUP3 PUSH2 0x791 JUMP JUMPDEST POP POP JUMPDEST POP POP POP JUMP JUMPDEST PUSH0 DUP3 DUP3 SHR SWAP1 POP SWAP3 SWAP2 POP POP JUMP JUMPDEST PUSH0 PUSH2 0x814 PUSH0 NOT DUP5 PUSH1 0x8 MUL PUSH2 0x7F9 JUMP JUMPDEST NOT DUP1 DUP4 AND SWAP2 POP POP SWAP3 SWAP2 POP POP JUMP JUMPDEST PUSH0 PUSH2 0x82C DUP4 DUP4 PUSH2 0x805 JUMP JUMPDEST SWAP2 POP DUP3 PUSH1 0x2 MUL DUP3 OR SWAP1 POP SWAP3 SWAP2 POP POP JUMP JUMPDEST PUSH2 0x845 DUP3 PUSH2 0x53A JUMP JUMPDEST PUSH8 0xFFFFFFFFFFFFFFFF DUP2 GT ISZERO PUSH2 0x85E JUMPI PUSH2 0x85D PUSH2 0x320 JUMP JUMPDEST JUMPDEST PUSH2 0x868 DUP3 SLOAD PUSH2 0x66F JUMP JUMPDEST PUSH2 0x873 DUP3 DUP3 DUP6 PUSH2 0x7B3 JUMP JUMPDEST PUSH0 PUSH1 0x20 SWAP1 POP PUSH1 0x1F DUP4 GT PUSH1 0x1 DUP2 EQ PUSH2 0x8A4 JUMPI PUSH0 DUP5 ISZERO PUSH2 0x892 JUMPI DUP3 DUP8 ADD MLOAD SWAP1 POP JUMPDEST PUSH2 0x89C DUP6 DUP3 PUSH2 0x821 JUMP JUMPDEST DUP7 SSTORE POP PUSH2 0x903 JUMP JUMPDEST PUSH1 0x1F NOT DUP5 AND PUSH2 0x8B2 DUP7 PUSH2 0x69F JUMP JUMPDEST PUSH0 JUMPDEST DUP3 DUP2 LT ISZERO PUSH2 0x8D9 JUMPI DUP5 DUP10 ADD MLOAD DUP3 SSTORE PUSH1 0x1 DUP3 ADD SWAP2 POP PUSH1 0x20 DUP6 ADD SWAP5 POP PUSH1 0x20 DUP2 ADD SWAP1 POP PUSH2 0x8B4 JUMP JUMPDEST DUP7 DUP4 LT ISZERO PUSH2 0x8F6 JUMPI DUP5 DUP10 ADD MLOAD PUSH2 0x8F2 PUSH1 0x1F DUP10 AND DUP3 PUSH2 0x805 JUMP JUMPDEST DUP4 SSTORE POP JUMPDEST PUSH1 0x1 PUSH1 0x2 DUP9 MUL ADD DUP9 SSTORE POP POP POP JUMPDEST POP POP POP POP POP POP JUMP JUMPDEST PUSH0 DUP2 SWAP1 POP SWAP3 SWAP2 POP POP JUMP JUMPDEST PUSH0 PUSH2 0x91F DUP3 PUSH2 0x53A JUMP JUMPDEST PUSH2 0x929 DUP2 DUP6 PUSH2 0x90B JUMP JUMPDEST SWAP4 POP PUSH2 0x939 DUP2 DUP6 PUSH1 0x20 DUP7 ADD PUSH2 0x554 JUMP JUMPDEST DUP1 DUP5 ADD SWAP2 POP POP SWAP3 SWAP2 POP POP JUMP JUMPDEST PUSH0 PUSH2 0x950 DUP3 DUP5 PUSH2 0x915 JUMP JUMPDEST SWAP2 POP DUP2 SWAP1 POP SWAP3 SWAP2 POP POP JUMP INVALID LOG2 PUSH5 0x6970667358 0x22 SLT KECCAK256 0xCA JUMPDEST PUSH10 0x22607D6707E8FC789C45 SDIV 0xE4 0xAD PUSH24 0x609E40BF07C8A5B5C38D7DAA1D8EBE64736F6C6343000816 STOP CALLER "
				},
				"gasEstimates": {
					"creation": {
						"codeDepositCost": "489800",
						"executionCost": "522",
						"totalCost": "490322"
					},
					"external": {
						"addPerson(string,uint256)": "infinite",
						"people(uint256)": "infinite",
						"personNumber(string)": "infinite",
						"publicNumber()": "2512",
						"retrieve()": "2410",
						"store(uint256)": "infinite"
					}
				},
				"methodIdentifiers": {
					"addPerson(string,uint256)": "6f760f41",
					"people(uint256)": "9e7a13ad",
					"personNumber(string)": "5ded0c0d",
					"publicNumber()": "e566c67d",
					"retrieve()": "2e64cec1",
					"store(uint256)": "6057361d"
				}
			},
			"storageLayout": {
				"storage": [
					{
						"astId": 24,
						"contract": "AddFiveStorage.sol:AddFiveStorage",
						"label": "publicNumber",
						"offset": 0,
						"slot": "0",
						"type": "t_uint256"
					},
					{
						"astId": 51,
						"contract": "AddFiveStorage.sol:AddFiveStorage",
						"label": "people",
						"offset": 0,
						"slot": "1",
						"type": "t_array(t_struct(Person)29_storage)dyn_storage"
					},
					{
						"astId": 55,
						"contract": "AddFiveStorage.sol:AddFiveStorage",
						"label": "personNumber",
						"offset": 0,
						"slot": "2",
						"type": "t_mapping(t_string_memory_ptr,t_uint256)"
					}
				],
				"types": {
					"t_array(t_struct(Person)29_storage)dyn_storage": {
						"base": "t_struct(Person)29_storage",
						"encoding": "dynamic_array",
						"label": "struct SimpleContract.Person[]",
						"numberOfBytes": "32"
					},
					"t_mapping(t_string_memory_ptr,t_uint256)": {
						"encoding": "mapping",
						"key": "t_string_memory_ptr",
						"label": "mapping(string => uint256)",
						"numberOfBytes": "32",
						"value": "t_uint256"
					},
					"t_string_memory_ptr": {
						"encoding": "bytes",
						"label": "string",
						"numberOfBytes": "32"
					},
					"t_string_storage": {
						"encoding": "bytes",
						"label": "string",
						"numberOfBytes": "32"
					},
					"t_struct(Person)29_storage": {
						"encoding": "inplace",
						"label": "struct SimpleContract.Person",
						"members": [
							{
								"astId": 26,
								"contract": "AddFiveStorage.sol:AddFiveStorage",
								"label": "name",
								"offset": 0,
								"slot": "0",
								"type": "t_string_storage"
							},
							{
								"astId": 28,
								"contract": "AddFiveStorage.sol:AddFiveStorage",
								"label": "number",
								"offset": 0,
								"slot": "1",
								"type": "t_uint256"
							}
						],
						"numberOfBytes": "64"
					},
					"t_uint256": {
						"encoding": "inplace",
						"label": "uint256",
						"numberOfBytes": "32"
					}
				}
			},
			"userdoc": {
				"kind": "user",
				"methods": {},
				"version": 1
			}
		}
	}
}