{
	"FundMe.sol": {
		"FundMe": {
			"abi": [
				{
					"inputs": [
						{
							"internalType": "contract AggregatorV3Interface",
							"name": "_aggregator",
							"type": "address"
						}
					],
					"stateMutability": "nonpayable",
					"type": "constructor"
				},
				{
					"inputs": [
						{
							"internalType": "address",
							"name": "",
							"type": "address"
						}
					],
					"name": "addressToAmountFunded",
					"outputs": [
						{
							"internalType": "uint256",
							"name": "",
							"type": "uint256"
						}
					],
					"stateMutability": "view",
					"type": "function"
				},
				{
					"inputs": [],
					"name": "aggregator",
					"outputs": [
						{
							"internalType": "contract AggregatorV3Interface",
							"name": "",
							"type": "address"
						}
					],
					"stateMutability": "view",
					"type": "function"
				},
				{
					"inputs": [],
					"name": "fund",
					"outputs": [],
					"stateMutability": "payable",
					"type": "function"
				},
				{
					"inputs": [
						{
							"internalType": "uint256",
							"name": "",
							"type": "uint256"
						}
					],
					"name": "funders",
					"outputs": [
						{
							"internalType": "address",
							"name": "",
							"type": "address"
						}
					],
					"stateMutability": "view",
					"type": "function"
				},
				{
					"inputs": [],
					"name": "minimumUsd",
					"outputs": [
						{
							"internalType": "uint256",
							"name": "",
							"type": "uint256"
						}
					],
					"stateMutability": "view",
					"type": "function"
				},
				{
					"inputs": [],
					"name": "withdraw",
					"outputs": [],
					"stateMutability": "nonpayable",
					"type": "function"
				}
			],
			"devdoc": {
				"kind": "dev",
				"methods": {},
				"version": 1
			},
			"evm": {
				"assembly": "    /* \"FundMe.sol\":312:1168  contract FundMe {... */\n  mstore(0x40, 0x80)\n    /* \"FundMe.sol\":634:638  5e18 */\n  0x4563918244f40000\n    /* \"FundMe.sol\":606:638  uint256 public minimumUsd = 5e18 */\n  0x03\n  sstore\n    /* \"FundMe.sol\":512:600  constructor(AggregatorV3Interface _aggregator) {... */\n  callvalue\n  dup1\n  iszero\n  tag_1\n  jumpi\n  0x00\n  dup1\n  revert\ntag_1:\n  pop\n  mload(0x40)\n  sub(codesize, bytecodeSize)\n  dup1\n  bytecodeSize\n  dup4\n  codecopy\n  dup2\n  dup2\n  add\n  0x40\n  mstore\n  dup2\n  add\n  swap1\n  tag_2\n  swap2\n  swap1\n  tag_3\n  jump\t// in\ntag_2:\n    /* \"FundMe.sol\":582:593  _aggregator */\n  dup1\n    /* \"FundMe.sol\":569:579  aggregator */\n  0x02\n  0x00\n    /* \"FundMe.sol\":569:593  aggregator = _aggregator */\n  0x0100\n  exp\n  dup2\n  sload\n  dup2\n  0xffffffffffffffffffffffffffffffffffffffff\n  mul\n  not\n  and\n  swap1\n  dup4\n  0xffffffffffffffffffffffffffffffffffffffff\n  and\n  mul\n  or\n  swap1\n  sstore\n  pop\n    /* \"FundMe.sol\":512:600  constructor(AggregatorV3Interface _aggregator) {... */\n  pop\n    /* \"FundMe.sol\":312:1168  contract FundMe {... */\n  jump(tag_6)\n    /* \"#utility.yul\":88:205   */\ntag_8:\n    /* \"#utility.yul\":197:198   */\n  0x00\n    /* \"#utility.yul\":194:195   */\n  dup1\n    /* \"#utility.yul\":187:199   */\n  revert\n    /* \"#utility.yul\":334:460   */\ntag_10:\n    /* \"#utility.yul\":371:378   */\n  0x00\n    /* \"#utility.yul\":411:453   */\n  0xffffffffffffffffffffffffffffffffffffffff\n    /* \"#utility.yul\":404:409   */\n  dup3\n    /* \"#utility.yul\":400:454   */\n  and\n    /* \"#utility.yul\":389:454   */\n  swap1\n  pop\n    /* \"#utility.yul\":334:460   */\n  swap2\n  swap1\n  pop\n  jump\t// out\n    /* \"#utility.yul\":466:562   */\ntag_11:\n    /* \"#utility.yul\":503:510   */\n  0x00\n    /* \"#utility.yul\":532:556   */\n  tag_21\n    /* \"#utility.yul\":550:555   */\n  dup3\n    /* \"#utility.yul\":532:556   */\n  tag_10\n  jump\t// in\ntag_21:\n    /* \"#utility.yul\":521:556   */\n  swap1\n  pop\n    /* \"#utility.yul\":466:562   */\n  swap2\n  swap1\n  pop\n  jump\t// out\n    /* \"#utility.yul\":568:692   */\ntag_12:\n    /* \"#utility.yul\":633:640   */\n  0x00\n    /* \"#utility.yul\":662:686   */\n  tag_23\n    /* \"#utility.yul\":680:685   */\n  dup3\n    /* \"#utility.yul\":662:686   */\n  tag_11\n  jump\t// in\ntag_23:\n    /* \"#utility.yul\":651:686   */\n  swap1\n  pop\n    /* \"#utility.yul\":568:692   */\n  swap2\n  swap1\n  pop\n  jump\t// out\n    /* \"#utility.yul\":698:876   */\ntag_13:\n    /* \"#utility.yul\":799:851   */\n  tag_25\n    /* \"#utility.yul\":845:850   */\n  dup2\n    /* \"#utility.yul\":799:851   */\n  tag_12\n  jump\t// in\ntag_25:\n    /* \"#utility.yul\":792:797   */\n  dup2\n    /* \"#utility.yul\":789:852   */\n  eq\n    /* \"#utility.yul\":779:870   */\n  tag_26\n  jumpi\n    /* \"#utility.yul\":866:867   */\n  0x00\n    /* \"#utility.yul\":863:864   */\n  dup1\n    /* \"#utility.yul\":856:868   */\n  revert\n    /* \"#utility.yul\":779:870   */\ntag_26:\n    /* \"#utility.yul\":698:876   */\n  pop\n  jump\t// out\n    /* \"#utility.yul\":882:1081   */\ntag_14:\n    /* \"#utility.yul\":967:972   */\n  0x00\n    /* \"#utility.yul\":998:1004   */\n  dup2\n    /* \"#utility.yul\":992:1005   */\n  mload\n    /* \"#utility.yul\":983:1005   */\n  swap1\n  pop\n    /* \"#utility.yul\":1014:1075   */\n  tag_28\n    /* \"#utility.yul\":1069:1074   */\n  dup2\n    /* \"#utility.yul\":1014:1075   */\n  tag_13\n  jump\t// in\ntag_28:\n    /* \"#utility.yul\":882:1081   */\n  swap3\n  swap2\n  pop\n  pop\n  jump\t// out\n    /* \"#utility.yul\":1087:1494   */\ntag_3:\n    /* \"#utility.yul\":1185:1191   */\n  0x00\n    /* \"#utility.yul\":1234:1236   */\n  0x20\n    /* \"#utility.yul\":1222:1231   */\n  dup3\n    /* \"#utility.yul\":1213:1220   */\n  dup5\n    /* \"#utility.yul\":1209:1232   */\n  sub\n    /* \"#utility.yul\":1205:1237   */\n  slt\n    /* \"#utility.yul\":1202:1321   */\n  iszero\n  tag_30\n  jumpi\n    /* \"#utility.yul\":1240:1319   */\n  tag_31\n  tag_8\n  jump\t// in\ntag_31:\n    /* \"#utility.yul\":1202:1321   */\ntag_30:\n    /* \"#utility.yul\":1360:1361   */\n  0x00\n    /* \"#utility.yul\":1385:1477   */\n  tag_32\n    /* \"#utility.yul\":1469:1476   */\n  dup5\n    /* \"#utility.yul\":1460:1466   */\n  dup3\n    /* \"#utility.yul\":1449:1458   */\n  dup6\n    /* \"#utility.yul\":1445:1467   */\n  add\n    /* \"#utility.yul\":1385:1477   */\n  tag_14\n  jump\t// in\ntag_32:\n    /* \"#utility.yul\":1375:1477   */\n  swap2\n  pop\n    /* \"#utility.yul\":1331:1487   */\n  pop\n    /* \"#utility.yul\":1087:1494   */\n  swap3\n  swap2\n  pop\n  pop\n  jump\t// out\n    /* \"FundMe.sol\":312:1168  contract FundMe {... */\ntag_6:\n  dataSize(sub_0)\n  dup1\n  dataOffset(sub_0)\n  0x00\n  codecopy\n  0x00\n  return\nstop\n\nsub_0: assembly {\n        /* \"FundMe.sol\":312:1168  contract FundMe {... */\n      mstore(0x40, 0x80)\n      jumpi(tag_1, lt(calldatasize, 0x04))\n      shr(0xe0, calldataload(0x00))\n      dup1\n      0x098de820\n      eq\n      tag_2\n      jumpi\n      dup1\n      0x245a7bfc\n      eq\n      tag_3\n      jumpi\n      dup1\n      0x3ccfd60b\n      eq\n      tag_4\n      jumpi\n      dup1\n      0x3e47d6f3\n      eq\n      tag_5\n      jumpi\n      dup1\n      0xb60d4288\n      eq\n      tag_6\n      jumpi\n      dup1\n      0xdc0d3dff\n      eq\n      tag_7\n      jumpi\n    tag_1:\n      0x00\n      dup1\n      revert\n        /* \"FundMe.sol\":606:638  uint256 public minimumUsd = 5e18 */\n    tag_2:\n      callvalue\n      dup1\n      iszero\n      tag_8\n      jumpi\n      0x00\n      dup1\n      revert\n    tag_8:\n      pop\n      tag_9\n      tag_10\n      jump\t// in\n    tag_9:\n      mload(0x40)\n      tag_11\n      swap2\n      swap1\n      tag_12\n      jump\t// in\n    tag_11:\n      mload(0x40)\n      dup1\n      swap2\n      sub\n      swap1\n      return\n        /* \"FundMe.sol\":466:505  AggregatorV3Interface public aggregator */\n    tag_3:\n      callvalue\n      dup1\n      iszero\n      tag_13\n      jumpi\n      0x00\n      dup1\n      revert\n    tag_13:\n      pop\n      tag_14\n      tag_15\n      jump\t// in\n    tag_14:\n      mload(0x40)\n      tag_16\n      swap2\n      swap1\n      tag_17\n      jump\t// in\n    tag_16:\n      mload(0x40)\n      dup1\n      swap2\n      sub\n      swap1\n      return\n        /* \"FundMe.sol\":941:1166  function withdraw() public {... */\n    tag_4:\n      callvalue\n      dup1\n      iszero\n      tag_18\n      jumpi\n      0x00\n      dup1\n      revert\n    tag_18:\n      pop\n      tag_19\n      tag_20\n      jump\t// in\n    tag_19:\n      stop\n        /* \"FundMe.sol\":403:459  mapping(address => uint256) public addressToAmountFunded */\n    tag_5:\n      callvalue\n      dup1\n      iszero\n      tag_21\n      jumpi\n      0x00\n      dup1\n      revert\n    tag_21:\n      pop\n      tag_22\n      0x04\n      dup1\n      calldatasize\n      sub\n      dup2\n      add\n      swap1\n      tag_23\n      swap2\n      swap1\n      tag_24\n      jump\t// in\n    tag_23:\n      tag_25\n      jump\t// in\n    tag_22:\n      mload(0x40)\n      tag_26\n      swap2\n      swap1\n      tag_12\n      jump\t// in\n    tag_26:\n      mload(0x40)\n      dup1\n      swap2\n      sub\n      swap1\n      return\n        /* \"FundMe.sol\":645:935  function fund() public payable {... */\n    tag_6:\n      tag_27\n      tag_28\n      jump\t// in\n    tag_27:\n      stop\n        /* \"FundMe.sol\":373:397  address[] public funders */\n    tag_7:\n      callvalue\n      dup1\n      iszero\n      tag_29\n      jumpi\n      0x00\n      dup1\n      revert\n    tag_29:\n      pop\n      tag_30\n      0x04\n      dup1\n      calldatasize\n      sub\n      dup2\n      add\n      swap1\n      tag_31\n      swap2\n      swap1\n      tag_32\n      jump\t// in\n    tag_31:\n      tag_33\n      jump\t// in\n    tag_30:\n      mload(0x40)\n      tag_34\n      swap2\n      swap1\n      tag_35\n      jump\t// in\n    tag_34:\n      mload(0x40)\n      dup1\n      swap2\n      sub\n      swap1\n      return\n        /* \"FundMe.sol\":606:638  uint256 public minimumUsd = 5e18 */\n    tag_10:\n      sload(0x03)\n      dup2\n      jump\t// out\n        /* \"FundMe.sol\":466:505  AggregatorV3Interface public aggregator */\n    tag_15:\n      0x02\n      0x00\n      swap1\n      sload\n      swap1\n      0x0100\n      exp\n      swap1\n      div\n      0xffffffffffffffffffffffffffffffffffffffff\n      and\n      dup2\n      jump\t// out\n        /* \"FundMe.sol\":941:1166  function withdraw() public {... */\n    tag_20:\n        /* \"FundMe.sol\":982:1001  uint256 funderIndex */\n      0x00\n        /* \"FundMe.sol\":978:1160  for(uint256 funderIndex = 0; funderIndex < funders.length; funderIndex++){... */\n    tag_37:\n        /* \"FundMe.sol\":1021:1028  funders */\n      0x00\n        /* \"FundMe.sol\":1021:1035  funders.length */\n      dup1\n      sload\n      swap1\n      pop\n        /* \"FundMe.sol\":1007:1018  funderIndex */\n      dup2\n        /* \"FundMe.sol\":1007:1035  funderIndex < funders.length */\n      lt\n        /* \"FundMe.sol\":978:1160  for(uint256 funderIndex = 0; funderIndex < funders.length; funderIndex++){... */\n      iszero\n      tag_38\n      jumpi\n        /* \"FundMe.sol\":1065:1079  address funder */\n      0x00\n        /* \"FundMe.sol\":1082:1089  funders */\n      dup1\n        /* \"FundMe.sol\":1090:1101  funderIndex */\n      dup3\n        /* \"FundMe.sol\":1082:1102  funders[funderIndex] */\n      dup2\n      sload\n      dup2\n      lt\n      tag_40\n      jumpi\n      tag_41\n      tag_42\n      jump\t// in\n    tag_41:\n    tag_40:\n      swap1\n      0x00\n      mstore\n      keccak256(0x00, 0x20)\n      add\n      0x00\n      swap1\n      sload\n      swap1\n      0x0100\n      exp\n      swap1\n      div\n      0xffffffffffffffffffffffffffffffffffffffff\n      and\n        /* \"FundMe.sol\":1065:1102  address funder = funders[funderIndex] */\n      swap1\n      pop\n        /* \"FundMe.sol\":1148:1149  0 */\n      0x00\n        /* \"FundMe.sol\":1116:1137  addressToAmountFunded */\n      0x01\n        /* \"FundMe.sol\":1116:1145  addressToAmountFunded[funder] */\n      0x00\n        /* \"FundMe.sol\":1138:1144  funder */\n      dup4\n        /* \"FundMe.sol\":1116:1145  addressToAmountFunded[funder] */\n      0xffffffffffffffffffffffffffffffffffffffff\n      and\n      0xffffffffffffffffffffffffffffffffffffffff\n      and\n      dup2\n      mstore\n      0x20\n      add\n      swap1\n      dup2\n      mstore\n      0x20\n      add\n      0x00\n      keccak256\n        /* \"FundMe.sol\":1116:1149  addressToAmountFunded[funder] = 0 */\n      dup2\n      swap1\n      sstore\n      pop\n        /* \"FundMe.sol\":1051:1160  {... */\n      pop\n        /* \"FundMe.sol\":1037:1050  funderIndex++ */\n      dup1\n      dup1\n      0x01\n      add\n      swap2\n      pop\n      pop\n        /* \"FundMe.sol\":978:1160  for(uint256 funderIndex = 0; funderIndex < funders.length; funderIndex++){... */\n      jump(tag_37)\n    tag_38:\n      pop\n        /* \"FundMe.sol\":941:1166  function withdraw() public {... */\n      jump\t// out\n        /* \"FundMe.sol\":403:459  mapping(address => uint256) public addressToAmountFunded */\n    tag_25:\n      mstore(0x20, 0x01)\n      dup1\n      0x00\n      mstore\n      keccak256(0x00, 0x40)\n      0x00\n      swap2\n      pop\n      swap1\n      pop\n      sload\n      dup2\n      jump\t// out\n        /* \"FundMe.sol\":645:935  function fund() public payable {... */\n    tag_28:\n        /* \"FundMe.sol\":682:699  uint256 ethAmount */\n      0x00\n        /* \"FundMe.sol\":702:711  msg.value */\n      callvalue\n        /* \"FundMe.sol\":682:711  uint256 ethAmount = msg.value */\n      swap1\n      pop\n        /* \"FundMe.sol\":780:790  minimumUsd */\n      sload(0x03)\n        /* \"FundMe.sol\":725:739  PriceConverter */\n      linkerSymbol(\"0eaef9e137657dd7174bf71a05772e68ff2d722731f16ada39e9f9f82a93857c\")\n        /* \"FundMe.sol\":725:753  PriceConverter.getPriceInUsd */\n      0xdb23d7e6\n        /* \"FundMe.sol\":754:764  aggregator */\n      0x02\n      0x00\n      swap1\n      sload\n      swap1\n      0x0100\n      exp\n      swap1\n      div\n      0xffffffffffffffffffffffffffffffffffffffff\n      and\n        /* \"FundMe.sol\":766:775  ethAmount */\n      dup5\n        /* \"FundMe.sol\":725:776  PriceConverter.getPriceInUsd(aggregator, ethAmount) */\n      mload(0x40)\n      dup4\n      0xffffffff\n      and\n      0xe0\n      shl\n      dup2\n      mstore\n      0x04\n      add\n      tag_45\n      swap3\n      swap2\n      swap1\n      tag_46\n      jump\t// in\n    tag_45:\n      0x20\n      mload(0x40)\n      dup1\n      dup4\n      sub\n      dup2\n      dup7\n      gas\n      delegatecall\n      iszero\n      dup1\n      iszero\n      tag_48\n      jumpi\n      returndatasize\n      0x00\n      dup1\n      returndatacopy\n      revert(0x00, returndatasize)\n    tag_48:\n      pop\n      pop\n      pop\n      pop\n      mload(0x40)\n      returndatasize\n      not(0x1f)\n      0x1f\n      dup3\n      add\n      and\n      dup3\n      add\n      dup1\n      0x40\n      mstore\n      pop\n      dup2\n      add\n      swap1\n      tag_49\n      swap2\n      swap1\n      tag_50\n      jump\t// in\n    tag_49:\n        /* \"FundMe.sol\":725:790  PriceConverter.getPriceInUsd(aggregator, ethAmount) >= minimumUsd */\n      lt\n      iszero\n        /* \"FundMe.sol\":717:846  require(PriceConverter.getPriceInUsd(aggregator, ethAmount) >= minimumUsd, \"Please top up your balance to make this transaction\") */\n      tag_51\n      jumpi\n      mload(0x40)\n      0x08c379a000000000000000000000000000000000000000000000000000000000\n      dup2\n      mstore\n      0x04\n      add\n      tag_52\n      swap1\n      tag_53\n      jump\t// in\n    tag_52:\n      mload(0x40)\n      dup1\n      swap2\n      sub\n      swap1\n      revert\n    tag_51:\n        /* \"FundMe.sol\":852:859  funders */\n      0x00\n        /* \"FundMe.sol\":865:875  msg.sender */\n      caller\n        /* \"FundMe.sol\":852:876  funders.push(msg.sender) */\n      swap1\n      dup1\n      0x01\n      dup2\n      sload\n      add\n      dup1\n      dup3\n      sstore\n      dup1\n      swap2\n      pop\n      pop\n      0x01\n      swap1\n      sub\n      swap1\n      0x00\n      mstore\n      keccak256(0x00, 0x20)\n      add\n      0x00\n      swap1\n      swap2\n      swap1\n      swap2\n      swap1\n      swap2\n      0x0100\n      exp\n      dup2\n      sload\n      dup2\n      0xffffffffffffffffffffffffffffffffffffffff\n      mul\n      not\n      and\n      swap1\n      dup4\n      0xffffffffffffffffffffffffffffffffffffffff\n      and\n      mul\n      or\n      swap1\n      sstore\n      pop\n        /* \"FundMe.sol\":919:928  ethAmount */\n      dup1\n        /* \"FundMe.sol\":882:903  addressToAmountFunded */\n      0x01\n        /* \"FundMe.sol\":882:915  addressToAmountFunded[msg.sender] */\n      0x00\n        /* \"FundMe.sol\":904:914  msg.sender */\n      caller\n        /* \"FundMe.sol\":882:915  addressToAmountFunded[msg.sender] */\n      0xffffffffffffffffffffffffffffffffffffffff\n      and\n      0xffffffffffffffffffffffffffffffffffffffff\n      and\n      dup2\n      mstore\n      0x20\n      add\n      swap1\n      dup2\n      mstore\n      0x20\n      add\n      0x00\n      keccak256\n      0x00\n        /* \"FundMe.sol\":882:928  addressToAmountFunded[msg.sender] += ethAmount */\n      dup3\n      dup3\n      sload\n      tag_55\n      swap2\n      swap1\n      tag_56\n      jump\t// in\n    tag_55:\n      swap3\n      pop\n      pop\n      dup2\n      swap1\n      sstore\n      pop\n        /* \"FundMe.sol\":676:935  {... */\n      pop\n        /* \"FundMe.sol\":645:935  function fund() public payable {... */\n      jump\t// out\n        /* \"FundMe.sol\":373:397  address[] public funders */\n    tag_33:\n      0x00\n      dup2\n      dup2\n      sload\n      dup2\n      lt\n      tag_57\n      jumpi\n      0x00\n      dup1\n      revert\n    tag_57:\n      swap1\n      0x00\n      mstore\n      keccak256(0x00, 0x20)\n      add\n      0x00\n      swap2\n      pop\n      sload\n      swap1\n      0x0100\n      exp\n      swap1\n      div\n      0xffffffffffffffffffffffffffffffffffffffff\n      and\n      dup2\n      jump\t// out\n        /* \"#utility.yul\":7:84   */\n    tag_59:\n        /* \"#utility.yul\":44:51   */\n      0x00\n        /* \"#utility.yul\":73:78   */\n      dup2\n        /* \"#utility.yul\":62:78   */\n      swap1\n      pop\n        /* \"#utility.yul\":7:84   */\n      swap2\n      swap1\n      pop\n      jump\t// out\n        /* \"#utility.yul\":90:208   */\n    tag_60:\n        /* \"#utility.yul\":177:201   */\n      tag_86\n        /* \"#utility.yul\":195:200   */\n      dup2\n        /* \"#utility.yul\":177:201   */\n      tag_59\n      jump\t// in\n    tag_86:\n        /* \"#utility.yul\":172:175   */\n      dup3\n        /* \"#utility.yul\":165:202   */\n      mstore\n        /* \"#utility.yul\":90:208   */\n      pop\n      pop\n      jump\t// out\n        /* \"#utility.yul\":214:436   */\n    tag_12:\n        /* \"#utility.yul\":307:311   */\n      0x00\n        /* \"#utility.yul\":345:347   */\n      0x20\n        /* \"#utility.yul\":334:343   */\n      dup3\n        /* \"#utility.yul\":330:348   */\n      add\n        /* \"#utility.yul\":322:348   */\n      swap1\n      pop\n        /* \"#utility.yul\":358:429   */\n      tag_88\n        /* \"#utility.yul\":426:427   */\n      0x00\n        /* \"#utility.yul\":415:424   */\n      dup4\n        /* \"#utility.yul\":411:428   */\n      add\n        /* \"#utility.yul\":402:408   */\n      dup5\n        /* \"#utility.yul\":358:429   */\n      tag_60\n      jump\t// in\n    tag_88:\n        /* \"#utility.yul\":214:436   */\n      swap3\n      swap2\n      pop\n      pop\n      jump\t// out\n        /* \"#utility.yul\":442:568   */\n    tag_61:\n        /* \"#utility.yul\":479:486   */\n      0x00\n        /* \"#utility.yul\":519:561   */\n      0xffffffffffffffffffffffffffffffffffffffff\n        /* \"#utility.yul\":512:517   */\n      dup3\n        /* \"#utility.yul\":508:562   */\n      and\n        /* \"#utility.yul\":497:562   */\n      swap1\n      pop\n        /* \"#utility.yul\":442:568   */\n      swap2\n      swap1\n      pop\n      jump\t// out\n        /* \"#utility.yul\":574:634   */\n    tag_62:\n        /* \"#utility.yul\":602:605   */\n      0x00\n        /* \"#utility.yul\":623:628   */\n      dup2\n        /* \"#utility.yul\":616:628   */\n      swap1\n      pop\n        /* \"#utility.yul\":574:634   */\n      swap2\n      swap1\n      pop\n      jump\t// out\n        /* \"#utility.yul\":640:782   */\n    tag_63:\n        /* \"#utility.yul\":690:699   */\n      0x00\n        /* \"#utility.yul\":723:776   */\n      tag_92\n        /* \"#utility.yul\":741:775   */\n      tag_93\n        /* \"#utility.yul\":750:774   */\n      tag_94\n        /* \"#utility.yul\":768:773   */\n      dup5\n        /* \"#utility.yul\":750:774   */\n      tag_61\n      jump\t// in\n    tag_94:\n        /* \"#utility.yul\":741:775   */\n      tag_62\n      jump\t// in\n    tag_93:\n        /* \"#utility.yul\":723:776   */\n      tag_61\n      jump\t// in\n    tag_92:\n        /* \"#utility.yul\":710:776   */\n      swap1\n      pop\n        /* \"#utility.yul\":640:782   */\n      swap2\n      swap1\n      pop\n      jump\t// out\n        /* \"#utility.yul\":788:914   */\n    tag_64:\n        /* \"#utility.yul\":838:847   */\n      0x00\n        /* \"#utility.yul\":871:908   */\n      tag_96\n        /* \"#utility.yul\":902:907   */\n      dup3\n        /* \"#utility.yul\":871:908   */\n      tag_63\n      jump\t// in\n    tag_96:\n        /* \"#utility.yul\":858:908   */\n      swap1\n      pop\n        /* \"#utility.yul\":788:914   */\n      swap2\n      swap1\n      pop\n      jump\t// out\n        /* \"#utility.yul\":920:1074   */\n    tag_65:\n        /* \"#utility.yul\":998:1007   */\n      0x00\n        /* \"#utility.yul\":1031:1068   */\n      tag_98\n        /* \"#utility.yul\":1062:1067   */\n      dup3\n        /* \"#utility.yul\":1031:1068   */\n      tag_64\n      jump\t// in\n    tag_98:\n        /* \"#utility.yul\":1018:1068   */\n      swap1\n      pop\n        /* \"#utility.yul\":920:1074   */\n      swap2\n      swap1\n      pop\n      jump\t// out\n        /* \"#utility.yul\":1080:1267   */\n    tag_66:\n        /* \"#utility.yul\":1195:1260   */\n      tag_100\n        /* \"#utility.yul\":1254:1259   */\n      dup2\n        /* \"#utility.yul\":1195:1260   */\n      tag_65\n      jump\t// in\n    tag_100:\n        /* \"#utility.yul\":1190:1193   */\n      dup3\n        /* \"#utility.yul\":1183:1261   */\n      mstore\n        /* \"#utility.yul\":1080:1267   */\n      pop\n      pop\n      jump\t// out\n        /* \"#utility.yul\":1273:1551   */\n    tag_17:\n        /* \"#utility.yul\":1394:1398   */\n      0x00\n        /* \"#utility.yul\":1432:1434   */\n      0x20\n        /* \"#utility.yul\":1421:1430   */\n      dup3\n        /* \"#utility.yul\":1417:1435   */\n      add\n        /* \"#utility.yul\":1409:1435   */\n      swap1\n      pop\n        /* \"#utility.yul\":1445:1544   */\n      tag_102\n        /* \"#utility.yul\":1541:1542   */\n      0x00\n        /* \"#utility.yul\":1530:1539   */\n      dup4\n        /* \"#utility.yul\":1526:1543   */\n      add\n        /* \"#utility.yul\":1517:1523   */\n      dup5\n        /* \"#utility.yul\":1445:1544   */\n      tag_66\n      jump\t// in\n    tag_102:\n        /* \"#utility.yul\":1273:1551   */\n      swap3\n      swap2\n      pop\n      pop\n      jump\t// out\n        /* \"#utility.yul\":1638:1755   */\n    tag_68:\n        /* \"#utility.yul\":1747:1748   */\n      0x00\n        /* \"#utility.yul\":1744:1745   */\n      dup1\n        /* \"#utility.yul\":1737:1749   */\n      revert\n        /* \"#utility.yul\":1884:1980   */\n    tag_70:\n        /* \"#utility.yul\":1921:1928   */\n      0x00\n        /* \"#utility.yul\":1950:1974   */\n      tag_107\n        /* \"#utility.yul\":1968:1973   */\n      dup3\n        /* \"#utility.yul\":1950:1974   */\n      tag_61\n      jump\t// in\n    tag_107:\n        /* \"#utility.yul\":1939:1974   */\n      swap1\n      pop\n        /* \"#utility.yul\":1884:1980   */\n      swap2\n      swap1\n      pop\n      jump\t// out\n        /* \"#utility.yul\":1986:2108   */\n    tag_71:\n        /* \"#utility.yul\":2059:2083   */\n      tag_109\n        /* \"#utility.yul\":2077:2082   */\n      dup2\n        /* \"#utility.yul\":2059:2083   */\n      tag_70\n      jump\t// in\n    tag_109:\n        /* \"#utility.yul\":2052:2057   */\n      dup2\n        /* \"#utility.yul\":2049:2084   */\n      eq\n        /* \"#utility.yul\":2039:2102   */\n      tag_110\n      jumpi\n        /* \"#utility.yul\":2098:2099   */\n      0x00\n        /* \"#utility.yul\":2095:2096   */\n      dup1\n        /* \"#utility.yul\":2088:2100   */\n      revert\n        /* \"#utility.yul\":2039:2102   */\n    tag_110:\n        /* \"#utility.yul\":1986:2108   */\n      pop\n      jump\t// out\n        /* \"#utility.yul\":2114:2253   */\n    tag_72:\n        /* \"#utility.yul\":2160:2165   */\n      0x00\n        /* \"#utility.yul\":2198:2204   */\n      dup2\n        /* \"#utility.yul\":2185:2205   */\n      calldataload\n        /* \"#utility.yul\":2176:2205   */\n      swap1\n      pop\n        /* \"#utility.yul\":2214:2247   */\n      tag_112\n        /* \"#utility.yul\":2241:2246   */\n      dup2\n        /* \"#utility.yul\":2214:2247   */\n      tag_71\n      jump\t// in\n    tag_112:\n        /* \"#utility.yul\":2114:2253   */\n      swap3\n      swap2\n      pop\n      pop\n      jump\t// out\n        /* \"#utility.yul\":2259:2588   */\n    tag_24:\n        /* \"#utility.yul\":2318:2324   */\n      0x00\n        /* \"#utility.yul\":2367:2369   */\n      0x20\n        /* \"#utility.yul\":2355:2364   */\n      dup3\n        /* \"#utility.yul\":2346:2353   */\n      dup5\n        /* \"#utility.yul\":2342:2365   */\n      sub\n        /* \"#utility.yul\":2338:2370   */\n      slt\n        /* \"#utility.yul\":2335:2454   */\n      iszero\n      tag_114\n      jumpi\n        /* \"#utility.yul\":2373:2452   */\n      tag_115\n      tag_68\n      jump\t// in\n    tag_115:\n        /* \"#utility.yul\":2335:2454   */\n    tag_114:\n        /* \"#utility.yul\":2493:2494   */\n      0x00\n        /* \"#utility.yul\":2518:2571   */\n      tag_116\n        /* \"#utility.yul\":2563:2570   */\n      dup5\n        /* \"#utility.yul\":2554:2560   */\n      dup3\n        /* \"#utility.yul\":2543:2552   */\n      dup6\n        /* \"#utility.yul\":2539:2561   */\n      add\n        /* \"#utility.yul\":2518:2571   */\n      tag_72\n      jump\t// in\n    tag_116:\n        /* \"#utility.yul\":2508:2571   */\n      swap2\n      pop\n        /* \"#utility.yul\":2464:2581   */\n      pop\n        /* \"#utility.yul\":2259:2588   */\n      swap3\n      swap2\n      pop\n      pop\n      jump\t// out\n        /* \"#utility.yul\":2594:2716   */\n    tag_73:\n        /* \"#utility.yul\":2667:2691   */\n      tag_118\n        /* \"#utility.yul\":2685:2690   */\n      dup2\n        /* \"#utility.yul\":2667:2691   */\n      tag_59\n      jump\t// in\n    tag_118:\n        /* \"#utility.yul\":2660:2665   */\n      dup2\n        /* \"#utility.yul\":2657:2692   */\n      eq\n        /* \"#utility.yul\":2647:2710   */\n      tag_119\n      jumpi\n        /* \"#utility.yul\":2706:2707   */\n      0x00\n        /* \"#utility.yul\":2703:2704   */\n      dup1\n        /* \"#utility.yul\":2696:2708   */\n      revert\n        /* \"#utility.yul\":2647:2710   */\n    tag_119:\n        /* \"#utility.yul\":2594:2716   */\n      pop\n      jump\t// out\n        /* \"#utility.yul\":2722:2861   */\n    tag_74:\n        /* \"#utility.yul\":2768:2773   */\n      0x00\n        /* \"#utility.yul\":2806:2812   */\n      dup2\n        /* \"#utility.yul\":2793:2813   */\n      calldataload\n        /* \"#utility.yul\":2784:2813   */\n      swap1\n      pop\n        /* \"#utility.yul\":2822:2855   */\n      tag_121\n        /* \"#utility.yul\":2849:2854   */\n      dup2\n        /* \"#utility.yul\":2822:2855   */\n      tag_73\n      jump\t// in\n    tag_121:\n        /* \"#utility.yul\":2722:2861   */\n      swap3\n      swap2\n      pop\n      pop\n      jump\t// out\n        /* \"#utility.yul\":2867:3196   */\n    tag_32:\n        /* \"#utility.yul\":2926:2932   */\n      0x00\n        /* \"#utility.yul\":2975:2977   */\n      0x20\n        /* \"#utility.yul\":2963:2972   */\n      dup3\n        /* \"#utility.yul\":2954:2961   */\n      dup5\n        /* \"#utility.yul\":2950:2973   */\n      sub\n        /* \"#utility.yul\":2946:2978   */\n      slt\n        /* \"#utility.yul\":2943:3062   */\n      iszero\n      tag_123\n      jumpi\n        /* \"#utility.yul\":2981:3060   */\n      tag_124\n      tag_68\n      jump\t// in\n    tag_124:\n        /* \"#utility.yul\":2943:3062   */\n    tag_123:\n        /* \"#utility.yul\":3101:3102   */\n      0x00\n        /* \"#utility.yul\":3126:3179   */\n      tag_125\n        /* \"#utility.yul\":3171:3178   */\n      dup5\n        /* \"#utility.yul\":3162:3168   */\n      dup3\n        /* \"#utility.yul\":3151:3160   */\n      dup6\n        /* \"#utility.yul\":3147:3169   */\n      add\n        /* \"#utility.yul\":3126:3179   */\n      tag_74\n      jump\t// in\n    tag_125:\n        /* \"#utility.yul\":3116:3179   */\n      swap2\n      pop\n        /* \"#utility.yul\":3072:3189   */\n      pop\n        /* \"#utility.yul\":2867:3196   */\n      swap3\n      swap2\n      pop\n      pop\n      jump\t// out\n        /* \"#utility.yul\":3202:3320   */\n    tag_75:\n        /* \"#utility.yul\":3289:3313   */\n      tag_127\n        /* \"#utility.yul\":3307:3312   */\n      dup2\n        /* \"#utility.yul\":3289:3313   */\n      tag_70\n      jump\t// in\n    tag_127:\n        /* \"#utility.yul\":3284:3287   */\n      dup3\n        /* \"#utility.yul\":3277:3314   */\n      mstore\n        /* \"#utility.yul\":3202:3320   */\n      pop\n      pop\n      jump\t// out\n        /* \"#utility.yul\":3326:3548   */\n    tag_35:\n        /* \"#utility.yul\":3419:3423   */\n      0x00\n        /* \"#utility.yul\":3457:3459   */\n      0x20\n        /* \"#utility.yul\":3446:3455   */\n      dup3\n        /* \"#utility.yul\":3442:3460   */\n      add\n        /* \"#utility.yul\":3434:3460   */\n      swap1\n      pop\n        /* \"#utility.yul\":3470:3541   */\n      tag_129\n        /* \"#utility.yul\":3538:3539   */\n      0x00\n        /* \"#utility.yul\":3527:3536   */\n      dup4\n        /* \"#utility.yul\":3523:3540   */\n      add\n        /* \"#utility.yul\":3514:3520   */\n      dup5\n        /* \"#utility.yul\":3470:3541   */\n      tag_75\n      jump\t// in\n    tag_129:\n        /* \"#utility.yul\":3326:3548   */\n      swap3\n      swap2\n      pop\n      pop\n      jump\t// out\n        /* \"#utility.yul\":3554:3734   */\n    tag_42:\n        /* \"#utility.yul\":3602:3679   */\n      0x4e487b7100000000000000000000000000000000000000000000000000000000\n        /* \"#utility.yul\":3599:3600   */\n      0x00\n        /* \"#utility.yul\":3592:3680   */\n      mstore\n        /* \"#utility.yul\":3699:3703   */\n      0x32\n        /* \"#utility.yul\":3696:3697   */\n      0x04\n        /* \"#utility.yul\":3689:3704   */\n      mstore\n        /* \"#utility.yul\":3723:3727   */\n      0x24\n        /* \"#utility.yul\":3720:3721   */\n      0x00\n        /* \"#utility.yul\":3713:3728   */\n      revert\n        /* \"#utility.yul\":3740:3935   */\n    tag_76:\n        /* \"#utility.yul\":3863:3928   */\n      tag_132\n        /* \"#utility.yul\":3922:3927   */\n      dup2\n        /* \"#utility.yul\":3863:3928   */\n      tag_65\n      jump\t// in\n    tag_132:\n        /* \"#utility.yul\":3858:3861   */\n      dup3\n        /* \"#utility.yul\":3851:3929   */\n      mstore\n        /* \"#utility.yul\":3740:3935   */\n      pop\n      pop\n      jump\t// out\n        /* \"#utility.yul\":3941:4067   */\n    tag_77:\n        /* \"#utility.yul\":4036:4060   */\n      tag_134\n        /* \"#utility.yul\":4054:4059   */\n      dup2\n        /* \"#utility.yul\":4036:4060   */\n      tag_59\n      jump\t// in\n    tag_134:\n        /* \"#utility.yul\":4031:4034   */\n      dup3\n        /* \"#utility.yul\":4024:4061   */\n      mstore\n        /* \"#utility.yul\":3941:4067   */\n      pop\n      pop\n      jump\t// out\n        /* \"#utility.yul\":4073:4485   */\n    tag_46:\n        /* \"#utility.yul\":4230:4234   */\n      0x00\n        /* \"#utility.yul\":4268:4270   */\n      0x40\n        /* \"#utility.yul\":4257:4266   */\n      dup3\n        /* \"#utility.yul\":4253:4271   */\n      add\n        /* \"#utility.yul\":4245:4271   */\n      swap1\n      pop\n        /* \"#utility.yul\":4281:4388   */\n      tag_136\n        /* \"#utility.yul\":4385:4386   */\n      0x00\n        /* \"#utility.yul\":4374:4383   */\n      dup4\n        /* \"#utility.yul\":4370:4387   */\n      add\n        /* \"#utility.yul\":4361:4367   */\n      dup6\n        /* \"#utility.yul\":4281:4388   */\n      tag_76\n      jump\t// in\n    tag_136:\n        /* \"#utility.yul\":4398:4478   */\n      tag_137\n        /* \"#utility.yul\":4474:4476   */\n      0x20\n        /* \"#utility.yul\":4463:4472   */\n      dup4\n        /* \"#utility.yul\":4459:4477   */\n      add\n        /* \"#utility.yul\":4450:4456   */\n      dup5\n        /* \"#utility.yul\":4398:4478   */\n      tag_77\n      jump\t// in\n    tag_137:\n        /* \"#utility.yul\":4073:4485   */\n      swap4\n      swap3\n      pop\n      pop\n      pop\n      jump\t// out\n        /* \"#utility.yul\":4491:4634   */\n    tag_78:\n        /* \"#utility.yul\":4548:4553   */\n      0x00\n        /* \"#utility.yul\":4579:4585   */\n      dup2\n        /* \"#utility.yul\":4573:4586   */\n      mload\n        /* \"#utility.yul\":4564:4586   */\n      swap1\n      pop\n        /* \"#utility.yul\":4595:4628   */\n      tag_139\n        /* \"#utility.yul\":4622:4627   */\n      dup2\n        /* \"#utility.yul\":4595:4628   */\n      tag_73\n      jump\t// in\n    tag_139:\n        /* \"#utility.yul\":4491:4634   */\n      swap3\n      swap2\n      pop\n      pop\n      jump\t// out\n        /* \"#utility.yul\":4640:4991   */\n    tag_50:\n        /* \"#utility.yul\":4710:4716   */\n      0x00\n        /* \"#utility.yul\":4759:4761   */\n      0x20\n        /* \"#utility.yul\":4747:4756   */\n      dup3\n        /* \"#utility.yul\":4738:4745   */\n      dup5\n        /* \"#utility.yul\":4734:4757   */\n      sub\n        /* \"#utility.yul\":4730:4762   */\n      slt\n        /* \"#utility.yul\":4727:4846   */\n      iszero\n      tag_141\n      jumpi\n        /* \"#utility.yul\":4765:4844   */\n      tag_142\n      tag_68\n      jump\t// in\n    tag_142:\n        /* \"#utility.yul\":4727:4846   */\n    tag_141:\n        /* \"#utility.yul\":4885:4886   */\n      0x00\n        /* \"#utility.yul\":4910:4974   */\n      tag_143\n        /* \"#utility.yul\":4966:4973   */\n      dup5\n        /* \"#utility.yul\":4957:4963   */\n      dup3\n        /* \"#utility.yul\":4946:4955   */\n      dup6\n        /* \"#utility.yul\":4942:4964   */\n      add\n        /* \"#utility.yul\":4910:4974   */\n      tag_78\n      jump\t// in\n    tag_143:\n        /* \"#utility.yul\":4900:4974   */\n      swap2\n      pop\n        /* \"#utility.yul\":4856:4984   */\n      pop\n        /* \"#utility.yul\":4640:4991   */\n      swap3\n      swap2\n      pop\n      pop\n      jump\t// out\n        /* \"#utility.yul\":4997:5166   */\n    tag_79:\n        /* \"#utility.yul\":5081:5092   */\n      0x00\n        /* \"#utility.yul\":5115:5121   */\n      dup3\n        /* \"#utility.yul\":5110:5113   */\n      dup3\n        /* \"#utility.yul\":5103:5122   */\n      mstore\n        /* \"#utility.yul\":5155:5159   */\n      0x20\n        /* \"#utility.yul\":5150:5153   */\n      dup3\n        /* \"#utility.yul\":5146:5160   */\n      add\n        /* \"#utility.yul\":5131:5160   */\n      swap1\n      pop\n        /* \"#utility.yul\":4997:5166   */\n      swap3\n      swap2\n      pop\n      pop\n      jump\t// out\n        /* \"#utility.yul\":5172:5410   */\n    tag_80:\n        /* \"#utility.yul\":5312:5346   */\n      0x506c6561736520746f7020757020796f75722062616c616e636520746f206d61\n        /* \"#utility.yul\":5308:5309   */\n      0x00\n        /* \"#utility.yul\":5300:5306   */\n      dup3\n        /* \"#utility.yul\":5296:5310   */\n      add\n        /* \"#utility.yul\":5289:5347   */\n      mstore\n        /* \"#utility.yul\":5381:5402   */\n      0x6b652074686973207472616e73616374696f6e00000000000000000000000000\n        /* \"#utility.yul\":5376:5378   */\n      0x20\n        /* \"#utility.yul\":5368:5374   */\n      dup3\n        /* \"#utility.yul\":5364:5379   */\n      add\n        /* \"#utility.yul\":5357:5403   */\n      mstore\n        /* \"#utility.yul\":5172:5410   */\n      pop\n      jump\t// out\n        /* \"#utility.yul\":5416:5782   */\n    tag_81:\n        /* \"#utility.yul\":5558:5561   */\n      0x00\n        /* \"#utility.yul\":5579:5646   */\n      tag_147\n        /* \"#utility.yul\":5643:5645   */\n      0x33\n        /* \"#utility.yul\":5638:5641   */\n      dup4\n        /* \"#utility.yul\":5579:5646   */\n      tag_79\n      jump\t// in\n    tag_147:\n        /* \"#utility.yul\":5572:5646   */\n      swap2\n      pop\n        /* \"#utility.yul\":5655:5748   */\n      tag_148\n        /* \"#utility.yul\":5744:5747   */\n      dup3\n        /* \"#utility.yul\":5655:5748   */\n      tag_80\n      jump\t// in\n    tag_148:\n        /* \"#utility.yul\":5773:5775   */\n      0x40\n        /* \"#utility.yul\":5768:5771   */\n      dup3\n        /* \"#utility.yul\":5764:5776   */\n      add\n        /* \"#utility.yul\":5757:5776   */\n      swap1\n      pop\n        /* \"#utility.yul\":5416:5782   */\n      swap2\n      swap1\n      pop\n      jump\t// out\n        /* \"#utility.yul\":5788:6207   */\n    tag_53:\n        /* \"#utility.yul\":5954:5958   */\n      0x00\n        /* \"#utility.yul\":5992:5994   */\n      0x20\n        /* \"#utility.yul\":5981:5990   */\n      dup3\n        /* \"#utility.yul\":5977:5995   */\n      add\n        /* \"#utility.yul\":5969:5995   */\n      swap1\n      pop\n        /* \"#utility.yul\":6041:6050   */\n      dup2\n        /* \"#utility.yul\":6035:6039   */\n      dup2\n        /* \"#utility.yul\":6031:6051   */\n      sub\n        /* \"#utility.yul\":6027:6028   */\n      0x00\n        /* \"#utility.yul\":6016:6025   */\n      dup4\n        /* \"#utility.yul\":6012:6029   */\n      add\n        /* \"#utility.yul\":6005:6052   */\n      mstore\n        /* \"#utility.yul\":6069:6200   */\n      tag_150\n        /* \"#utility.yul\":6195:6199   */\n      dup2\n        /* \"#utility.yul\":6069:6200   */\n      tag_81\n      jump\t// in\n    tag_150:\n        /* \"#utility.yul\":6061:6200   */\n      swap1\n      pop\n        /* \"#utility.yul\":5788:6207   */\n      swap2\n      swap1\n      pop\n      jump\t// out\n        /* \"#utility.yul\":6213:6393   */\n    tag_82:\n        /* \"#utility.yul\":6261:6338   */\n      0x4e487b7100000000000000000000000000000000000000000000000000000000\n        /* \"#utility.yul\":6258:6259   */\n      0x00\n        /* \"#utility.yul\":6251:6339   */\n      mstore\n        /* \"#utility.yul\":6358:6362   */\n      0x11\n        /* \"#utility.yul\":6355:6356   */\n      0x04\n        /* \"#utility.yul\":6348:6363   */\n      mstore\n        /* \"#utility.yul\":6382:6386   */\n      0x24\n        /* \"#utility.yul\":6379:6380   */\n      0x00\n        /* \"#utility.yul\":6372:6387   */\n      revert\n        /* \"#utility.yul\":6399:6590   */\n    tag_56:\n        /* \"#utility.yul\":6439:6442   */\n      0x00\n        /* \"#utility.yul\":6458:6478   */\n      tag_153\n        /* \"#utility.yul\":6476:6477   */\n      dup3\n        /* \"#utility.yul\":6458:6478   */\n      tag_59\n      jump\t// in\n    tag_153:\n        /* \"#utility.yul\":6453:6478   */\n      swap2\n      pop\n        /* \"#utility.yul\":6492:6512   */\n      tag_154\n        /* \"#utility.yul\":6510:6511   */\n      dup4\n        /* \"#utility.yul\":6492:6512   */\n      tag_59\n      jump\t// in\n    tag_154:\n        /* \"#utility.yul\":6487:6512   */\n      swap3\n      pop\n        /* \"#utility.yul\":6535:6536   */\n      dup3\n        /* \"#utility.yul\":6532:6533   */\n      dup3\n        /* \"#utility.yul\":6528:6537   */\n      add\n        /* \"#utility.yul\":6521:6537   */\n      swap1\n      pop\n        /* \"#utility.yul\":6556:6559   */\n      dup1\n        /* \"#utility.yul\":6553:6554   */\n      dup3\n        /* \"#utility.yul\":6550:6560   */\n      gt\n        /* \"#utility.yul\":6547:6583   */\n      iszero\n      tag_155\n      jumpi\n        /* \"#utility.yul\":6563:6581   */\n      tag_156\n      tag_82\n      jump\t// in\n    tag_156:\n        /* \"#utility.yul\":6547:6583   */\n    tag_155:\n        /* \"#utility.yul\":6399:6590   */\n      swap3\n      swap2\n      pop\n      pop\n      jump\t// out\n\n    auxdata: 0xa26469706673582212202fd8f77a6ab14cc36103b7bb8b0727068fe73f6725e66f3e889c522bcce6608964736f6c63430008160033\n}\n",
				"bytecode": {
					"linkReferences": {
						"PriceConverter.sol": {
							"PriceConverter": [
								{
									"length": 20,
									"start": 854
								}
							]
						}
					},
					"object": "6080604052674563918244f4000060035534801561001b575f80fd5b506040516108ad3803806108ad833981810160405281019061003d91906100f2565b8060025f6101000a81548173ffffffffffffffffffffffffffffffffffffffff021916908373ffffffffffffffffffffffffffffffffffffffff1602179055505061011d565b5f80fd5b5f73ffffffffffffffffffffffffffffffffffffffff82169050919050565b5f6100b082610087565b9050919050565b5f6100c1826100a6565b9050919050565b6100d1816100b7565b81146100db575f80fd5b50565b5f815190506100ec816100c8565b92915050565b5f6020828403121561010757610106610083565b5b5f610114848285016100de565b91505092915050565b6107838061012a5f395ff3fe608060405260043610610054575f3560e01c8063098de82014610058578063245a7bfc146100825780633ccfd60b146100ac5780633e47d6f3146100c2578063b60d4288146100fe578063dc0d3dff14610108575b5f80fd5b348015610063575f80fd5b5061006c610144565b604051610079919061040b565b60405180910390f35b34801561008d575f80fd5b5061009661014a565b6040516100a3919061049e565b60405180910390f35b3480156100b7575f80fd5b506100c061016f565b005b3480156100cd575f80fd5b506100e860048036038101906100e391906104f6565b61020e565b6040516100f5919061040b565b60405180910390f35b610106610223565b005b348015610113575f80fd5b5061012e6004803603810190610129919061054b565b6103b9565b60405161013b9190610585565b60405180910390f35b60035481565b60025f9054906101000a900473ffffffffffffffffffffffffffffffffffffffff1681565b5f5b5f8054905081101561020b575f8082815481106101915761019061059e565b5b905f5260205f20015f9054906101000a900473ffffffffffffffffffffffffffffffffffffffff1690505f60015f8373ffffffffffffffffffffffffffffffffffffffff1673ffffffffffffffffffffffffffffffffffffffff1681526020019081526020015f2081905550508080600101915050610171565b50565b6001602052805f5260405f205f915090505481565b5f34905060035473__$0eaef9e137657dd7174bf71a05772e68ff$__63db23d7e660025f9054906101000a900473ffffffffffffffffffffffffffffffffffffffff16846040518363ffffffff1660e01b81526004016102849291906105e9565b602060405180830381865af415801561029f573d5f803e3d5ffd5b505050506040513d601f19601f820116820180604052508101906102c39190610624565b1015610304576040517f08c379a00000000000000000000000000000000000000000000000000000000081526004016102fb906106cf565b60405180910390fd5b5f33908060018154018082558091505060019003905f5260205f20015f9091909190916101000a81548173ffffffffffffffffffffffffffffffffffffffff021916908373ffffffffffffffffffffffffffffffffffffffff1602179055508060015f3373ffffffffffffffffffffffffffffffffffffffff1673ffffffffffffffffffffffffffffffffffffffff1681526020019081526020015f205f8282546103af919061071a565b9250508190555050565b5f81815481106103c7575f80fd5b905f5260205f20015f915054906101000a900473ffffffffffffffffffffffffffffffffffffffff1681565b5f819050919050565b610405816103f3565b82525050565b5f60208201905061041e5f8301846103fc565b92915050565b5f73ffffffffffffffffffffffffffffffffffffffff82169050919050565b5f819050919050565b5f61046661046161045c84610424565b610443565b610424565b9050919050565b5f6104778261044c565b9050919050565b5f6104888261046d565b9050919050565b6104988161047e565b82525050565b5f6020820190506104b15f83018461048f565b92915050565b5f80fd5b5f6104c582610424565b9050919050565b6104d5816104bb565b81146104df575f80fd5b50565b5f813590506104f0816104cc565b92915050565b5f6020828403121561050b5761050a6104b7565b5b5f610518848285016104e2565b91505092915050565b61052a816103f3565b8114610534575f80fd5b50565b5f8135905061054581610521565b92915050565b5f602082840312156105605761055f6104b7565b5b5f61056d84828501610537565b91505092915050565b61057f816104bb565b82525050565b5f6020820190506105985f830184610576565b92915050565b7f4e487b71000000000000000000000000000000000000000000000000000000005f52603260045260245ffd5b6105d48161047e565b82525050565b6105e3816103f3565b82525050565b5f6040820190506105fc5f8301856105cb565b61060960208301846105da565b9392505050565b5f8151905061061e81610521565b92915050565b5f60208284031215610639576106386104b7565b5b5f61064684828501610610565b91505092915050565b5f82825260208201905092915050565b7f506c6561736520746f7020757020796f75722062616c616e636520746f206d615f8201527f6b652074686973207472616e73616374696f6e00000000000000000000000000602082015250565b5f6106b960338361064f565b91506106c48261065f565b604082019050919050565b5f6020820190508181035f8301526106e6816106ad565b9050919050565b7f4e487b71000000000000000000000000000000000000000000000000000000005f52601160045260245ffd5b5f610724826103f3565b915061072f836103f3565b9250828201905080821115610747576107466106ed565b5b9291505056fea26469706673582212202fd8f77a6ab14cc36103b7bb8b0727068fe73f6725e66f3e889c522bcce6608964736f6c63430008160033",
					"opcodes": "PUSH1 0x80 PUSH1 0x40 MSTORE PUSH8 0x4563918244F40000 PUSH1 0x3 SSTORE CALLVALUE DUP1 ISZERO PUSH2 0x1B JUMPI PUSH0 DUP1 REVERT JUMPDEST POP PUSH1 0x40 MLOAD PUSH2 0x8AD CODESIZE SUB DUP1 PUSH2 0x8AD DUP4 CODECOPY DUP2 DUP2 ADD PUSH1 0x40 MSTORE DUP2 ADD SWAP1 PUSH2 0x3D SWAP2 SWAP1 PUSH2 0xF2 JUMP JUMPDEST DUP1 PUSH1 0x2 PUSH0 PUSH2 0x100 EXP DUP2 SLOAD DUP2 PUSH20 0xFFFFFFFFFFFFFFFFFFFFFFFFFFFFFFFFFFFFFFFF MUL NOT AND SWAP1 DUP4 PUSH20 0xFFFFFFFFFFFFFFFFFFFFFFFFFFFFFFFFFFFFFFFF AND MUL OR SWAP1 SSTORE POP POP PUSH2 0x11D JUMP JUMPDEST PUSH0 DUP1 REVERT JUMPDEST PUSH0 PUSH20 0xFFFFFFFFFFFFFFFFFFFFFFFFFFFFFFFFFFFFFFFF DUP3 AND SWAP1 POP SWAP2 SWAP1 POP JUMP JUMPDEST PUSH0 PUSH2 0xB0 DUP3 PUSH2 0x87 JUMP JUMPDEST SWAP1 POP SWAP2 SWAP1 POP JUMP JUMPDEST PUSH0 PUSH2 0xC1 DUP3 PUSH2 0xA6 JUMP JUMPDEST SWAP1 POP SWAP2 SWAP1 POP JUMP JUMPDEST PUSH2 0xD1 DUP2 PUSH2 0xB7 JUMP JUMPDEST DUP2 EQ PUSH2 0xDB JUMPI PUSH0 DUP1 REVERT JUMPDEST POP JUMP JUMPDEST PUSH0 DUP2 MLOAD SWAP1 POP PUSH2 0xEC DUP2 PUSH2 0xC8 JUMP JUMPDEST SWAP3 SWAP2 POP POP JUMP JUMPDEST PUSH0 PUSH1 0x20 DUP3 DUP5 SUB SLT ISZERO PUSH2 0x107 JUMPI PUSH2 0x106 PUSH2 0x83 JUMP JUMPDEST JUMPDEST PUSH0 PUSH2 0x114 DUP5 DUP3 DUP6 ADD PUSH2 0xDE JUMP JUMPDEST SWAP2 POP POP SWAP3 SWAP2 POP POP JUMP JUMPDEST PUSH2 0x783 DUP1 PUSH2 0x12A PUSH0 CODECOPY PUSH0 RETURN INVALID PUSH1 0x80 PUSH1 0x40 MSTORE PUSH1 0x4 CALLDATASIZE LT PUSH2 0x54 JUMPI PUSH0 CALLDATALOAD PUSH1 0xE0 SHR DUP1 PUSH4 0x98DE820 EQ PUSH2 0x58 JUMPI DUP1 PUSH4 0x245A7BFC EQ PUSH2 0x82 JUMPI DUP1 PUSH4 0x3CCFD60B EQ PUSH2 0xAC JUMPI DUP1 PUSH4 0x3E47D6F3 EQ PUSH2 0xC2 JUMPI DUP1 PUSH4 0xB60D4288 EQ PUSH2 0xFE JUMPI DUP1 PUSH4 0xDC0D3DFF EQ PUSH2 0x108 JUMPI JUMPDEST PUSH0 DUP1 REVERT JUMPDEST CALLVALUE DUP1 ISZERO PUSH2 0x63 JUMPI PUSH0 DUP1 REVERT JUMPDEST POP PUSH2 0x6C PUSH2 0x144 JUMP JUMPDEST PUSH1 0x40 MLOAD PUSH2 0x79 SWAP2 SWAP1 PUSH2 0x40B JUMP JUMPDEST PUSH1 0x40 MLOAD DUP1 SWAP2 SUB SWAP1 RETURN JUMPDEST CALLVALUE DUP1 ISZERO PUSH2 0x8D JUMPI PUSH0 DUP1 REVERT JUMPDEST POP PUSH2 0x96 PUSH2 0x14A JUMP JUMPDEST PUSH1 0x40 MLOAD PUSH2 0xA3 SWAP2 SWAP1 PUSH2 0x49E JUMP JUMPDEST PUSH1 0x40 MLOAD DUP1 SWAP2 SUB SWAP1 RETURN JUMPDEST CALLVALUE DUP1 ISZERO PUSH2 0xB7 JUMPI PUSH0 DUP1 REVERT JUMPDEST POP PUSH2 0xC0 PUSH2 0x16F JUMP JUMPDEST STOP JUMPDEST CALLVALUE DUP1 ISZERO PUSH2 0xCD JUMPI PUSH0 DUP1 REVERT JUMPDEST POP PUSH2 0xE8 PUSH1 0x4 DUP1 CALLDATASIZE SUB DUP2 ADD SWAP1 PUSH2 0xE3 SWAP2 SWAP1 PUSH2 0x4F6 JUMP JUMPDEST PUSH2 0x20E JUMP JUMPDEST PUSH1 0x40 MLOAD PUSH2 0xF5 SWAP2 SWAP1 PUSH2 0x40B JUMP JUMPDEST PUSH1 0x40 MLOAD DUP1 SWAP2 SUB SWAP1 RETURN JUMPDEST PUSH2 0x106 PUSH2 0x223 JUMP JUMPDEST STOP JUMPDEST CALLVALUE DUP1 ISZERO PUSH2 0x113 JUMPI PUSH0 DUP1 REVERT JUMPDEST POP PUSH2 0x12E PUSH1 0x4 DUP1 CALLDATASIZE SUB DUP2 ADD SWAP1 PUSH2 0x129 SWAP2 SWAP1 PUSH2 0x54B JUMP JUMPDEST PUSH2 0x3B9 JUMP JUMPDEST PUSH1 0x40 MLOAD PUSH2 0x13B SWAP2 SWAP1 PUSH2 0x585 JUMP JUMPDEST PUSH1 0x40 MLOAD DUP1 SWAP2 SUB SWAP1 RETURN JUMPDEST PUSH1 0x3 SLOAD DUP2 JUMP JUMPDEST PUSH1 0x2 PUSH0 SWAP1 SLOAD SWAP1 PUSH2 0x100 EXP SWAP1 DIV PUSH20 0xFFFFFFFFFFFFFFFFFFFFFFFFFFFFFFFFFFFFFFFF AND DUP2 JUMP JUMPDEST PUSH0 JUMPDEST PUSH0 DUP1 SLOAD SWAP1 POP DUP2 LT ISZERO PUSH2 0x20B JUMPI PUSH0 DUP1 DUP3 DUP2 SLOAD DUP2 LT PUSH2 0x191 JUMPI PUSH2 0x190 PUSH2 0x59E JUMP JUMPDEST JUMPDEST SWAP1 PUSH0 MSTORE PUSH1 0x20 PUSH0 KECCAK256 ADD PUSH0 SWAP1 SLOAD SWAP1 PUSH2 0x100 EXP SWAP1 DIV PUSH20 0xFFFFFFFFFFFFFFFFFFFFFFFFFFFFFFFFFFFFFFFF AND SWAP1 POP PUSH0 PUSH1 0x1 PUSH0 DUP4 PUSH20 0xFFFFFFFFFFFFFFFFFFFFFFFFFFFFFFFFFFFFFFFF AND PUSH20 0xFFFFFFFFFFFFFFFFFFFFFFFFFFFFFFFFFFFFFFFF AND DUP2 MSTORE PUSH1 0x20 ADD SWAP1 DUP2 MSTORE PUSH1 0x20 ADD PUSH0 KECCAK256 DUP2 SWAP1 SSTORE POP POP DUP1 DUP1 PUSH1 0x1 ADD SWAP2 POP POP PUSH2 0x171 JUMP JUMPDEST POP JUMP JUMPDEST PUSH1 0x1 PUSH1 0x20 MSTORE DUP1 PUSH0 MSTORE PUSH1 0x40 PUSH0 KECCAK256 PUSH0 SWAP2 POP SWAP1 POP SLOAD DUP2 JUMP JUMPDEST PUSH0 CALLVALUE SWAP1 POP PUSH1 0x3 SLOAD PUSH20 0x0 PUSH4 0xDB23D7E6 PUSH1 0x2 PUSH0 SWAP1 SLOAD SWAP1 PUSH2 0x100 EXP SWAP1 DIV PUSH20 0xFFFFFFFFFFFFFFFFFFFFFFFFFFFFFFFFFFFFFFFF AND DUP5 PUSH1 0x40 MLOAD DUP4 PUSH4 0xFFFFFFFF AND PUSH1 0xE0 SHL DUP2 MSTORE PUSH1 0x4 ADD PUSH2 0x284 SWAP3 SWAP2 SWAP1 PUSH2 0x5E9 JUMP JUMPDEST PUSH1 0x20 PUSH1 0x40 MLOAD DUP1 DUP4 SUB DUP2 DUP7 GAS DELEGATECALL ISZERO DUP1 ISZERO PUSH2 0x29F JUMPI RETURNDATASIZE PUSH0 DUP1 RETURNDATACOPY RETURNDATASIZE PUSH0 REVERT JUMPDEST POP POP POP POP PUSH1 0x40 MLOAD RETURNDATASIZE PUSH1 0x1F NOT PUSH1 0x1F DUP3 ADD AND DUP3 ADD DUP1 PUSH1 0x40 MSTORE POP DUP2 ADD SWAP1 PUSH2 0x2C3 SWAP2 SWAP1 PUSH2 0x624 JUMP JUMPDEST LT ISZERO PUSH2 0x304 JUMPI PUSH1 0x40 MLOAD PUSH32 0x8C379A000000000000000000000000000000000000000000000000000000000 DUP2 MSTORE PUSH1 0x4 ADD PUSH2 0x2FB SWAP1 PUSH2 0x6CF JUMP JUMPDEST PUSH1 0x40 MLOAD DUP1 SWAP2 SUB SWAP1 REVERT JUMPDEST PUSH0 CALLER SWAP1 DUP1 PUSH1 0x1 DUP2 SLOAD ADD DUP1 DUP3 SSTORE DUP1 SWAP2 POP POP PUSH1 0x1 SWAP1 SUB SWAP1 PUSH0 MSTORE PUSH1 0x20 PUSH0 KECCAK256 ADD PUSH0 SWAP1 SWAP2 SWAP1 SWAP2 SWAP1 SWAP2 PUSH2 0x100 EXP DUP2 SLOAD DUP2 PUSH20 0xFFFFFFFFFFFFFFFFFFFFFFFFFFFFFFFFFFFFFFFF MUL NOT AND SWAP1 DUP4 PUSH20 0xFFFFFFFFFFFFFFFFFFFFFFFFFFFFFFFFFFFFFFFF AND MUL OR SWAP1 SSTORE POP DUP1 PUSH1 0x1 PUSH0 CALLER PUSH20 0xFFFFFFFFFFFFFFFFFFFFFFFFFFFFFFFFFFFFFFFF AND PUSH20 0xFFFFFFFFFFFFFFFFFFFFFFFFFFFFFFFFFFFFFFFF AND DUP2 MSTORE PUSH1 0x20 ADD SWAP1 DUP2 MSTORE PUSH1 0x20 ADD PUSH0 KECCAK256 PUSH0 DUP3 DUP3 SLOAD PUSH2 0x3AF SWAP2 SWAP1 PUSH2 0x71A JUMP JUMPDEST SWAP3 POP POP DUP2 SWAP1 SSTORE POP POP JUMP JUMPDEST PUSH0 DUP2 DUP2 SLOAD DUP2 LT PUSH2 0x3C7 JUMPI PUSH0 DUP1 REVERT JUMPDEST SWAP1 PUSH0 MSTORE PUSH1 0x20 PUSH0 KECCAK256 ADD PUSH0 SWAP2 POP SLOAD SWAP1 PUSH2 0x100 EXP SWAP1 DIV PUSH20 0xFFFFFFFFFFFFFFFFFFFFFFFFFFFFFFFFFFFFFFFF AND DUP2 JUMP JUMPDEST PUSH0 DUP2 SWAP1 POP SWAP2 SWAP1 POP JUMP JUMPDEST PUSH2 0x405 DUP2 PUSH2 0x3F3 JUMP JUMPDEST DUP3 MSTORE POP POP JUMP JUMPDEST PUSH0 PUSH1 0x20 DUP3 ADD SWAP1 POP PUSH2 0x41E PUSH0 DUP4 ADD DUP5 PUSH2 0x3FC JUMP JUMPDEST SWAP3 SWAP2 POP POP JUMP JUMPDEST PUSH0 PUSH20 0xFFFFFFFFFFFFFFFFFFFFFFFFFFFFFFFFFFFFFFFF DUP3 AND SWAP1 POP SWAP2 SWAP1 POP JUMP JUMPDEST PUSH0 DUP2 SWAP1 POP SWAP2 SWAP1 POP JUMP JUMPDEST PUSH0 PUSH2 0x466 PUSH2 0x461 PUSH2 0x45C DUP5 PUSH2 0x424 JUMP JUMPDEST PUSH2 0x443 JUMP JUMPDEST PUSH2 0x424 JUMP JUMPDEST SWAP1 POP SWAP2 SWAP1 POP JUMP JUMPDEST PUSH0 PUSH2 0x477 DUP3 PUSH2 0x44C JUMP JUMPDEST SWAP1 POP SWAP2 SWAP1 POP JUMP JUMPDEST PUSH0 PUSH2 0x488 DUP3 PUSH2 0x46D JUMP JUMPDEST SWAP1 POP SWAP2 SWAP1 POP JUMP JUMPDEST PUSH2 0x498 DUP2 PUSH2 0x47E JUMP JUMPDEST DUP3 MSTORE POP POP JUMP JUMPDEST PUSH0 PUSH1 0x20 DUP3 ADD SWAP1 POP PUSH2 0x4B1 PUSH0 DUP4 ADD DUP5 PUSH2 0x48F JUMP JUMPDEST SWAP3 SWAP2 POP POP JUMP JUMPDEST PUSH0 DUP1 REVERT JUMPDEST PUSH0 PUSH2 0x4C5 DUP3 PUSH2 0x424 JUMP JUMPDEST SWAP1 POP SWAP2 SWAP1 POP JUMP JUMPDEST PUSH2 0x4D5 DUP2 PUSH2 0x4BB JUMP JUMPDEST DUP2 EQ PUSH2 0x4DF JUMPI PUSH0 DUP1 REVERT JUMPDEST POP JUMP JUMPDEST PUSH0 DUP2 CALLDATALOAD SWAP1 POP PUSH2 0x4F0 DUP2 PUSH2 0x4CC JUMP JUMPDEST SWAP3 SWAP2 POP POP JUMP JUMPDEST PUSH0 PUSH1 0x20 DUP3 DUP5 SUB SLT ISZERO PUSH2 0x50B JUMPI PUSH2 0x50A PUSH2 0x4B7 JUMP JUMPDEST JUMPDEST PUSH0 PUSH2 0x518 DUP5 DUP3 DUP6 ADD PUSH2 0x4E2 JUMP JUMPDEST SWAP2 POP POP SWAP3 SWAP2 POP POP JUMP JUMPDEST PUSH2 0x52A DUP2 PUSH2 0x3F3 JUMP JUMPDEST DUP2 EQ PUSH2 0x534 JUMPI PUSH0 DUP1 REVERT JUMPDEST POP JUMP JUMPDEST PUSH0 DUP2 CALLDATALOAD SWAP1 POP PUSH2 0x545 DUP2 PUSH2 0x521 JUMP JUMPDEST SWAP3 SWAP2 POP POP JUMP JUMPDEST PUSH0 PUSH1 0x20 DUP3 DUP5 SUB SLT ISZERO PUSH2 0x560 JUMPI PUSH2 0x55F PUSH2 0x4B7 JUMP JUMPDEST JUMPDEST PUSH0 PUSH2 0x56D DUP5 DUP3 DUP6 ADD PUSH2 0x537 JUMP JUMPDEST SWAP2 POP POP SWAP3 SWAP2 POP POP JUMP JUMPDEST PUSH2 0x57F DUP2 PUSH2 0x4BB JUMP JUMPDEST DUP3 MSTORE POP POP JUMP JUMPDEST PUSH0 PUSH1 0x20 DUP3 ADD SWAP1 POP PUSH2 0x598 PUSH0 DUP4 ADD DUP5 PUSH2 0x576 JUMP JUMPDEST SWAP3 SWAP2 POP POP JUMP JUMPDEST PUSH32 0x4E487B7100000000000000000000000000000000000000000000000000000000 PUSH0 MSTORE PUSH1 0x32 PUSH1 0x4 MSTORE PUSH1 0x24 PUSH0 REVERT JUMPDEST PUSH2 0x5D4 DUP2 PUSH2 0x47E JUMP JUMPDEST DUP3 MSTORE POP POP JUMP JUMPDEST PUSH2 0x5E3 DUP2 PUSH2 0x3F3 JUMP JUMPDEST DUP3 MSTORE POP POP JUMP JUMPDEST PUSH0 PUSH1 0x40 DUP3 ADD SWAP1 POP PUSH2 0x5FC PUSH0 DUP4 ADD DUP6 PUSH2 0x5CB JUMP JUMPDEST PUSH2 0x609 PUSH1 0x20 DUP4 ADD DUP5 PUSH2 0x5DA JUMP JUMPDEST SWAP4 SWAP3 POP POP POP JUMP JUMPDEST PUSH0 DUP2 MLOAD SWAP1 POP PUSH2 0x61E DUP2 PUSH2 0x521 JUMP JUMPDEST SWAP3 SWAP2 POP POP JUMP JUMPDEST PUSH0 PUSH1 0x20 DUP3 DUP5 SUB SLT ISZERO PUSH2 0x639 JUMPI PUSH2 0x638 PUSH2 0x4B7 JUMP JUMPDEST JUMPDEST PUSH0 PUSH2 0x646 DUP5 DUP3 DUP6 ADD PUSH2 0x610 JUMP JUMPDEST SWAP2 POP POP SWAP3 SWAP2 POP POP JUMP JUMPDEST PUSH0 DUP3 DUP3 MSTORE PUSH1 0x20 DUP3 ADD SWAP1 POP SWAP3 SWAP2 POP POP JUMP JUMPDEST PUSH32 0x506C6561736520746F7020757020796F75722062616C616E636520746F206D61 PUSH0 DUP3 ADD MSTORE PUSH32 0x6B652074686973207472616E73616374696F6E00000000000000000000000000 PUSH1 0x20 DUP3 ADD MSTORE POP JUMP JUMPDEST PUSH0 PUSH2 0x6B9 PUSH1 0x33 DUP4 PUSH2 0x64F JUMP JUMPDEST SWAP2 POP PUSH2 0x6C4 DUP3 PUSH2 0x65F JUMP JUMPDEST PUSH1 0x40 DUP3 ADD SWAP1 POP SWAP2 SWAP1 POP JUMP JUMPDEST PUSH0 PUSH1 0x20 DUP3 ADD SWAP1 POP DUP2 DUP2 SUB PUSH0 DUP4 ADD MSTORE PUSH2 0x6E6 DUP2 PUSH2 0x6AD JUMP JUMPDEST SWAP1 POP SWAP2 SWAP1 POP JUMP JUMPDEST PUSH32 0x4E487B7100000000000000000000000000000000000000000000000000000000 PUSH0 MSTORE PUSH1 0x11 PUSH1 0x4 MSTORE PUSH1 0x24 PUSH0 REVERT JUMPDEST PUSH0 PUSH2 0x724 DUP3 PUSH2 0x3F3 JUMP JUMPDEST SWAP2 POP PUSH2 0x72F DUP4 PUSH2 0x3F3 JUMP JUMPDEST SWAP3 POP DUP3 DUP3 ADD SWAP1 POP DUP1 DUP3 GT ISZERO PUSH2 0x747 JUMPI PUSH2 0x746 PUSH2 0x6ED JUMP JUMPDEST JUMPDEST SWAP3 SWAP2 POP POP JUMP INVALID LOG2 PUSH5 0x6970667358 0x22 SLT KECCAK256 0x2F 0xD8 0xF7 PUSH27 0x6AB14CC36103B7BB8B0727068FE73F6725E66F3E889C522BCCE660 DUP10 PUSH5 0x736F6C6343 STOP ADDMOD AND STOP CALLER "
				},
				"gasEstimates": {
					"creation": {
						"codeDepositCost": "384600",
						"executionCost": "infinite",
						"totalCost": "infinite"
					},
					"external": {
						"addressToAmountFunded(address)": "2846",
						"aggregator()": "infinite",
						"fund()": "infinite",
						"funders(uint256)": "5031",
						"minimumUsd()": "2403",
						"withdraw()": "infinite"
					}
				},
				"methodIdentifiers": {
					"addressToAmountFunded(address)": "3e47d6f3",
					"aggregator()": "245a7bfc",
					"fund()": "b60d4288",
					"funders(uint256)": "dc0d3dff",
					"minimumUsd()": "098de820",
					"withdraw()": "3ccfd60b"
				}
			},
			"storageLayout": {
				"storage": [
					{
						"astId": 57,
						"contract": "FundMe.sol:FundMe",
						"label": "funders",
						"offset": 0,
						"slot": "0",
						"type": "t_array(t_address)dyn_storage"
					},
					{
						"astId": 61,
						"contract": "FundMe.sol:FundMe",
						"label": "addressToAmountFunded",
						"offset": 0,
						"slot": "1",
						"type": "t_mapping(t_address,t_uint256)"
					},
					{
						"astId": 64,
						"contract": "FundMe.sol:FundMe",
						"label": "aggregator",
						"offset": 0,
						"slot": "2",
						"type": "t_contract(AggregatorV3Interface)45"
					},
					{
						"astId": 78,
						"contract": "FundMe.sol:FundMe",
						"label": "minimumUsd",
						"offset": 0,
						"slot": "3",
						"type": "t_uint256"
					}
				],
				"types": {
					"t_address": {
						"encoding": "inplace",
						"label": "address",
						"numberOfBytes": "20"
					},
					"t_array(t_address)dyn_storage": {
						"base": "t_address",
						"encoding": "dynamic_array",
						"label": "address[]",
						"numberOfBytes": "32"
					},
					"t_contract(AggregatorV3Interface)45": {
						"encoding": "inplace",
						"label": "contract AggregatorV3Interface",
						"numberOfBytes": "20"
					},
					"t_mapping(t_address,t_uint256)": {
						"encoding": "mapping",
						"key": "t_address",
						"label": "mapping(address => uint256)",
						"numberOfBytes": "32",
						"value": "t_uint256"
					},
					"t_uint256": {
						"encoding": "inplace",
						"label": "uint256",
						"numberOfBytes": "32"
					}
				}
			},
			"userdoc": {
				"kind": "user",
				"methods": {},
				"version": 1
			}
		}
	}
}