{
	"data": {
		"bytecode": {
			"linkReferences": {},
			"object": "608060405234801561000f575f80fd5b506107598061001d5f395ff3fe608060405234801561000f575f80fd5b5060043610610034575f3560e01c80636f760f41146100385780639e7a13ad14610054575b5f80fd5b610052600480360381019061004d919061031e565b610085565b005b61006e60048036038101906100699190610378565b6100ea565b60405161007c92919061042c565b60405180910390f35b5f60405180604001604052808481526020018381525090505f81908060018154018082558091505060019003905f5260205f2090600202015f909190919091505f820151815f0190816100d89190610654565b50602082015181600101555050505050565b5f81815481106100f8575f80fd5b905f5260205f2090600202015f91509050805f01805461011790610487565b80601f016020809104026020016040519081016040528092919081815260200182805461014390610487565b801561018e5780601f106101655761010080835404028352916020019161018e565b820191905f5260205f20905b81548152906001019060200180831161017157829003601f168201915b5050505050908060010154905082565b5f604051905090565b5f80fd5b5f80fd5b5f80fd5b5f80fd5b5f601f19601f8301169050919050565b7f4e487b71000000000000000000000000000000000000000000000000000000005f52604160045260245ffd5b6101fd826101b7565b810181811067ffffffffffffffff8211171561021c5761021b6101c7565b5b80604052505050565b5f61022e61019e565b905061023a82826101f4565b919050565b5f67ffffffffffffffff821115610259576102586101c7565b5b610262826101b7565b9050602081019050919050565b828183375f83830152505050565b5f61028f61028a8461023f565b610225565b9050828152602081018484840111156102ab576102aa6101b3565b5b6102b684828561026f565b509392505050565b5f82601f8301126102d2576102d16101af565b5b81356102e284826020860161027d565b91505092915050565b5f819050919050565b6102fd816102eb565b8114610307575f80fd5b50565b5f81359050610318816102f4565b92915050565b5f8060408385031215610334576103336101a7565b5b5f83013567ffffffffffffffff811115610351576103506101ab565b5b61035d858286016102be565b925050602061036e8582860161030a565b9150509250929050565b5f6020828403121561038d5761038c6101a7565b5b5f61039a8482850161030a565b91505092915050565b5f81519050919050565b5f82825260208201905092915050565b5f5b838110156103da5780820151818401526020810190506103bf565b5f8484015250505050565b5f6103ef826103a3565b6103f981856103ad565b93506104098185602086016103bd565b610412816101b7565b840191505092915050565b610426816102eb565b82525050565b5f6040820190508181035f83015261044481856103e5565b9050610453602083018461041d565b9392505050565b7f4e487b71000000000000000000000000000000000000000000000000000000005f52602260045260245ffd5b5f600282049050600182168061049e57607f821691505b6020821081036104b1576104b061045a565b5b50919050565b5f819050815f5260205f209050919050565b5f6020601f8301049050919050565b5f82821b905092915050565b5f600883026105137fffffffffffffffffffffffffffffffffffffffffffffffffffffffffffffffff826104d8565b61051d86836104d8565b95508019841693508086168417925050509392505050565b5f819050919050565b5f61055861055361054e846102eb565b610535565b6102eb565b9050919050565b5f819050919050565b6105718361053e565b61058561057d8261055f565b8484546104e4565b825550505050565b5f90565b61059961058d565b6105a4818484610568565b505050565b5b818110156105c7576105bc5f82610591565b6001810190506105aa565b5050565b601f82111561060c576105dd816104b7565b6105e6846104c9565b810160208510156105f5578190505b610609610601856104c9565b8301826105a9565b50505b505050565b5f82821c905092915050565b5f61062c5f1984600802610611565b1980831691505092915050565b5f610644838361061d565b9150826002028217905092915050565b61065d826103a3565b67ffffffffffffffff811115610676576106756101c7565b5b6106808254610487565b61068b8282856105cb565b5f60209050601f8311600181146106bc575f84156106aa578287015190505b6106b48582610639565b86555061071b565b601f1984166106ca866104b7565b5f5b828110156106f1578489015182556001820191506020850194506020810190506106cc565b8683101561070e578489015161070a601f89168261061d565b8355505b6001600288020188555050505b50505050505056fea2646970667358221220c0274d387a73faeed5af94ffd7a32c71b194028bf1cb1f0a8d4279e270e8bbdc64736f6c63430008160033",
			"opcodes": "PUSH1 0x80 PUSH1 0x40 MSTORE CALLVALUE DUP1 ISZERO PUSH2 0xF JUMPI PUSH0 DUP1 REVERT JUMPDEST POP PUSH2 0x759 DUP1 PUSH2 0x1D PUSH0 CODECOPY PUSH0 RETURN INVALID PUSH1 0x80 PUSH1 0x40 MSTORE CALLVALUE DUP1 ISZERO PUSH2 0xF JUMPI PUSH0 DUP1 REVERT JUMPDEST POP PUSH1 0x4 CALLDATASIZE LT PUSH2 0x34 JUMPI PUSH0 CALLDATALOAD PUSH1 0xE0 SHR DUP1 PUSH4 0x6F760F41 EQ PUSH2 0x38 JUMPI DUP1 PUSH4 0x9E7A13AD EQ PUSH2 0x54 JUMPI JUMPDEST PUSH0 DUP1 REVERT JUMPDEST PUSH2 0x52 PUSH1 0x4 DUP1 CALLDATASIZE SUB DUP2 ADD SWAP1 PUSH2 0x4D SWAP2 SWAP1 PUSH2 0x31E JUMP JUMPDEST PUSH2 0x85 JUMP JUMPDEST STOP JUMPDEST PUSH2 0x6E PUSH1 0x4 DUP1 CALLDATASIZE SUB DUP2 ADD SWAP1 PUSH2 0x69 SWAP2 SWAP1 PUSH2 0x378 JUMP JUMPDEST PUSH2 0xEA JUMP JUMPDEST PUSH1 0x40 MLOAD PUSH2 0x7C SWAP3 SWAP2 SWAP1 PUSH2 0x42C JUMP JUMPDEST PUSH1 0x40 MLOAD DUP1 SWAP2 SUB SWAP1 RETURN JUMPDEST PUSH0 PUSH1 0x40 MLOAD DUP1 PUSH1 0x40 ADD PUSH1 0x40 MSTORE DUP1 DUP5 DUP2 MSTORE PUSH1 0x20 ADD DUP4 DUP2 MSTORE POP SWAP1 POP PUSH0 DUP2 SWAP1 DUP1 PUSH1 0x1 DUP2 SLOAD ADD DUP1 DUP3 SSTORE DUP1 SWAP2 POP POP PUSH1 0x1 SWAP1 SUB SWAP1 PUSH0 MSTORE PUSH1 0x20 PUSH0 KECCAK256 SWAP1 PUSH1 0x2 MUL ADD PUSH0 SWAP1 SWAP2 SWAP1 SWAP2 SWAP1 SWAP2 POP PUSH0 DUP3 ADD MLOAD DUP2 PUSH0 ADD SWAP1 DUP2 PUSH2 0xD8 SWAP2 SWAP1 PUSH2 0x654 JUMP JUMPDEST POP PUSH1 0x20 DUP3 ADD MLOAD DUP2 PUSH1 0x1 ADD SSTORE POP POP POP POP POP JUMP JUMPDEST PUSH0 DUP2 DUP2 SLOAD DUP2 LT PUSH2 0xF8 JUMPI PUSH0 DUP1 REVERT JUMPDEST SWAP1 PUSH0 MSTORE PUSH1 0x20 PUSH0 KECCAK256 SWAP1 PUSH1 0x2 MUL ADD PUSH0 SWAP2 POP SWAP1 POP DUP1 PUSH0 ADD DUP1 SLOAD PUSH2 0x117 SWAP1 PUSH2 0x487 JUMP JUMPDEST DUP1 PUSH1 0x1F ADD PUSH1 0x20 DUP1 SWAP2 DIV MUL PUSH1 0x20 ADD PUSH1 0x40 MLOAD SWAP1 DUP2 ADD PUSH1 0x40 MSTORE DUP1 SWAP3 SWAP2 SWAP1 DUP2 DUP2 MSTORE PUSH1 0x20 ADD DUP3 DUP1 SLOAD PUSH2 0x143 SWAP1 PUSH2 0x487 JUMP JUMPDEST DUP1 ISZERO PUSH2 0x18E JUMPI DUP1 PUSH1 0x1F LT PUSH2 0x165 JUMPI PUSH2 0x100 DUP1 DUP4 SLOAD DIV MUL DUP4 MSTORE SWAP2 PUSH1 0x20 ADD SWAP2 PUSH2 0x18E JUMP JUMPDEST DUP3 ADD SWAP2 SWAP1 PUSH0 MSTORE PUSH1 0x20 PUSH0 KECCAK256 SWAP1 JUMPDEST DUP2 SLOAD DUP2 MSTORE SWAP1 PUSH1 0x1 ADD SWAP1 PUSH1 0x20 ADD DUP1 DUP4 GT PUSH2 0x171 JUMPI DUP3 SWAP1 SUB PUSH1 0x1F AND DUP3 ADD SWAP2 JUMPDEST POP POP POP POP POP SWAP1 DUP1 PUSH1 0x1 ADD SLOAD SWAP1 POP DUP3 JUMP JUMPDEST PUSH0 PUSH1 0x40 MLOAD SWAP1 POP SWAP1 JUMP JUMPDEST PUSH0 DUP1 REVERT JUMPDEST PUSH0 DUP1 REVERT JUMPDEST PUSH0 DUP1 REVERT JUMPDEST PUSH0 DUP1 REVERT JUMPDEST PUSH0 PUSH1 0x1F NOT PUSH1 0x1F DUP4 ADD AND SWAP1 POP SWAP2 SWAP1 POP JUMP JUMPDEST PUSH32 0x4E487B7100000000000000000000000000000000000000000000000000000000 PUSH0 MSTORE PUSH1 0x41 PUSH1 0x4 MSTORE PUSH1 0x24 PUSH0 REVERT JUMPDEST PUSH2 0x1FD DUP3 PUSH2 0x1B7 JUMP JUMPDEST DUP2 ADD DUP2 DUP2 LT PUSH8 0xFFFFFFFFFFFFFFFF DUP3 GT OR ISZERO PUSH2 0x21C JUMPI PUSH2 0x21B PUSH2 0x1C7 JUMP JUMPDEST JUMPDEST DUP1 PUSH1 0x40 MSTORE POP POP POP JUMP JUMPDEST PUSH0 PUSH2 0x22E PUSH2 0x19E JUMP JUMPDEST SWAP1 POP PUSH2 0x23A DUP3 DUP3 PUSH2 0x1F4 JUMP JUMPDEST SWAP2 SWAP1 POP JUMP JUMPDEST PUSH0 PUSH8 0xFFFFFFFFFFFFFFFF DUP3 GT ISZERO PUSH2 0x259 JUMPI PUSH2 0x258 PUSH2 0x1C7 JUMP JUMPDEST JUMPDEST PUSH2 0x262 DUP3 PUSH2 0x1B7 JUMP JUMPDEST SWAP1 POP PUSH1 0x20 DUP2 ADD SWAP1 POP SWAP2 SWAP1 POP JUMP JUMPDEST DUP3 DUP2 DUP4 CALLDATACOPY PUSH0 DUP4 DUP4 ADD MSTORE POP POP POP JUMP JUMPDEST PUSH0 PUSH2 0x28F PUSH2 0x28A DUP5 PUSH2 0x23F JUMP JUMPDEST PUSH2 0x225 JUMP JUMPDEST SWAP1 POP DUP3 DUP2 MSTORE PUSH1 0x20 DUP2 ADD DUP5 DUP5 DUP5 ADD GT ISZERO PUSH2 0x2AB JUMPI PUSH2 0x2AA PUSH2 0x1B3 JUMP JUMPDEST JUMPDEST PUSH2 0x2B6 DUP5 DUP3 DUP6 PUSH2 0x26F JUMP JUMPDEST POP SWAP4 SWAP3 POP POP POP JUMP JUMPDEST PUSH0 DUP3 PUSH1 0x1F DUP4 ADD SLT PUSH2 0x2D2 JUMPI PUSH2 0x2D1 PUSH2 0x1AF JUMP JUMPDEST JUMPDEST DUP2 CALLDATALOAD PUSH2 0x2E2 DUP5 DUP3 PUSH1 0x20 DUP7 ADD PUSH2 0x27D JUMP JUMPDEST SWAP2 POP POP SWAP3 SWAP2 POP POP JUMP JUMPDEST PUSH0 DUP2 SWAP1 POP SWAP2 SWAP1 POP JUMP JUMPDEST PUSH2 0x2FD DUP2 PUSH2 0x2EB JUMP JUMPDEST DUP2 EQ PUSH2 0x307 JUMPI PUSH0 DUP1 REVERT JUMPDEST POP JUMP JUMPDEST PUSH0 DUP2 CALLDATALOAD SWAP1 POP PUSH2 0x318 DUP2 PUSH2 0x2F4 JUMP JUMPDEST SWAP3 SWAP2 POP POP JUMP JUMPDEST PUSH0 DUP1 PUSH1 0x40 DUP4 DUP6 SUB SLT ISZERO PUSH2 0x334 JUMPI PUSH2 0x333 PUSH2 0x1A7 JUMP JUMPDEST JUMPDEST PUSH0 DUP4 ADD CALLDATALOAD PUSH8 0xFFFFFFFFFFFFFFFF DUP2 GT ISZERO PUSH2 0x351 JUMPI PUSH2 0x350 PUSH2 0x1AB JUMP JUMPDEST JUMPDEST PUSH2 0x35D DUP6 DUP3 DUP7 ADD PUSH2 0x2BE JUMP JUMPDEST SWAP3 POP POP PUSH1 0x20 PUSH2 0x36E DUP6 DUP3 DUP7 ADD PUSH2 0x30A JUMP JUMPDEST SWAP2 POP POP SWAP3 POP SWAP3 SWAP1 POP JUMP JUMPDEST PUSH0 PUSH1 0x20 DUP3 DUP5 SUB SLT ISZERO PUSH2 0x38D JUMPI PUSH2 0x38C PUSH2 0x1A7 JUMP JUMPDEST JUMPDEST PUSH0 PUSH2 0x39A DUP5 DUP3 DUP6 ADD PUSH2 0x30A JUMP JUMPDEST SWAP2 POP POP SWAP3 SWAP2 POP POP JUMP JUMPDEST PUSH0 DUP2 MLOAD SWAP1 POP SWAP2 SWAP1 POP JUMP JUMPDEST PUSH0 DUP3 DUP3 MSTORE PUSH1 0x20 DUP3 ADD SWAP1 POP SWAP3 SWAP2 POP POP JUMP JUMPDEST PUSH0 JUMPDEST DUP4 DUP2 LT ISZERO PUSH2 0x3DA JUMPI DUP1 DUP3 ADD MLOAD DUP2 DUP5 ADD MSTORE PUSH1 0x20 DUP2 ADD SWAP1 POP PUSH2 0x3BF JUMP JUMPDEST PUSH0 DUP5 DUP5 ADD MSTORE POP POP POP POP JUMP JUMPDEST PUSH0 PUSH2 0x3EF DUP3 PUSH2 0x3A3 JUMP JUMPDEST PUSH2 0x3F9 DUP2 DUP6 PUSH2 0x3AD JUMP JUMPDEST SWAP4 POP PUSH2 0x409 DUP2 DUP6 PUSH1 0x20 DUP7 ADD PUSH2 0x3BD JUMP JUMPDEST PUSH2 0x412 DUP2 PUSH2 0x1B7 JUMP JUMPDEST DUP5 ADD SWAP2 POP POP SWAP3 SWAP2 POP POP JUMP JUMPDEST PUSH2 0x426 DUP2 PUSH2 0x2EB JUMP JUMPDEST DUP3 MSTORE POP POP JUMP JUMPDEST PUSH0 PUSH1 0x40 DUP3 ADD SWAP1 POP DUP2 DUP2 SUB PUSH0 DUP4 ADD MSTORE PUSH2 0x444 DUP2 DUP6 PUSH2 0x3E5 JUMP JUMPDEST SWAP1 POP PUSH2 0x453 PUSH1 0x20 DUP4 ADD DUP5 PUSH2 0x41D JUMP JUMPDEST SWAP4 SWAP3 POP POP POP JUMP JUMPDEST PUSH32 0x4E487B7100000000000000000000000000000000000000000000000000000000 PUSH0 MSTORE PUSH1 0x22 PUSH1 0x4 MSTORE PUSH1 0x24 PUSH0 REVERT JUMPDEST PUSH0 PUSH1 0x2 DUP3 DIV SWAP1 POP PUSH1 0x1 DUP3 AND DUP1 PUSH2 0x49E JUMPI PUSH1 0x7F DUP3 AND SWAP2 POP JUMPDEST PUSH1 0x20 DUP3 LT DUP2 SUB PUSH2 0x4B1 JUMPI PUSH2 0x4B0 PUSH2 0x45A JUMP JUMPDEST JUMPDEST POP SWAP2 SWAP1 POP JUMP JUMPDEST PUSH0 DUP2 SWAP1 POP DUP2 PUSH0 MSTORE PUSH1 0x20 PUSH0 KECCAK256 SWAP1 POP SWAP2 SWAP1 POP JUMP JUMPDEST PUSH0 PUSH1 0x20 PUSH1 0x1F DUP4 ADD DIV SWAP1 POP SWAP2 SWAP1 POP JUMP JUMPDEST PUSH0 DUP3 DUP3 SHL SWAP1 POP SWAP3 SWAP2 POP POP JUMP JUMPDEST PUSH0 PUSH1 0x8 DUP4 MUL PUSH2 0x513 PUSH32 0xFFFFFFFFFFFFFFFFFFFFFFFFFFFFFFFFFFFFFFFFFFFFFFFFFFFFFFFFFFFFFFFF DUP3 PUSH2 0x4D8 JUMP JUMPDEST PUSH2 0x51D DUP7 DUP4 PUSH2 0x4D8 JUMP JUMPDEST SWAP6 POP DUP1 NOT DUP5 AND SWAP4 POP DUP1 DUP7 AND DUP5 OR SWAP3 POP POP POP SWAP4 SWAP3 POP POP POP JUMP JUMPDEST PUSH0 DUP2 SWAP1 POP SWAP2 SWAP1 POP JUMP JUMPDEST PUSH0 PUSH2 0x558 PUSH2 0x553 PUSH2 0x54E DUP5 PUSH2 0x2EB JUMP JUMPDEST PUSH2 0x535 JUMP JUMPDEST PUSH2 0x2EB JUMP JUMPDEST SWAP1 POP SWAP2 SWAP1 POP JUMP JUMPDEST PUSH0 DUP2 SWAP1 POP SWAP2 SWAP1 POP JUMP JUMPDEST PUSH2 0x571 DUP4 PUSH2 0x53E JUMP JUMPDEST PUSH2 0x585 PUSH2 0x57D DUP3 PUSH2 0x55F JUMP JUMPDEST DUP5 DUP5 SLOAD PUSH2 0x4E4 JUMP JUMPDEST DUP3 SSTORE POP POP POP POP JUMP JUMPDEST PUSH0 SWAP1 JUMP JUMPDEST PUSH2 0x599 PUSH2 0x58D JUMP JUMPDEST PUSH2 0x5A4 DUP2 DUP5 DUP5 PUSH2 0x568 JUMP JUMPDEST POP POP POP JUMP JUMPDEST JUMPDEST DUP2 DUP2 LT ISZERO PUSH2 0x5C7 JUMPI PUSH2 0x5BC PUSH0 DUP3 PUSH2 0x591 JUMP JUMPDEST PUSH1 0x1 DUP2 ADD SWAP1 POP PUSH2 0x5AA JUMP JUMPDEST POP POP JUMP JUMPDEST PUSH1 0x1F DUP3 GT ISZERO PUSH2 0x60C JUMPI PUSH2 0x5DD DUP2 PUSH2 0x4B7 JUMP JUMPDEST PUSH2 0x5E6 DUP5 PUSH2 0x4C9 JUMP JUMPDEST DUP2 ADD PUSH1 0x20 DUP6 LT ISZERO PUSH2 0x5F5 JUMPI DUP2 SWAP1 POP JUMPDEST PUSH2 0x609 PUSH2 0x601 DUP6 PUSH2 0x4C9 JUMP JUMPDEST DUP4 ADD DUP3 PUSH2 0x5A9 JUMP JUMPDEST POP POP JUMPDEST POP POP POP JUMP JUMPDEST PUSH0 DUP3 DUP3 SHR SWAP1 POP SWAP3 SWAP2 POP POP JUMP JUMPDEST PUSH0 PUSH2 0x62C PUSH0 NOT DUP5 PUSH1 0x8 MUL PUSH2 0x611 JUMP JUMPDEST NOT DUP1 DUP4 AND SWAP2 POP POP SWAP3 SWAP2 POP POP JUMP JUMPDEST PUSH0 PUSH2 0x644 DUP4 DUP4 PUSH2 0x61D JUMP JUMPDEST SWAP2 POP DUP3 PUSH1 0x2 MUL DUP3 OR SWAP1 POP SWAP3 SWAP2 POP POP JUMP JUMPDEST PUSH2 0x65D DUP3 PUSH2 0x3A3 JUMP JUMPDEST PUSH8 0xFFFFFFFFFFFFFFFF DUP2 GT ISZERO PUSH2 0x676 JUMPI PUSH2 0x675 PUSH2 0x1C7 JUMP JUMPDEST JUMPDEST PUSH2 0x680 DUP3 SLOAD PUSH2 0x487 JUMP JUMPDEST PUSH2 0x68B DUP3 DUP3 DUP6 PUSH2 0x5CB JUMP JUMPDEST PUSH0 PUSH1 0x20 SWAP1 POP PUSH1 0x1F DUP4 GT PUSH1 0x1 DUP2 EQ PUSH2 0x6BC JUMPI PUSH0 DUP5 ISZERO PUSH2 0x6AA JUMPI DUP3 DUP8 ADD MLOAD SWAP1 POP JUMPDEST PUSH2 0x6B4 DUP6 DUP3 PUSH2 0x639 JUMP JUMPDEST DUP7 SSTORE POP PUSH2 0x71B JUMP JUMPDEST PUSH1 0x1F NOT DUP5 AND PUSH2 0x6CA DUP7 PUSH2 0x4B7 JUMP JUMPDEST PUSH0 JUMPDEST DUP3 DUP2 LT ISZERO PUSH2 0x6F1 JUMPI DUP5 DUP10 ADD MLOAD DUP3 SSTORE PUSH1 0x1 DUP3 ADD SWAP2 POP PUSH1 0x20 DUP6 ADD SWAP5 POP PUSH1 0x20 DUP2 ADD SWAP1 POP PUSH2 0x6CC JUMP JUMPDEST DUP7 DUP4 LT ISZERO PUSH2 0x70E JUMPI DUP5 DUP10 ADD MLOAD PUSH2 0x70A PUSH1 0x1F DUP10 AND DUP3 PUSH2 0x61D JUMP JUMPDEST DUP4 SSTORE POP JUMPDEST PUSH1 0x1 PUSH1 0x2 DUP9 MUL ADD DUP9 SSTORE POP POP POP JUMPDEST POP POP POP POP POP POP JUMP INVALID LOG2 PUSH5 0x6970667358 0x22 SLT KECCAK256 0xC0 0x27 0x4D CODESIZE PUSH27 0x73FAEED5AF94FFD7A32C71B194028BF1CB1F0A8D4279E270E8BBDC PUSH5 0x736F6C6343 STOP ADDMOD AND STOP CALLER "
		},
		"gasEstimates": {
			"creation": {
				"codeDepositCost": "376200",
				"executionCost": "409",
				"totalCost": "376609"
			},
			"external": {
				"addPerson(string,uint256)": "infinite",
				"people(uint256)": "infinite"
			}
		},
		"methodIdentifiers": {
			"addPerson(string,uint256)": "6f760f41",
			"people(uint256)": "9e7a13ad"
		}
	},
	"abi": [
		{
			"inputs": [
				{
					"internalType": "string",
					"name": "_name",
					"type": "string"
				},
				{
					"internalType": "uint256",
					"name": "_number",
					"type": "uint256"
				}
			],
			"name": "addPerson",
			"outputs": [],
			"stateMutability": "nonpayable",
			"type": "function"
		},
		{
			"inputs": [
				{
					"internalType": "uint256",
					"name": "",
					"type": "uint256"
				}
			],
			"name": "people",
			"outputs": [
				{
					"internalType": "string",
					"name": "name",
					"type": "string"
				},
				{
					"internalType": "uint256",
					"name": "number",
					"type": "uint256"
				}
			],
			"stateMutability": "view",
			"type": "function"
		}
	]
}